{
  "address": "0xe8076b98Cd6E4E1018A7208c05e8a8443B0Dd35B",
  "abi": [
    {
      "inputs": [
        {
          "internalType": "uint256",
          "name": "_mintStartTS",
          "type": "uint256"
        },
        {
          "internalType": "address",
          "name": "_nftDescriptorAddress",
          "type": "address"
        },
        {
          "internalType": "address",
          "name": "_ahyAddress",
          "type": "address"
        },
        {
          "internalType": "address",
          "name": "_linkAddress",
          "type": "address"
        },
        {
          "internalType": "address",
          "name": "_vrfCoordinatorAddress",
          "type": "address"
        },
        {
          "internalType": "bytes32",
          "name": "_keyHash",
          "type": "bytes32"
        },
        {
          "internalType": "uint256",
          "name": "_chainLinkFee",
          "type": "uint256"
        }
      ],
      "stateMutability": "nonpayable",
      "type": "constructor"
    },
    {
      "anonymous": false,
      "inputs": [
        {
          "indexed": true,
          "internalType": "address",
          "name": "owner",
          "type": "address"
        },
        {
          "indexed": true,
          "internalType": "address",
          "name": "approved",
          "type": "address"
        },
        {
          "indexed": true,
          "internalType": "uint256",
          "name": "tokenId",
          "type": "uint256"
        }
      ],
      "name": "Approval",
      "type": "event"
    },
    {
      "anonymous": false,
      "inputs": [
        {
          "indexed": true,
          "internalType": "address",
          "name": "owner",
          "type": "address"
        },
        {
          "indexed": true,
          "internalType": "address",
          "name": "operator",
          "type": "address"
        },
        {
          "indexed": false,
          "internalType": "bool",
          "name": "approved",
          "type": "bool"
        }
      ],
      "name": "ApprovalForAll",
      "type": "event"
    },
    {
      "anonymous": false,
      "inputs": [
        {
          "indexed": true,
          "internalType": "uint256",
          "name": "yachtId",
          "type": "uint256"
        },
        {
          "indexed": true,
          "internalType": "string",
          "name": "name",
          "type": "string"
        }
      ],
      "name": "NameChanged",
      "type": "event"
    },
    {
      "anonymous": false,
      "inputs": [
        {
          "indexed": true,
          "internalType": "address",
          "name": "previousOwner",
          "type": "address"
        },
        {
          "indexed": true,
          "internalType": "address",
          "name": "newOwner",
          "type": "address"
        }
      ],
      "name": "OwnershipTransferred",
      "type": "event"
    },
    {
      "anonymous": false,
      "inputs": [
        {
          "indexed": false,
          "internalType": "uint256",
          "name": "randomSeed",
          "type": "uint256"
        }
      ],
      "name": "SetRandomSeed",
      "type": "event"
    },
    {
      "anonymous": false,
      "inputs": [
        {
          "indexed": true,
          "internalType": "address",
          "name": "from",
          "type": "address"
        },
        {
          "indexed": true,
          "internalType": "address",
          "name": "to",
          "type": "address"
        },
        {
          "indexed": true,
          "internalType": "uint256",
          "name": "tokenId",
          "type": "uint256"
        }
      ],
      "name": "Transfer",
      "type": "event"
    },
    {
      "inputs": [],
      "name": "MAX_SUPPLY_PLUS_ONE",
      "outputs": [
        {
          "internalType": "uint256",
          "name": "",
          "type": "uint256"
        }
      ],
      "stateMutability": "view",
      "type": "function"
    },
    {
      "inputs": [
        {
          "internalType": "address",
          "name": "to",
          "type": "address"
        },
        {
          "internalType": "uint256",
          "name": "tokenId",
          "type": "uint256"
        }
      ],
      "name": "approve",
      "outputs": [],
      "stateMutability": "nonpayable",
      "type": "function"
    },
    {
      "inputs": [
        {
          "internalType": "address",
          "name": "owner",
          "type": "address"
        }
      ],
      "name": "balanceOf",
      "outputs": [
        {
          "internalType": "uint256",
          "name": "",
          "type": "uint256"
        }
      ],
      "stateMutability": "view",
      "type": "function"
    },
    {
      "inputs": [
        {
          "internalType": "uint256",
          "name": "tokenId",
          "type": "uint256"
        }
      ],
      "name": "burn",
      "outputs": [],
      "stateMutability": "nonpayable",
      "type": "function"
    },
    {
      "inputs": [
        {
          "internalType": "uint256[]",
          "name": "ogYachts",
          "type": "uint256[]"
        }
      ],
      "name": "claim",
      "outputs": [
        {
          "internalType": "uint256",
          "name": "",
          "type": "uint256"
        }
      ],
      "stateMutability": "nonpayable",
      "type": "function"
    },
    {
      "inputs": [
        {
          "internalType": "uint256[]",
          "name": "_superyachtIds",
          "type": "uint256[]"
        }
      ],
      "name": "claimAH",
      "outputs": [
        {
          "internalType": "uint256",
          "name": "",
          "type": "uint256"
        }
      ],
      "stateMutability": "nonpayable",
      "type": "function"
    },
    {
      "inputs": [
        {
          "internalType": "uint256",
          "name": "_tokenId",
          "type": "uint256"
        }
      ],
      "name": "exists",
      "outputs": [
        {
          "internalType": "bool",
          "name": "",
          "type": "bool"
        }
      ],
      "stateMutability": "view",
      "type": "function"
    },
    {
      "inputs": [],
      "name": "freeze",
      "outputs": [],
      "stateMutability": "nonpayable",
      "type": "function"
    },
    {
      "inputs": [
        {
          "internalType": "uint256",
          "name": "tokenId",
          "type": "uint256"
        }
      ],
      "name": "getApproved",
      "outputs": [
        {
          "internalType": "address",
          "name": "",
          "type": "address"
        }
      ],
      "stateMutability": "view",
      "type": "function"
    },
    {
      "inputs": [
        {
          "internalType": "address",
          "name": "owner",
          "type": "address"
        },
        {
          "internalType": "address",
          "name": "operator",
          "type": "address"
        }
      ],
      "name": "isApprovedForAll",
      "outputs": [
        {
          "internalType": "bool",
          "name": "",
          "type": "bool"
        }
      ],
      "stateMutability": "view",
      "type": "function"
    },
    {
      "inputs": [],
      "name": "name",
      "outputs": [
        {
          "internalType": "string",
          "name": "",
          "type": "string"
        }
      ],
      "stateMutability": "view",
      "type": "function"
    },
    {
      "inputs": [
        {
          "internalType": "bytes32",
          "name": "",
          "type": "bytes32"
        }
      ],
      "name": "nameTaken",
      "outputs": [
        {
          "internalType": "bool",
          "name": "",
          "type": "bool"
        }
      ],
      "stateMutability": "view",
      "type": "function"
    },
    {
      "inputs": [
        {
          "internalType": "uint256",
          "name": "",
          "type": "uint256"
        }
      ],
      "name": "names",
      "outputs": [
        {
          "internalType": "string",
          "name": "",
          "type": "string"
        }
      ],
      "stateMutability": "view",
      "type": "function"
    },
    {
      "inputs": [],
      "name": "owner",
      "outputs": [
        {
          "internalType": "address",
          "name": "",
          "type": "address"
        }
      ],
      "stateMutability": "view",
      "type": "function"
    },
    {
      "inputs": [
        {
          "internalType": "uint256",
          "name": "tokenId",
          "type": "uint256"
        }
      ],
      "name": "ownerOf",
      "outputs": [
        {
          "internalType": "address",
          "name": "",
          "type": "address"
        }
      ],
      "stateMutability": "view",
      "type": "function"
    },
    {
      "inputs": [],
      "name": "randomSeed",
      "outputs": [
        {
          "internalType": "uint256",
          "name": "",
          "type": "uint256"
        }
      ],
      "stateMutability": "view",
      "type": "function"
    },
    {
      "inputs": [
        {
          "internalType": "bytes32",
          "name": "requestId",
          "type": "bytes32"
        },
        {
          "internalType": "uint256",
          "name": "randomness",
          "type": "uint256"
        }
      ],
      "name": "rawFulfillRandomness",
      "outputs": [],
      "stateMutability": "nonpayable",
      "type": "function"
    },
    {
      "inputs": [],
      "name": "renounceOwnership",
      "outputs": [],
      "stateMutability": "nonpayable",
      "type": "function"
    },
    {
      "inputs": [],
      "name": "requestId",
      "outputs": [
        {
          "internalType": "bytes32",
          "name": "",
          "type": "bytes32"
        }
      ],
      "stateMutability": "view",
      "type": "function"
    },
    {
      "inputs": [],
      "name": "requestRandomSeed",
      "outputs": [],
      "stateMutability": "nonpayable",
      "type": "function"
    },
    {
      "inputs": [
        {
          "internalType": "address",
          "name": "from",
          "type": "address"
        },
        {
          "internalType": "address",
          "name": "to",
          "type": "address"
        },
        {
          "internalType": "uint256",
          "name": "tokenId",
          "type": "uint256"
        }
      ],
      "name": "safeTransferFrom",
      "outputs": [],
      "stateMutability": "nonpayable",
      "type": "function"
    },
    {
      "inputs": [
        {
          "internalType": "address",
          "name": "from",
          "type": "address"
        },
        {
          "internalType": "address",
          "name": "to",
          "type": "address"
        },
        {
          "internalType": "uint256",
          "name": "tokenId",
          "type": "uint256"
        },
        {
          "internalType": "bytes",
          "name": "_data",
          "type": "bytes"
        }
      ],
      "name": "safeTransferFrom",
      "outputs": [],
      "stateMutability": "nonpayable",
      "type": "function"
    },
    {
      "inputs": [
        {
          "internalType": "address",
          "name": "operator",
          "type": "address"
        },
        {
          "internalType": "bool",
          "name": "approved",
          "type": "bool"
        }
      ],
      "name": "setApprovalForAll",
      "outputs": [],
      "stateMutability": "nonpayable",
      "type": "function"
    },
    {
      "inputs": [
        {
          "internalType": "string",
          "name": "_ipfsHash",
          "type": "string"
        }
      ],
      "name": "setBaseUrl",
      "outputs": [],
      "stateMutability": "nonpayable",
      "type": "function"
    },
    {
      "inputs": [
        {
          "internalType": "uint256",
          "name": "_yachtId",
          "type": "uint256"
        },
        {
          "internalType": "string",
          "name": "_yachtName",
          "type": "string"
        },
        {
          "internalType": "uint256",
          "name": "_ogYachtToBurn",
          "type": "uint256"
        }
      ],
      "name": "setName",
      "outputs": [],
      "stateMutability": "nonpayable",
      "type": "function"
    },
    {
      "inputs": [
        {
          "internalType": "bytes4",
          "name": "interfaceId",
          "type": "bytes4"
        }
      ],
      "name": "supportsInterface",
      "outputs": [
        {
          "internalType": "bool",
          "name": "",
          "type": "bool"
        }
      ],
      "stateMutability": "view",
      "type": "function"
    },
    {
      "inputs": [],
      "name": "symbol",
      "outputs": [
        {
          "internalType": "string",
          "name": "",
          "type": "string"
        }
      ],
      "stateMutability": "view",
      "type": "function"
    },
    {
      "inputs": [
        {
          "internalType": "uint256",
          "name": "_tokenId",
          "type": "uint256"
        }
      ],
      "name": "tokenURI",
      "outputs": [
        {
          "internalType": "string",
          "name": "",
          "type": "string"
        }
      ],
      "stateMutability": "view",
      "type": "function"
    },
    {
      "inputs": [
        {
          "internalType": "address",
          "name": "from",
          "type": "address"
        },
        {
          "internalType": "address",
          "name": "to",
          "type": "address"
        },
        {
          "internalType": "uint256",
          "name": "tokenId",
          "type": "uint256"
        }
      ],
      "name": "transferFrom",
      "outputs": [],
      "stateMutability": "nonpayable",
      "type": "function"
    },
    {
      "inputs": [
        {
          "internalType": "address",
          "name": "newOwner",
          "type": "address"
        }
      ],
      "name": "transferOwnership",
      "outputs": [],
      "stateMutability": "nonpayable",
      "type": "function"
    },
    {
      "inputs": [
        {
          "internalType": "address",
          "name": "_nftDescriptorAddress",
          "type": "address"
        }
      ],
      "name": "updateNftDescriptor",
      "outputs": [],
      "stateMutability": "nonpayable",
      "type": "function"
    },
    {
      "inputs": [],
      "name": "withdraw",
      "outputs": [],
      "stateMutability": "nonpayable",
      "type": "function"
    }
  ],
  "transactionHash": "0xbc842b3d124e8c0a87ada91902337f6468358abb80fc94e4ca64eabfa43bba8e",
  "args": [
    1640286000,
    "0x488eDE56863D9730F8D9781b30818b6B0E262ec9",
    "0x24d0cbD0D5D7b50212251c5dc7cb810E7aF71F6a",
    "0x514910771AF9Ca656af840dff83E8264EcF986CA",
    "0xf0d54349aDdcf704F77AE15b96510dEA15cb7952",
    "0xAA77729D3466CA35AE8D28B3BBAC7CC36A5031EFDC430821C02BC31A238AF445",
    "2000000000000000000"
  ],
  "solcInputHash": "034033bbc1fd8f088065a87100585f0a",
  "bytecode": "0x6101206040523480156200001257600080fd5b506040516200552d3803806200552d83398181016040528101906200003891906200044a565b82846040518060400160405280601781526020017f41706520486172626f75722053757065727961636874730000000000000000008152506040518060400160405280600481526020017f41485359000000000000000000000000000000000000000000000000000000008152508160009080519060200190620000be92919062000355565b508060019080519060200190620000d792919062000355565b505050620000fa620000ee6200028760201b60201c565b6200028f60201b60201c565b8173ffffffffffffffffffffffffffffffffffffffff1660a08173ffffffffffffffffffffffffffffffffffffffff1660601b815250508073ffffffffffffffffffffffffffffffffffffffff1660808173ffffffffffffffffffffffffffffffffffffffff1660601b8152505050508473ffffffffffffffffffffffffffffffffffffffff1660c08173ffffffffffffffffffffffffffffffffffffffff1660601b815250508660e0818152505062278d0087620001ba9190620004f7565b610100818152505085600a60006101000a81548173ffffffffffffffffffffffffffffffffffffffff021916908373ffffffffffffffffffffffffffffffffffffffff16021790555081600e8190555080600f819055506000600c60006101000a81548160ff0219169083151502179055506040518060400160405280600e81526020017f697066733a2f2f3c484153483e2f000000000000000000000000000000000000815250600b90805190602001906200027992919062000355565b50505050505050506200067e565b600033905090565b6000600660009054906101000a900473ffffffffffffffffffffffffffffffffffffffff16905081600660006101000a81548173ffffffffffffffffffffffffffffffffffffffff021916908373ffffffffffffffffffffffffffffffffffffffff1602179055508173ffffffffffffffffffffffffffffffffffffffff168173ffffffffffffffffffffffffffffffffffffffff167f8be0079c531659141344cd1fd0a4f28419497f9722a3daafe3b4186f6b6457e060405160405180910390a35050565b82805462000363906200059c565b90600052602060002090601f016020900481019282620003875760008555620003d3565b82601f10620003a257805160ff1916838001178555620003d3565b82800160010185558215620003d3579182015b82811115620003d2578251825591602001919060010190620003b5565b5b509050620003e29190620003e6565b5090565b5b8082111562000401576000816000905550600101620003e7565b5090565b600081519050620004168162000630565b92915050565b6000815190506200042d816200064a565b92915050565b600081519050620004448162000664565b92915050565b600080600080600080600060e0888a0312156200046657600080fd5b6000620004768a828b0162000433565b9750506020620004898a828b0162000405565b96505060406200049c8a828b0162000405565b9550506060620004af8a828b0162000405565b9450506080620004c28a828b0162000405565b93505060a0620004d58a828b016200041c565b92505060c0620004e88a828b0162000433565b91505092959891949750929550565b6000620005048262000592565b9150620005118362000592565b9250827fffffffffffffffffffffffffffffffffffffffffffffffffffffffffffffffff03821115620005495762000548620005d2565b5b828201905092915050565b6000620005618262000572565b9050919050565b6000819050919050565b600073ffffffffffffffffffffffffffffffffffffffff82169050919050565b6000819050919050565b60006002820490506001821680620005b557607f821691505b60208210811415620005cc57620005cb62000601565b5b50919050565b7f4e487b7100000000000000000000000000000000000000000000000000000000600052601160045260246000fd5b7f4e487b7100000000000000000000000000000000000000000000000000000000600052602260045260246000fd5b6200063b8162000554565b81146200064757600080fd5b50565b620006558162000568565b81146200066157600080fd5b50565b6200066f8162000592565b81146200067b57600080fd5b50565b60805160601c60a05160601c60c05160601c60e05161010051614e45620006e860003960008181610d4101526113a901526000610cdf015260008181610e4f0152611c7201526000818161118501526128ef01526000818161186f01526128b30152614e456000f3fe608060405234801561001057600080fd5b50600436106101ef5760003560e01c806370a082311161010f578063bc89e28a116100a2578063e1da26c611610071578063e1da26c6146105a2578063e985e9c5146105ac578063f2fde38b146105dc578063fb50cf90146105f8576101ef565b8063bc89e28a1461050a578063c7c3268b1461053a578063c87b56dd14610556578063e17ec3bc14610586576101ef565b806394985ddd116100de57806394985ddd1461049857806395d89b41146104b4578063a22cb465146104d2578063b88d4fde146104ee576101ef565b806370a0823114610422578063715018a61461045257806382d5b2491461045c5780638da5cb5b1461047a576101ef565b806342842e0e1161018757806362a5af3b1161015657806362a5af3b146103885780636352211e146103925780636ba4c138146103c25780636e935422146103f2576101ef565b806342842e0e146102f057806342966c681461030c5780634622ab03146103285780634f558e7914610358576101ef565b8063095ea7b3116101c3578063095ea7b3146102905780630b747d91146102ac57806323b872dd146102ca5780633ccfd60b146102e6576101ef565b80626d6cae146101f457806301ffc9a71461021257806306fdde0314610242578063081812fc14610260575b600080fd5b6101fc610614565b6040516102099190613e27565b60405180910390f35b61022c600480360381019061022791906134be565b61061a565b6040516102399190613e0c565b60405180910390f35b61024a6106fc565b6040516102579190613eb0565b60405180910390f35b61027a60048036038101906102759190613592565b61078e565b6040516102879190613d30565b60405180910390f35b6102aa60048036038101906102a591906133b3565b610813565b005b6102b461092b565b6040516102c19190614252565b60405180910390f35b6102e460048036038101906102df91906132ad565b610931565b005b6102ee610991565b005b61030a600480360381019061030591906132ad565b610a62565b005b61032660048036038101906103219190613592565b610a82565b005b610342600480360381019061033d9190613592565b610ade565b60405161034f9190613eb0565b60405180910390f35b610372600480360381019061036d9190613592565b610b7e565b60405161037f9190613e0c565b60405180910390f35b610390610b90565b005b6103ac60048036038101906103a79190613592565b610c29565b6040516103b99190613d30565b60405180910390f35b6103dc60048036038101906103d791906133ef565b610cdb565b6040516103e99190614252565b60405180910390f35b61040c60048036038101906104079190613459565b610ff3565b6040516104199190613e0c565b60405180910390f35b61043c6004803603810190610437919061321f565b611013565b6040516104499190614252565b60405180910390f35b61045a6110cb565b005b610464611153565b6040516104719190614252565b60405180910390f35b610482611159565b60405161048f9190613d30565b60405180910390f35b6104b260048036038101906104ad9190613482565b611183565b005b6104bc61121f565b6040516104c99190613eb0565b60405180910390f35b6104ec60048036038101906104e79190613377565b6112b1565b005b610508600480360381019061050391906132fc565b6112c7565b005b610524600480360381019061051f91906133ef565b611329565b6040516105319190614252565b60405180910390f35b610554600480360381019061054f9190613510565b611505565b005b610570600480360381019061056b9190613592565b61160a565b60405161057d9190613eb0565b60405180910390f35b6105a0600480360381019061059b919061321f565b6116de565b005b6105aa6117ee565b005b6105c660048036038101906105c19190613271565b6119b2565b6040516105d39190613e0c565b60405180910390f35b6105f660048036038101906105f1919061321f565b611a46565b005b610612600480360381019061060d91906135e4565b611b3e565b005b60105481565b60007f80ac58cd000000000000000000000000000000000000000000000000000000007bffffffffffffffffffffffffffffffffffffffffffffffffffffffff1916827bffffffffffffffffffffffffffffffffffffffffffffffffffffffff191614806106e557507f5b5e139f000000000000000000000000000000000000000000000000000000007bffffffffffffffffffffffffffffffffffffffffffffffffffffffff1916827bffffffffffffffffffffffffffffffffffffffffffffffffffffffff1916145b806106f557506106f482611da5565b5b9050919050565b60606000805461070b90614559565b80601f016020809104026020016040519081016040528092919081815260200182805461073790614559565b80156107845780601f1061075957610100808354040283529160200191610784565b820191906000526020600020905b81548152906001019060200180831161076757829003601f168201915b5050505050905090565b600061079982611e0f565b6107d8576040517f08c379a00000000000000000000000000000000000000000000000000000000081526004016107cf90614112565b60405180910390fd5b6004600083815260200190815260200160002060009054906101000a900473ffffffffffffffffffffffffffffffffffffffff169050919050565b600061081e82610c29565b90508073ffffffffffffffffffffffffffffffffffffffff168373ffffffffffffffffffffffffffffffffffffffff16141561088f576040517f08c379a0000000000000000000000000000000000000000000000000000000008152600401610886906141b2565b60405180910390fd5b8073ffffffffffffffffffffffffffffffffffffffff166108ae611e7b565b73ffffffffffffffffffffffffffffffffffffffff1614806108dd57506108dc816108d7611e7b565b6119b2565b5b61091c576040517f08c379a000000000000000000000000000000000000000000000000000000000815260040161091390614092565b60405180910390fd5b6109268383611e83565b505050565b600d5481565b61094261093c611e7b565b82611f3c565b610981576040517f08c379a0000000000000000000000000000000000000000000000000000000008152600401610978906141f2565b60405180910390fd5b61098c83838361201a565b505050565b610999611e7b565b73ffffffffffffffffffffffffffffffffffffffff166109b7611159565b73ffffffffffffffffffffffffffffffffffffffff1614610a0d576040517f08c379a0000000000000000000000000000000000000000000000000000000008152600401610a0490614152565b60405180910390fd5b600047905060003390508073ffffffffffffffffffffffffffffffffffffffff166108fc839081150290604051600060405180830381858888f19350505050158015610a5d573d6000803e3d6000fd5b505050565b610a7d838383604051806020016040528060008152506112c7565b505050565b610a93610a8d611e7b565b82611f3c565b610ad2576040517f08c379a0000000000000000000000000000000000000000000000000000000008152600401610ac990614232565b60405180910390fd5b610adb81612276565b50565b60086020528060005260406000206000915090508054610afd90614559565b80601f0160208091040260200160405190810160405280929190818152602001828054610b2990614559565b8015610b765780601f10610b4b57610100808354040283529160200191610b76565b820191906000526020600020905b815481529060010190602001808311610b5957829003601f168201915b505050505081565b6000610b8982611e0f565b9050919050565b610b98611e7b565b73ffffffffffffffffffffffffffffffffffffffff16610bb6611159565b73ffffffffffffffffffffffffffffffffffffffff1614610c0c576040517f08c379a0000000000000000000000000000000000000000000000000000000008152600401610c0390614152565b60405180910390fd5b6001600c60006101000a81548160ff021916908315150217905550565b6000806002600084815260200190815260200160002060009054906101000a900473ffffffffffffffffffffffffffffffffffffffff169050600073ffffffffffffffffffffffffffffffffffffffff168173ffffffffffffffffffffffffffffffffffffffff161415610cd2576040517f08c379a0000000000000000000000000000000000000000000000000000000008152600401610cc9906140d2565b60405180910390fd5b80915050919050565b60007f00000000000000000000000000000000000000000000000000000000000000004211610d3f576040517f08c379a0000000000000000000000000000000000000000000000000000000008152600401610d3690614212565b60405180910390fd5b7f00000000000000000000000000000000000000000000000000000000000000004210610da1576040517f08c379a0000000000000000000000000000000000000000000000000000000008152600401610d9890614132565b60405180910390fd5b60005b8251811015610fe957610df6838281518110610de9577f4e487b7100000000000000000000000000000000000000000000000000000000600052603260045260246000fd5b6020026020010151611e0f565b15610e36576040517f08c379a0000000000000000000000000000000000000000000000000000000008152600401610e2d906141d2565b60405180910390fd5b3373ffffffffffffffffffffffffffffffffffffffff167f000000000000000000000000000000000000000000000000000000000000000073ffffffffffffffffffffffffffffffffffffffff16636352211e858481518110610ec2577f4e487b7100000000000000000000000000000000000000000000000000000000600052603260045260246000fd5b60200260200101516040518263ffffffff1660e01b8152600401610ee69190614252565b60206040518083038186803b158015610efe57600080fd5b505afa158015610f12573d6000803e3d6000fd5b505050506040513d601f19601f82011682018060405250810190610f369190613248565b73ffffffffffffffffffffffffffffffffffffffff1614610f8c576040517f08c379a0000000000000000000000000000000000000000000000000000000008152600401610f8390613f72565b60405180910390fd5b610fd633848381518110610fc9577f4e487b7100000000000000000000000000000000000000000000000000000000600052603260045260246000fd5b6020026020010151612387565b8080610fe1906145bc565b915050610da4565b5081519050919050565b60096020528060005260406000206000915054906101000a900460ff1681565b60008073ffffffffffffffffffffffffffffffffffffffff168273ffffffffffffffffffffffffffffffffffffffff161415611084576040517f08c379a000000000000000000000000000000000000000000000000000000000815260040161107b906140b2565b60405180910390fd5b600360008373ffffffffffffffffffffffffffffffffffffffff1673ffffffffffffffffffffffffffffffffffffffff168152602001908152602001600020549050919050565b6110d3611e7b565b73ffffffffffffffffffffffffffffffffffffffff166110f1611159565b73ffffffffffffffffffffffffffffffffffffffff1614611147576040517f08c379a000000000000000000000000000000000000000000000000000000000815260040161113e90614152565b60405180910390fd5b6111516000612555565b565b611e6281565b6000600660009054906101000a900473ffffffffffffffffffffffffffffffffffffffff16905090565b7f000000000000000000000000000000000000000000000000000000000000000073ffffffffffffffffffffffffffffffffffffffff163373ffffffffffffffffffffffffffffffffffffffff1614611211576040517f08c379a000000000000000000000000000000000000000000000000000000000815260040161120890614192565b60405180910390fd5b61121b828261261b565b5050565b60606001805461122e90614559565b80601f016020809104026020016040519081016040528092919081815260200182805461125a90614559565b80156112a75780601f1061127c576101008083540402835291602001916112a7565b820191906000526020600020905b81548152906001019060200180831161128a57829003601f168201915b5050505050905090565b6112c36112bc611e7b565b83836126e6565b5050565b6112d86112d2611e7b565b83611f3c565b611317576040517f08c379a000000000000000000000000000000000000000000000000000000000815260040161130e906141f2565b60405180910390fd5b61132384848484612853565b50505050565b6000611333611e7b565b73ffffffffffffffffffffffffffffffffffffffff16611351611159565b73ffffffffffffffffffffffffffffffffffffffff16146113a7576040517f08c379a000000000000000000000000000000000000000000000000000000000815260040161139e90614152565b60405180910390fd5b7f00000000000000000000000000000000000000000000000000000000000000004211611409576040517f08c379a000000000000000000000000000000000000000000000000000000000815260040161140090613f12565b60405180910390fd5b60005b82518110156114fb5761145e838281518110611451577f4e487b7100000000000000000000000000000000000000000000000000000000600052603260045260246000fd5b6020026020010151611e0f565b1561149e576040517f08c379a0000000000000000000000000000000000000000000000000000000008152600401611495906141d2565b60405180910390fd5b6114e8338483815181106114db577f4e487b7100000000000000000000000000000000000000000000000000000000600052603260045260246000fd5b6020026020010151612387565b80806114f3906145bc565b91505061140c565b5081519050919050565b61150d611e7b565b73ffffffffffffffffffffffffffffffffffffffff1661152b611159565b73ffffffffffffffffffffffffffffffffffffffff1614611581576040517f08c379a000000000000000000000000000000000000000000000000000000000815260040161157890614152565b60405180910390fd5b600c60009054906101000a900460ff16156115d1576040517f08c379a00000000000000000000000000000000000000000000000000000000081526004016115c890613ff2565b60405180910390fd5b806040516020016115e29190613cee565b604051602081830303815290604052600b9080519060200190611606929190612ef1565b5050565b6060600a60009054906101000a900473ffffffffffffffffffffffffffffffffffffffff1673ffffffffffffffffffffffffffffffffffffffff166387024e558360086000868152602001908152602001600020600d54600b6040518563ffffffff1660e01b8152600401611682949392919061426d565b60006040518083038186803b15801561169a57600080fd5b505afa1580156116ae573d6000803e3d6000fd5b505050506040513d6000823e3d601f19601f820116820180604052508101906116d79190613551565b9050919050565b6116e6611e7b565b73ffffffffffffffffffffffffffffffffffffffff16611704611159565b73ffffffffffffffffffffffffffffffffffffffff161461175a576040517f08c379a000000000000000000000000000000000000000000000000000000000815260040161175190614152565b60405180910390fd5b600c60009054906101000a900460ff16156117aa576040517f08c379a00000000000000000000000000000000000000000000000000000000081526004016117a190613ff2565b60405180910390fd5b80600a60006101000a81548173ffffffffffffffffffffffffffffffffffffffff021916908373ffffffffffffffffffffffffffffffffffffffff16021790555050565b6117f6611e7b565b73ffffffffffffffffffffffffffffffffffffffff16611814611159565b73ffffffffffffffffffffffffffffffffffffffff161461186a576040517f08c379a000000000000000000000000000000000000000000000000000000000815260040161186190614152565b60405180910390fd5b600f547f000000000000000000000000000000000000000000000000000000000000000073ffffffffffffffffffffffffffffffffffffffff166370a08231306040518263ffffffff1660e01b81526004016118c69190613d30565b60206040518083038186803b1580156118de57600080fd5b505afa1580156118f2573d6000803e3d6000fd5b505050506040513d601f19601f8201168201806040525081019061191691906135bb565b1015611957576040517f08c379a000000000000000000000000000000000000000000000000000000000815260040161194e90614052565b60405180910390fd5b6000600d541461199c576040517f08c379a000000000000000000000000000000000000000000000000000000000815260040161199390613ed2565b60405180910390fd5b6119aa600e54600f546128af565b601081905550565b6000600560008473ffffffffffffffffffffffffffffffffffffffff1673ffffffffffffffffffffffffffffffffffffffff16815260200190815260200160002060008373ffffffffffffffffffffffffffffffffffffffff1673ffffffffffffffffffffffffffffffffffffffff16815260200190815260200160002060009054906101000a900460ff16905092915050565b611a4e611e7b565b73ffffffffffffffffffffffffffffffffffffffff16611a6c611159565b73ffffffffffffffffffffffffffffffffffffffff1614611ac2576040517f08c379a0000000000000000000000000000000000000000000000000000000008152600401611ab990614152565b60405180910390fd5b600073ffffffffffffffffffffffffffffffffffffffff168173ffffffffffffffffffffffffffffffffffffffff161415611b32576040517f08c379a0000000000000000000000000000000000000000000000000000000008152600401611b2990613fb2565b60405180910390fd5b611b3b81612555565b50565b6000611b4983612a11565b604051602001611b599190613cc0565b604051602081830303815290604052805190602001209050604051602001611b8090613d1b565b6040516020818303038152906040528051906020012060086000868152602001908152602001600020604051602001611bb99190613cd7565b6040516020818303038152906040528051906020012014611c0f576040517f08c379a0000000000000000000000000000000000000000000000000000000008152600401611c0690613f32565b60405180910390fd5b6009600082815260200190815260200160002060009054906101000a900460ff1615611c70576040517f08c379a0000000000000000000000000000000000000000000000000000000008152600401611c6790613ef2565b60405180910390fd5b7f000000000000000000000000000000000000000000000000000000000000000073ffffffffffffffffffffffffffffffffffffffff166342842e0e611cb4611e7b565b61dead856040518463ffffffff1660e01b8152600401611cd693929190613d4b565b600060405180830381600087803b158015611cf057600080fd5b505af1158015611d04573d6000803e3d6000fd5b5050505060016009600083815260200190815260200160002060006101000a81548160ff02191690831515021790555082600860008681526020019081526020016000209080519060200190611d5b929190612ef1565b5082604051611d6a9190613cc0565b6040518091039020847f8edfa912e70e283a8ef6d6f52cd1faef9690ff989eff2f11a134e8478ba7b28b60405160405180910390a350505050565b60007f01ffc9a7000000000000000000000000000000000000000000000000000000007bffffffffffffffffffffffffffffffffffffffffffffffffffffffff1916827bffffffffffffffffffffffffffffffffffffffffffffffffffffffff1916149050919050565b60008073ffffffffffffffffffffffffffffffffffffffff166002600084815260200190815260200160002060009054906101000a900473ffffffffffffffffffffffffffffffffffffffff1673ffffffffffffffffffffffffffffffffffffffff1614159050919050565b600033905090565b816004600083815260200190815260200160002060006101000a81548173ffffffffffffffffffffffffffffffffffffffff021916908373ffffffffffffffffffffffffffffffffffffffff160217905550808273ffffffffffffffffffffffffffffffffffffffff16611ef683610c29565b73ffffffffffffffffffffffffffffffffffffffff167f8c5be1e5ebec7d5bd14f71427d1e84f3dd0314c0f7b2291e5b200ac8c7c3b92560405160405180910390a45050565b6000611f4782611e0f565b611f86576040517f08c379a0000000000000000000000000000000000000000000000000000000008152600401611f7d90614072565b60405180910390fd5b6000611f9183610c29565b90508073ffffffffffffffffffffffffffffffffffffffff168473ffffffffffffffffffffffffffffffffffffffff16148061200057508373ffffffffffffffffffffffffffffffffffffffff16611fe88461078e565b73ffffffffffffffffffffffffffffffffffffffff16145b80612011575061201081856119b2565b5b91505092915050565b8273ffffffffffffffffffffffffffffffffffffffff1661203a82610c29565b73ffffffffffffffffffffffffffffffffffffffff1614612090576040517f08c379a000000000000000000000000000000000000000000000000000000000815260040161208790614172565b60405180910390fd5b600073ffffffffffffffffffffffffffffffffffffffff168273ffffffffffffffffffffffffffffffffffffffff161415612100576040517f08c379a00000000000000000000000000000000000000000000000000000000081526004016120f790614012565b60405180910390fd5b61210b838383612cd3565b612116600082611e83565b6001600360008573ffffffffffffffffffffffffffffffffffffffff1673ffffffffffffffffffffffffffffffffffffffff16815260200190815260200160002060008282546121669190614458565b925050819055506001600360008473ffffffffffffffffffffffffffffffffffffffff1673ffffffffffffffffffffffffffffffffffffffff16815260200190815260200160002060008282546121bd91906143cb565b92505081905550816002600083815260200190815260200160002060006101000a81548173ffffffffffffffffffffffffffffffffffffffff021916908373ffffffffffffffffffffffffffffffffffffffff160217905550808273ffffffffffffffffffffffffffffffffffffffff168473ffffffffffffffffffffffffffffffffffffffff167fddf252ad1be2c89b69c2b068fc378daa952ba7f163c4a11628f55a4df523b3ef60405160405180910390a4505050565b600061228182610c29565b905061228f81600084612cd3565b61229a600083611e83565b6001600360008373ffffffffffffffffffffffffffffffffffffffff1673ffffffffffffffffffffffffffffffffffffffff16815260200190815260200160002060008282546122ea9190614458565b925050819055506002600083815260200190815260200160002060006101000a81549073ffffffffffffffffffffffffffffffffffffffff021916905581600073ffffffffffffffffffffffffffffffffffffffff168273ffffffffffffffffffffffffffffffffffffffff167fddf252ad1be2c89b69c2b068fc378daa952ba7f163c4a11628f55a4df523b3ef60405160405180910390a45050565b600073ffffffffffffffffffffffffffffffffffffffff168273ffffffffffffffffffffffffffffffffffffffff1614156123f7576040517f08c379a00000000000000000000000000000000000000000000000000000000081526004016123ee906140f2565b60405180910390fd5b61240081611e0f565b15612440576040517f08c379a000000000000000000000000000000000000000000000000000000000815260040161243790613fd2565b60405180910390fd5b61244c60008383612cd3565b6001600360008473ffffffffffffffffffffffffffffffffffffffff1673ffffffffffffffffffffffffffffffffffffffff168152602001908152602001600020600082825461249c91906143cb565b92505081905550816002600083815260200190815260200160002060006101000a81548173ffffffffffffffffffffffffffffffffffffffff021916908373ffffffffffffffffffffffffffffffffffffffff160217905550808273ffffffffffffffffffffffffffffffffffffffff16600073ffffffffffffffffffffffffffffffffffffffff167fddf252ad1be2c89b69c2b068fc378daa952ba7f163c4a11628f55a4df523b3ef60405160405180910390a45050565b6000600660009054906101000a900473ffffffffffffffffffffffffffffffffffffffff16905081600660006101000a81548173ffffffffffffffffffffffffffffffffffffffff021916908373ffffffffffffffffffffffffffffffffffffffff1602179055508173ffffffffffffffffffffffffffffffffffffffff168173ffffffffffffffffffffffffffffffffffffffff167f8be0079c531659141344cd1fd0a4f28419497f9722a3daafe3b4186f6b6457e060405160405180910390a35050565b816010541461265f576040517f08c379a000000000000000000000000000000000000000000000000000000000815260040161265690613f52565b60405180910390fd5b6000600d54146126a4576040517f08c379a000000000000000000000000000000000000000000000000000000000815260040161269b90613ed2565b60405180910390fd5b80600d819055507fc8fd64377c5acb2eaaceb9dcd55447ba53987a5e3ec2e7026c3d8cfed582a92d816040516126da9190614252565b60405180910390a15050565b8173ffffffffffffffffffffffffffffffffffffffff168373ffffffffffffffffffffffffffffffffffffffff161415612755576040517f08c379a000000000000000000000000000000000000000000000000000000000815260040161274c90614032565b60405180910390fd5b80600560008573ffffffffffffffffffffffffffffffffffffffff1673ffffffffffffffffffffffffffffffffffffffff16815260200190815260200160002060008473ffffffffffffffffffffffffffffffffffffffff1673ffffffffffffffffffffffffffffffffffffffff16815260200190815260200160002060006101000a81548160ff0219169083151502179055508173ffffffffffffffffffffffffffffffffffffffff168373ffffffffffffffffffffffffffffffffffffffff167f17307eab39ab6107e8899845ad3d59bd9653f200f220920489ca2b5937696c31836040516128469190613e0c565b60405180910390a3505050565b61285e84848461201a565b61286a84848484612cd8565b6128a9576040517f08c379a00000000000000000000000000000000000000000000000000000000081526004016128a090613f92565b60405180910390fd5b50505050565b60007f000000000000000000000000000000000000000000000000000000000000000073ffffffffffffffffffffffffffffffffffffffff16634000aea07f000000000000000000000000000000000000000000000000000000000000000084866000604051602001612923929190613e42565b6040516020818303038152906040526040518463ffffffff1660e01b815260040161295093929190613dce565b602060405180830381600087803b15801561296a57600080fd5b505af115801561297e573d6000803e3d6000fd5b505050506040513d601f19601f820116820180604052508101906129a29190613430565b5060006129c5846000306007600089815260200190815260200160002054612e6f565b9050600160076000868152602001908152602001600020546129e791906143cb565b6007600086815260200190815260200160002081905550612a088482612eab565b91505092915050565b606060008290506000815167ffffffffffffffff811115612a5b577f4e487b7100000000000000000000000000000000000000000000000000000000600052604160045260246000fd5b6040519080825280601f01601f191660200182016040528015612a8d5781602001600182028036833780820191505090505b50905060005b8251811015612cc8576041838281518110612ad7577f4e487b7100000000000000000000000000000000000000000000000000000000600052603260045260246000fd5b602001015160f81c60f81b60f81c60ff1610158015612b405750605a838281518110612b2c577f4e487b7100000000000000000000000000000000000000000000000000000000600052603260045260246000fd5b602001015160f81c60f81b60f81c60ff1611155b15612c08576020838281518110612b80577f4e487b7100000000000000000000000000000000000000000000000000000000600052603260045260246000fd5b602001015160f81c60f81b60f81c612b989190614421565b60f81b828281518110612bd4577f4e487b7100000000000000000000000000000000000000000000000000000000600052603260045260246000fd5b60200101907effffffffffffffffffffffffffffffffffffffffffffffffffffffffffffff1916908160001a905350612cb5565b828181518110612c41577f4e487b7100000000000000000000000000000000000000000000000000000000600052603260045260246000fd5b602001015160f81c60f81b828281518110612c85577f4e487b7100000000000000000000000000000000000000000000000000000000600052603260045260246000fd5b60200101907effffffffffffffffffffffffffffffffffffffffffffffffffffffffffffff1916908160001a9053505b8080612cc0906145bc565b915050612a93565b508092505050919050565b505050565b6000612cf98473ffffffffffffffffffffffffffffffffffffffff16612ede565b15612e62578373ffffffffffffffffffffffffffffffffffffffff1663150b7a02612d22611e7b565b8786866040518563ffffffff1660e01b8152600401612d449493929190613d82565b602060405180830381600087803b158015612d5e57600080fd5b505af1925050508015612d8f57506040513d601f19601f82011682018060405250810190612d8c91906134e7565b60015b612e12573d8060008114612dbf576040519150601f19603f3d011682016040523d82523d6000602084013e612dc4565b606091505b50600081511415612e0a576040517f08c379a0000000000000000000000000000000000000000000000000000000008152600401612e0190613f92565b60405180910390fd5b805181602001fd5b63150b7a0260e01b7bffffffffffffffffffffffffffffffffffffffffffffffffffffffff1916817bffffffffffffffffffffffffffffffffffffffffffffffffffffffff191614915050612e67565b600190505b949350505050565b600084848484604051602001612e889493929190613e6b565b6040516020818303038152906040528051906020012060001c9050949350505050565b60008282604051602001612ec0929190613c94565b60405160208183030381529060405280519060200120905092915050565b600080823b905060008111915050919050565b828054612efd90614559565b90600052602060002090601f016020900481019282612f1f5760008555612f66565b82601f10612f3857805160ff1916838001178555612f66565b82800160010185558215612f66579182015b82811115612f65578251825591602001919060010190612f4a565b5b509050612f739190612f77565b5090565b5b80821115612f90576000816000905550600101612f78565b5090565b6000612fa7612fa2846142e5565b6142c0565b90508083825260208201905082856020860282011115612fc657600080fd5b60005b85811015612ff65781612fdc88826131f5565b845260208401935060208301925050600181019050612fc9565b5050509392505050565b600061301361300e84614311565b6142c0565b90508281526020810184848401111561302b57600080fd5b613036848285614517565b509392505050565b600061305161304c84614342565b6142c0565b90508281526020810184848401111561306957600080fd5b613074848285614517565b509392505050565b600061308f61308a84614342565b6142c0565b9050828152602081018484840111156130a757600080fd5b6130b2848285614526565b509392505050565b6000813590506130c981614d9c565b92915050565b6000815190506130de81614d9c565b92915050565b600082601f8301126130f557600080fd5b8135613105848260208601612f94565b91505092915050565b60008135905061311d81614db3565b92915050565b60008151905061313281614db3565b92915050565b60008135905061314781614dca565b92915050565b60008135905061315c81614de1565b92915050565b60008151905061317181614de1565b92915050565b600082601f83011261318857600080fd5b8135613198848260208601613000565b91505092915050565b600082601f8301126131b257600080fd5b81356131c284826020860161303e565b91505092915050565b600082601f8301126131dc57600080fd5b81516131ec84826020860161307c565b91505092915050565b60008135905061320481614df8565b92915050565b60008151905061321981614df8565b92915050565b60006020828403121561323157600080fd5b600061323f848285016130ba565b91505092915050565b60006020828403121561325a57600080fd5b6000613268848285016130cf565b91505092915050565b6000806040838503121561328457600080fd5b6000613292858286016130ba565b92505060206132a3858286016130ba565b9150509250929050565b6000806000606084860312156132c257600080fd5b60006132d0868287016130ba565b93505060206132e1868287016130ba565b92505060406132f2868287016131f5565b9150509250925092565b6000806000806080858703121561331257600080fd5b6000613320878288016130ba565b9450506020613331878288016130ba565b9350506040613342878288016131f5565b925050606085013567ffffffffffffffff81111561335f57600080fd5b61336b87828801613177565b91505092959194509250565b6000806040838503121561338a57600080fd5b6000613398858286016130ba565b92505060206133a98582860161310e565b9150509250929050565b600080604083850312156133c657600080fd5b60006133d4858286016130ba565b92505060206133e5858286016131f5565b9150509250929050565b60006020828403121561340157600080fd5b600082013567ffffffffffffffff81111561341b57600080fd5b613427848285016130e4565b91505092915050565b60006020828403121561344257600080fd5b600061345084828501613123565b91505092915050565b60006020828403121561346b57600080fd5b600061347984828501613138565b91505092915050565b6000806040838503121561349557600080fd5b60006134a385828601613138565b92505060206134b4858286016131f5565b9150509250929050565b6000602082840312156134d057600080fd5b60006134de8482850161314d565b91505092915050565b6000602082840312156134f957600080fd5b600061350784828501613162565b91505092915050565b60006020828403121561352257600080fd5b600082013567ffffffffffffffff81111561353c57600080fd5b613548848285016131a1565b91505092915050565b60006020828403121561356357600080fd5b600082015167ffffffffffffffff81111561357d57600080fd5b613589848285016131cb565b91505092915050565b6000602082840312156135a457600080fd5b60006135b2848285016131f5565b91505092915050565b6000602082840312156135cd57600080fd5b60006135db8482850161320a565b91505092915050565b6000806000606084860312156135f957600080fd5b6000613607868287016131f5565b935050602084013567ffffffffffffffff81111561362457600080fd5b613630868287016131a1565b9250506040613641868287016131f5565b9150509250925092565b6136548161448c565b82525050565b6136638161449e565b82525050565b613672816144aa565b82525050565b613689613684826144aa565b614605565b82525050565b600061369a82614388565b6136a4818561439e565b93506136b4818560208601614526565b6136bd816146a6565b840191505092915050565b60006136d382614393565b6136dd81856143af565b93506136ed818560208601614526565b6136f6816146a6565b840191505092915050565b600061370c82614393565b61371681856143c0565b9350613726818560208601614526565b80840191505092915050565b6000815461373f81614559565b61374981866143af565b945060018216600081146137645760018114613776576137a9565b60ff19831686526020860193506137a9565b61377f85614373565b60005b838110156137a157815481890152600182019150602081019050613782565b808801955050505b50505092915050565b600081546137bf81614559565b6137c981866143c0565b945060018216600081146137e457600181146137f557613828565b60ff19831686528186019350613828565b6137fe85614373565b60005b8381101561382057815481890152600182019150602081019050613801565b838801955050505b50505092915050565b600061383e601f836143af565b9150613849826146b7565b602082019050919050565b60006138616012836143af565b915061386c826146e0565b602082019050919050565b6000613884601e836143af565b915061388f82614709565b602082019050919050565b60006138a7601c836143af565b91506138b282614732565b602082019050919050565b60006138ca6010836143af565b91506138d58261475b565b602082019050919050565b60006138ed6016836143af565b91506138f882614784565b602082019050919050565b60006139106032836143af565b915061391b826147ad565b604082019050919050565b60006139336026836143af565b915061393e826147fc565b604082019050919050565b6000613956601c836143af565b91506139618261484b565b602082019050919050565b60006139796024836143af565b915061398482614874565b604082019050919050565b600061399c6024836143af565b91506139a7826148c3565b604082019050919050565b60006139bf6019836143af565b91506139ca82614912565b602082019050919050565b60006139e2602b836143af565b91506139ed8261493b565b604082019050919050565b6000613a05602c836143af565b9150613a108261498a565b604082019050919050565b6000613a286007836143c0565b9150613a33826149d9565b600782019050919050565b6000613a4b6038836143af565b9150613a5682614a02565b604082019050919050565b6000613a6e602a836143af565b9150613a7982614a51565b604082019050919050565b6000613a916029836143af565b9150613a9c82614aa0565b604082019050919050565b6000613ab46020836143af565b9150613abf82614aef565b602082019050919050565b6000613ad7602c836143af565b9150613ae282614b18565b604082019050919050565b6000613afa6012836143af565b9150613b0582614b67565b602082019050919050565b6000613b1d6020836143af565b9150613b2882614b90565b602082019050919050565b6000613b406029836143af565b9150613b4b82614bb9565b604082019050919050565b6000613b63601f836143af565b9150613b6e82614c08565b602082019050919050565b6000613b866021836143af565b9150613b9182614c31565b604082019050919050565b6000613ba9601e836143af565b9150613bb482614c80565b602082019050919050565b6000613bcc6000836143c0565b9150613bd782614ca9565b600082019050919050565b6000613bef6031836143af565b9150613bfa82614cac565b604082019050919050565b6000613c126017836143af565b9150613c1d82614cfb565b602082019050919050565b6000613c356030836143af565b9150613c4082614d24565b604082019050919050565b6000613c586001836143c0565b9150613c6382614d73565b600182019050919050565b613c7781614500565b82525050565b613c8e613c8982614500565b61460f565b82525050565b6000613ca08285613678565b602082019150613cb08284613c7d565b6020820191508190509392505050565b6000613ccc8284613701565b915081905092915050565b6000613ce382846137b2565b915081905092915050565b6000613cf982613a1b565b9150613d058284613701565b9150613d1082613c4b565b915081905092915050565b6000613d2682613bbf565b9150819050919050565b6000602082019050613d45600083018461364b565b92915050565b6000606082019050613d60600083018661364b565b613d6d602083018561364b565b613d7a6040830184613c6e565b949350505050565b6000608082019050613d97600083018761364b565b613da4602083018661364b565b613db16040830185613c6e565b8181036060830152613dc3818461368f565b905095945050505050565b6000606082019050613de3600083018661364b565b613df06020830185613c6e565b8181036040830152613e02818461368f565b9050949350505050565b6000602082019050613e21600083018461365a565b92915050565b6000602082019050613e3c6000830184613669565b92915050565b6000604082019050613e576000830185613669565b613e646020830184613c6e565b9392505050565b6000608082019050613e806000830187613669565b613e8d6020830186613c6e565b613e9a604083018561364b565b613ea76060830184613c6e565b95945050505050565b60006020820190508181036000830152613eca81846136c8565b905092915050565b60006020820190508181036000830152613eeb81613831565b9050919050565b60006020820190508181036000830152613f0b81613854565b9050919050565b60006020820190508181036000830152613f2b81613877565b9050919050565b60006020820190508181036000830152613f4b8161389a565b9050919050565b60006020820190508181036000830152613f6b816138bd565b9050919050565b60006020820190508181036000830152613f8b816138e0565b9050919050565b60006020820190508181036000830152613fab81613903565b9050919050565b60006020820190508181036000830152613fcb81613926565b9050919050565b60006020820190508181036000830152613feb81613949565b9050919050565b6000602082019050818103600083015261400b8161396c565b9050919050565b6000602082019050818103600083015261402b8161398f565b9050919050565b6000602082019050818103600083015261404b816139b2565b9050919050565b6000602082019050818103600083015261406b816139d5565b9050919050565b6000602082019050818103600083015261408b816139f8565b9050919050565b600060208201905081810360008301526140ab81613a3e565b9050919050565b600060208201905081810360008301526140cb81613a61565b9050919050565b600060208201905081810360008301526140eb81613a84565b9050919050565b6000602082019050818103600083015261410b81613aa7565b9050919050565b6000602082019050818103600083015261412b81613aca565b9050919050565b6000602082019050818103600083015261414b81613aed565b9050919050565b6000602082019050818103600083015261416b81613b10565b9050919050565b6000602082019050818103600083015261418b81613b33565b9050919050565b600060208201905081810360008301526141ab81613b56565b9050919050565b600060208201905081810360008301526141cb81613b79565b9050919050565b600060208201905081810360008301526141eb81613b9c565b9050919050565b6000602082019050818103600083015261420b81613be2565b9050919050565b6000602082019050818103600083015261422b81613c05565b9050919050565b6000602082019050818103600083015261424b81613c28565b9050919050565b60006020820190506142676000830184613c6e565b92915050565b60006080820190506142826000830187613c6e565b81810360208301526142948186613732565b90506142a36040830185613c6e565b81810360608301526142b58184613732565b905095945050505050565b60006142ca6142db565b90506142d6828261458b565b919050565b6000604051905090565b600067ffffffffffffffff821115614300576142ff614677565b5b602082029050602081019050919050565b600067ffffffffffffffff82111561432c5761432b614677565b5b614335826146a6565b9050602081019050919050565b600067ffffffffffffffff82111561435d5761435c614677565b5b614366826146a6565b9050602081019050919050565b60008190508160005260206000209050919050565b600081519050919050565b600081519050919050565b600082825260208201905092915050565b600082825260208201905092915050565b600081905092915050565b60006143d682614500565b91506143e183614500565b9250827fffffffffffffffffffffffffffffffffffffffffffffffffffffffffffffffff0382111561441657614415614619565b5b828201905092915050565b600061442c8261450a565b91506144378361450a565b92508260ff0382111561444d5761444c614619565b5b828201905092915050565b600061446382614500565b915061446e83614500565b92508282101561448157614480614619565b5b828203905092915050565b6000614497826144e0565b9050919050565b60008115159050919050565b6000819050919050565b60007fffffffff0000000000000000000000000000000000000000000000000000000082169050919050565b600073ffffffffffffffffffffffffffffffffffffffff82169050919050565b6000819050919050565b600060ff82169050919050565b82818337600083830152505050565b60005b83811015614544578082015181840152602081019050614529565b83811115614553576000848401525b50505050565b6000600282049050600182168061457157607f821691505b6020821081141561458557614584614648565b5b50919050565b614594826146a6565b810181811067ffffffffffffffff821117156145b3576145b2614677565b5b80604052505050565b60006145c782614500565b91507fffffffffffffffffffffffffffffffffffffffffffffffffffffffffffffffff8214156145fa576145f9614619565b5b600182019050919050565b6000819050919050565b6000819050919050565b7f4e487b7100000000000000000000000000000000000000000000000000000000600052601160045260246000fd5b7f4e487b7100000000000000000000000000000000000000000000000000000000600052602260045260246000fd5b7f4e487b7100000000000000000000000000000000000000000000000000000000600052604160045260246000fd5b6000601f19601f8301169050919050565b7f72616e646f6d536565642068617320616c7265616479206265656e2073657400600082015250565b7f4e616d6520616c72656164792074616b656e0000000000000000000000000000600082015250565b7f4e6f7420696e20706f737420636c61696d696e67207068617365207965740000600082015250565b7f59616368742068617320616c7265616479206265656e206e616d656400000000600082015250565b7f57726f6e67207265717565737420496400000000000000000000000000000000600082015250565b7f596f7520646f206e6f74206f776e206120796163687400000000000000000000600082015250565b7f4552433732313a207472616e7366657220746f206e6f6e20455243373231526560008201527f63656976657220696d706c656d656e7465720000000000000000000000000000602082015250565b7f4f776e61626c653a206e6577206f776e657220697320746865207a65726f206160008201527f6464726573730000000000000000000000000000000000000000000000000000602082015250565b7f4552433732313a20746f6b656e20616c7265616479206d696e74656400000000600082015250565b7f436f6e74726163742066726f7a656e2c206e6f206368616e67657320706f737360008201527f69626c6500000000000000000000000000000000000000000000000000000000602082015250565b7f4552433732313a207472616e7366657220746f20746865207a65726f2061646460008201527f7265737300000000000000000000000000000000000000000000000000000000602082015250565b7f4552433732313a20617070726f766520746f2063616c6c657200000000000000600082015250565b7f4e6f7420656e6f756768204c494e4b202d2066696c6c20636f6e74726163742060008201527f7769746820666175636574000000000000000000000000000000000000000000602082015250565b7f4552433732313a206f70657261746f7220717565727920666f72206e6f6e657860008201527f697374656e7420746f6b656e0000000000000000000000000000000000000000602082015250565b7f697066733a2f2f00000000000000000000000000000000000000000000000000600082015250565b7f4552433732313a20617070726f76652063616c6c6572206973206e6f74206f7760008201527f6e6572206e6f7220617070726f76656420666f7220616c6c0000000000000000602082015250565b7f4552433732313a2062616c616e636520717565727920666f7220746865207a6560008201527f726f206164647265737300000000000000000000000000000000000000000000602082015250565b7f4552433732313a206f776e657220717565727920666f72206e6f6e657869737460008201527f656e7420746f6b656e0000000000000000000000000000000000000000000000602082015250565b7f4552433732313a206d696e7420746f20746865207a65726f2061646472657373600082015250565b7f4552433732313a20617070726f76656420717565727920666f72206e6f6e657860008201527f697374656e7420746f6b656e0000000000000000000000000000000000000000602082015250565b7f436c61696d696e672068617320656e6465640000000000000000000000000000600082015250565b7f4f776e61626c653a2063616c6c6572206973206e6f7420746865206f776e6572600082015250565b7f4552433732313a207472616e73666572206f6620746f6b656e2074686174206960008201527f73206e6f74206f776e0000000000000000000000000000000000000000000000602082015250565b7f4f6e6c7920565246436f6f7264696e61746f722063616e2066756c66696c6c00600082015250565b7f4552433732313a20617070726f76616c20746f2063757272656e74206f776e6560008201527f7200000000000000000000000000000000000000000000000000000000000000602082015250565b7f596163687420686173206265656e20636c61696d656420616c72656164790000600082015250565b50565b7f4552433732313a207472616e736665722063616c6c6572206973206e6f74206f60008201527f776e6572206e6f7220617070726f766564000000000000000000000000000000602082015250565b7f436c61696d696e67206861736e27742073746172746564000000000000000000600082015250565b7f4552433732314275726e61626c653a2063616c6c6572206973206e6f74206f7760008201527f6e6572206e6f7220617070726f76656400000000000000000000000000000000602082015250565b7f2f00000000000000000000000000000000000000000000000000000000000000600082015250565b614da58161448c565b8114614db057600080fd5b50565b614dbc8161449e565b8114614dc757600080fd5b50565b614dd3816144aa565b8114614dde57600080fd5b50565b614dea816144b4565b8114614df557600080fd5b50565b614e0181614500565b8114614e0c57600080fd5b5056fea26469706673582212201ae529f9fce4d761025a33499a48c22dda3feeeba651c10db5d49780122f052a64736f6c63430008040033",
  "devdoc": {
    "kind": "dev",
    "methods": {
      "approve(address,uint256)": {
        "details": "See {IERC721-approve}."
      },
      "balanceOf(address)": {
        "details": "See {IERC721-balanceOf}."
      },
      "burn(uint256)": {
        "details": "Burns `tokenId`. See {ERC721-_burn}. Requirements: - The caller must own `tokenId` or be an approved operator."
      },
      "getApproved(uint256)": {
        "details": "See {IERC721-getApproved}."
      },
      "isApprovedForAll(address,address)": {
        "details": "See {IERC721-isApprovedForAll}."
      },
      "name()": {
        "details": "See {IERC721Metadata-name}."
      },
      "owner()": {
        "details": "Returns the address of the current owner."
      },
      "ownerOf(uint256)": {
        "details": "See {IERC721-ownerOf}."
      },
      "renounceOwnership()": {
        "details": "Leaves the contract without owner. It will not be possible to call `onlyOwner` functions anymore. Can only be called by the current owner. NOTE: Renouncing ownership will leave the contract without an owner, thereby removing any functionality that is only available to the owner."
      },
      "safeTransferFrom(address,address,uint256)": {
        "details": "See {IERC721-safeTransferFrom}."
      },
      "safeTransferFrom(address,address,uint256,bytes)": {
        "details": "See {IERC721-safeTransferFrom}."
      },
      "setApprovalForAll(address,bool)": {
        "details": "See {IERC721-setApprovalForAll}."
      },
      "supportsInterface(bytes4)": {
        "details": "See {IERC165-supportsInterface}."
      },
      "symbol()": {
        "details": "See {IERC721Metadata-symbol}."
      },
      "transferFrom(address,address,uint256)": {
        "details": "See {IERC721-transferFrom}."
      },
      "transferOwnership(address)": {
        "details": "Transfers ownership of the contract to a new account (`newOwner`). Can only be called by the current owner."
      }
    },
    "version": 1
  },
  "userdoc": {
    "kind": "user",
    "methods": {},
    "version": 1
  },
  "storageLayout": {
    "storage": [
      {
        "astId": 396,
        "contract": "contracts/SuperyachtToken.sol:SuperyachtToken",
        "label": "_name",
        "offset": 0,
        "slot": "0",
        "type": "t_string_storage"
      },
      {
        "astId": 398,
        "contract": "contracts/SuperyachtToken.sol:SuperyachtToken",
        "label": "_symbol",
        "offset": 0,
        "slot": "1",
        "type": "t_string_storage"
      },
      {
        "astId": 402,
        "contract": "contracts/SuperyachtToken.sol:SuperyachtToken",
        "label": "_owners",
        "offset": 0,
        "slot": "2",
        "type": "t_mapping(t_uint256,t_address)"
      },
      {
        "astId": 406,
        "contract": "contracts/SuperyachtToken.sol:SuperyachtToken",
        "label": "_balances",
        "offset": 0,
        "slot": "3",
        "type": "t_mapping(t_address,t_uint256)"
      },
      {
        "astId": 410,
        "contract": "contracts/SuperyachtToken.sol:SuperyachtToken",
        "label": "_tokenApprovals",
        "offset": 0,
        "slot": "4",
        "type": "t_mapping(t_uint256,t_address)"
      },
      {
        "astId": 416,
        "contract": "contracts/SuperyachtToken.sol:SuperyachtToken",
        "label": "_operatorApprovals",
        "offset": 0,
        "slot": "5",
        "type": "t_mapping(t_address,t_mapping(t_address,t_bool))"
      },
      {
        "astId": 273,
        "contract": "contracts/SuperyachtToken.sol:SuperyachtToken",
        "label": "_owner",
        "offset": 0,
        "slot": "6",
        "type": "t_address"
      },
      {
        "astId": 79,
        "contract": "contracts/SuperyachtToken.sol:SuperyachtToken",
        "label": "nonces",
        "offset": 0,
        "slot": "7",
        "type": "t_mapping(t_bytes32,t_uint256)"
      },
      {
        "astId": 4944,
        "contract": "contracts/SuperyachtToken.sol:SuperyachtToken",
        "label": "names",
        "offset": 0,
        "slot": "8",
        "type": "t_mapping(t_uint256,t_string_storage)"
      },
      {
        "astId": 4948,
        "contract": "contracts/SuperyachtToken.sol:SuperyachtToken",
        "label": "nameTaken",
        "offset": 0,
        "slot": "9",
        "type": "t_mapping(t_bytes32,t_bool)"
      },
      {
        "astId": 4954,
        "contract": "contracts/SuperyachtToken.sol:SuperyachtToken",
        "label": "nftDescriptor",
        "offset": 0,
        "slot": "10",
        "type": "t_contract(NftDescriptor)4909"
      },
      {
        "astId": 4960,
        "contract": "contracts/SuperyachtToken.sol:SuperyachtToken",
        "label": "baseUrl",
        "offset": 0,
        "slot": "11",
        "type": "t_string_storage"
      },
      {
        "astId": 4962,
        "contract": "contracts/SuperyachtToken.sol:SuperyachtToken",
        "label": "frozen",
        "offset": 0,
        "slot": "12",
        "type": "t_bool"
      },
      {
        "astId": 4964,
        "contract": "contracts/SuperyachtToken.sol:SuperyachtToken",
        "label": "randomSeed",
        "offset": 0,
        "slot": "13",
        "type": "t_uint256"
      },
      {
        "astId": 4966,
        "contract": "contracts/SuperyachtToken.sol:SuperyachtToken",
        "label": "keyHash",
        "offset": 0,
        "slot": "14",
        "type": "t_bytes32"
      },
      {
        "astId": 4968,
        "contract": "contracts/SuperyachtToken.sol:SuperyachtToken",
        "label": "chainLinkFee",
        "offset": 0,
        "slot": "15",
        "type": "t_uint256"
      },
      {
        "astId": 4970,
        "contract": "contracts/SuperyachtToken.sol:SuperyachtToken",
        "label": "requestId",
        "offset": 0,
        "slot": "16",
        "type": "t_bytes32"
      }
    ],
    "types": {
      "t_address": {
        "encoding": "inplace",
        "label": "address",
        "numberOfBytes": "20"
      },
      "t_bool": {
        "encoding": "inplace",
        "label": "bool",
        "numberOfBytes": "1"
      },
      "t_bytes32": {
        "encoding": "inplace",
        "label": "bytes32",
        "numberOfBytes": "32"
      },
      "t_contract(NftDescriptor)4909": {
        "encoding": "inplace",
        "label": "contract NftDescriptor",
        "numberOfBytes": "20"
      },
      "t_mapping(t_address,t_bool)": {
        "encoding": "mapping",
        "key": "t_address",
        "label": "mapping(address => bool)",
        "numberOfBytes": "32",
        "value": "t_bool"
      },
      "t_mapping(t_address,t_mapping(t_address,t_bool))": {
        "encoding": "mapping",
        "key": "t_address",
        "label": "mapping(address => mapping(address => bool))",
        "numberOfBytes": "32",
        "value": "t_mapping(t_address,t_bool)"
      },
      "t_mapping(t_address,t_uint256)": {
        "encoding": "mapping",
        "key": "t_address",
        "label": "mapping(address => uint256)",
        "numberOfBytes": "32",
        "value": "t_uint256"
      },
      "t_mapping(t_bytes32,t_bool)": {
        "encoding": "mapping",
        "key": "t_bytes32",
        "label": "mapping(bytes32 => bool)",
        "numberOfBytes": "32",
        "value": "t_bool"
      },
      "t_mapping(t_bytes32,t_uint256)": {
        "encoding": "mapping",
        "key": "t_bytes32",
        "label": "mapping(bytes32 => uint256)",
        "numberOfBytes": "32",
        "value": "t_uint256"
      },
      "t_mapping(t_uint256,t_address)": {
        "encoding": "mapping",
        "key": "t_uint256",
        "label": "mapping(uint256 => address)",
        "numberOfBytes": "32",
        "value": "t_address"
      },
      "t_mapping(t_uint256,t_string_storage)": {
        "encoding": "mapping",
        "key": "t_uint256",
        "label": "mapping(uint256 => string)",
        "numberOfBytes": "32",
        "value": "t_string_storage"
      },
      "t_string_storage": {
        "encoding": "bytes",
        "label": "string",
        "numberOfBytes": "32"
      },
      "t_uint256": {
        "encoding": "inplace",
        "label": "uint256",
        "numberOfBytes": "32"
      }
    }
  }
}