{
  "address": "0x05CbaA098f6b39f87Ba240F30F01675322B84BEA",
  "abi": [
    {
      "inputs": [],
      "stateMutability": "nonpayable",
      "type": "constructor"
    },
    {
      "inputs": [
        {
          "internalType": "uint16[9]",
          "name": "_initialSelection",
          "type": "uint16[9]"
        }
      ],
      "name": "applyRules",
      "outputs": [
        {
          "internalType": "uint16[9]",
          "name": "",
          "type": "uint16[9]"
        }
      ],
      "stateMutability": "pure",
      "type": "function"
    },
    {
      "inputs": [
        {
          "internalType": "uint256",
          "name": "_seed",
          "type": "uint256"
        },
        {
          "internalType": "uint256",
          "name": "_id",
          "type": "uint256"
        }
      ],
      "name": "decodeTokenId",
      "outputs": [
        {
          "internalType": "uint256[9]",
          "name": "",
          "type": "uint256[9]"
        }
      ],
      "stateMutability": "pure",
      "type": "function"
    },
    {
      "inputs": [
        {
          "internalType": "uint256[9]",
          "name": "traits",
          "type": "uint256[9]"
        }
      ],
      "name": "generateInitialBoatString",
      "outputs": [
        {
          "internalType": "uint16[9]",
          "name": "",
          "type": "uint16[9]"
        }
      ],
      "stateMutability": "view",
      "type": "function"
    },
    {
      "inputs": [
        {
          "internalType": "uint256",
          "name": "_tokenId",
          "type": "uint256"
        },
        {
          "internalType": "string",
          "name": "_name",
          "type": "string"
        },
        {
          "internalType": "uint256",
          "name": "_seed",
          "type": "uint256"
        },
        {
          "internalType": "string",
          "name": "_baseUrl",
          "type": "string"
        }
      ],
      "name": "tokenURI",
      "outputs": [
        {
          "internalType": "string",
          "name": "",
          "type": "string"
        }
      ],
      "stateMutability": "view",
      "type": "function"
    }
  ],
  "transactionHash": "0xc296b1b90780ae2f990f3b5d92a3300807a3eb49dea4523e5da56c621a77d2b4",
  "args": [],
  "solcInputHash": "f05a89bbd122a12d1e1b084967af75ff",
  "bytecode": "0x60806040523480156200001157600080fd5b506040518061012001604052806040518060400160405280600a81526020017f4261636b67726f756e640000000000000000000000000000000000000000000081525081526020016040518060400160405280600481526020017f547970650000000000000000000000000000000000000000000000000000000081525081526020016040518060400160405280600681526020017f416e63686f72000000000000000000000000000000000000000000000000000081525081526020016040518060400160405280600481526020017f48756c6c0000000000000000000000000000000000000000000000000000000081525081526020016040518060400160405280600681526020017f4c6967687473000000000000000000000000000000000000000000000000000081525081526020016040518060400160405280600981526020017f45717569706d656e74000000000000000000000000000000000000000000000081525081526020016040518060400160405280600581526020017f436162696e00000000000000000000000000000000000000000000000000000081525081526020016040518060400160405280600981526020017f45717569706d656e74000000000000000000000000000000000000000000000081525081526020016040518060400160405280600981526020017f45717569706d656e7400000000000000000000000000000000000000000000008152508152506000906009620002419291906200a43e565b50604051806101a001604052806040518060400160405280601381526020017f45766572676c6164657320417065205061726b0000000000000000000000000081525081526020016040518060400160405280600a81526020017f4170652049736c616e640000000000000000000000000000000000000000000081525081526020016040518060400160405280601181526020017f41706520486172626f757220436f61737400000000000000000000000000000081525081526020016040518060400160405280600d81526020017f536b796c696e6520436f6173740000000000000000000000000000000000000081525081526020016040518060400160405280600d81526020017f4d616769632049736c616e64730000000000000000000000000000000000000081525081526020016040518060400160405280600a81526020017f4d7973746963205365610000000000000000000000000000000000000000000081525081526020016040518060400160405280600a81526020017f4f72616e6720526565660000000000000000000000000000000000000000000081525081526020016040518060400160405280600d81526020017f576174657266616c6c204261790000000000000000000000000000000000000081525081526020016040518060400160405280600881526020017f4170656c61736b6100000000000000000000000000000000000000000000000081525081526020016040518060400160405280600c81526020017f5477696c6967687420426179000000000000000000000000000000000000000081525081526020016040518060400160405280600b81526020017f4d6f6e6b657920506f727400000000000000000000000000000000000000000081525081526020016040518060400160405280600f81526020017f4c6567656e64617279204f6365616e000000000000000000000000000000000081525081526020016040518060400160405280600c81526020017f50697261746520436f6173740000000000000000000000000000000000000000815250815250600960006003811062000587577f4e487b7100000000000000000000000000000000000000000000000000000000600052603260045260246000fd5b60090201600060098110620005c5577f4e487b7100000000000000000000000000000000000000000000000000000000600052603260045260246000fd5b0190600d620005d69291906200a498565b5060405180606001604052806040518060400160405280600681526020017f547970652031000000000000000000000000000000000000000000000000000081525081526020016040518060400160405280600681526020017f547970652032000000000000000000000000000000000000000000000000000081525081526020016040518060400160405280600681526020017f54797065203300000000000000000000000000000000000000000000000000008152508152506009600060038110620006cd577f4e487b7100000000000000000000000000000000000000000000000000000000600052603260045260246000fd5b600902016001600981106200070b577f4e487b7100000000000000000000000000000000000000000000000000000000600052603260045260246000fd5b019060036200071c9291906200a4ff565b506040518061016001604052806040518060400160405280600b81526020017f507572706c65204d6f6f6e00000000000000000000000000000000000000000081525081526020016040518060400160405280600981526020017f4c6f6e6720476f6c64000000000000000000000000000000000000000000000081525081526020016040518060400160405280600881526020017f4269672049726f6e00000000000000000000000000000000000000000000000081525081526020016040518060400160405280600b81526020017f53696c76657220486f6f6b00000000000000000000000000000000000000000081525081526020016040518060400160405280600d81526020017f42726f6e7a65204b72616b656e0000000000000000000000000000000000000081525081526020016040518060400160405280600b81526020017f507572706c6520476f6c6400000000000000000000000000000000000000000081525081526020016040518060400160405280600881526020017f4f6c64204d6f6f6e00000000000000000000000000000000000000000000000081525081526020016040518060400160405280600a81526020017f4c6f6e6720537465656c0000000000000000000000000000000000000000000081525081526020016040518060400160405280600881526020017f42696720476f6c6400000000000000000000000000000000000000000000000081525081526020016040518060400160405280600881526020017f47656d20486f6f6b00000000000000000000000000000000000000000000000081525081526020016040518060400160405280600d81526020017f507572706c65204b72616b656e000000000000000000000000000000000000008152508152506009600060038110620009ec577f4e487b7100000000000000000000000000000000000000000000000000000000600052603260045260246000fd5b6009020160026009811062000a2a577f4e487b7100000000000000000000000000000000000000000000000000000000600052603260045260246000fd5b0190600b62000a3b9291906200a566565b5060405180610b4001604052806040518060400160405280600881526020017f526f74746e65737400000000000000000000000000000000000000000000000081525081526020016040518060400160405280600e81526020017f54726f627269616e64204e656f6e00000000000000000000000000000000000081525081526020016040518060400160405280600d81526020017f4e6f726d616e6279204e656f6e0000000000000000000000000000000000000081525081526020016040518060400160405280600b81526020017f536176616969204e656f6e00000000000000000000000000000000000000000081525081526020016040518060400160405280600c81526020017f4669747a726f79204e656f6e000000000000000000000000000000000000000081525081526020016040518060400160405280600a81526020017f4272756e79204e656f6e0000000000000000000000000000000000000000000081525081526020016040518060400160405280600781526020017f426f72616361790000000000000000000000000000000000000000000000000081525081526020016040518060400160405280600481526020017f4d6175690000000000000000000000000000000000000000000000000000000081525081526020016040518060400160405280600781526020017f536f6c6f6d6f6e0000000000000000000000000000000000000000000000000081525081526020016040518060400160405280600481526020017f417065730000000000000000000000000000000000000000000000000000000081525081526020016040518060400160405280600681526020017f506972617465000000000000000000000000000000000000000000000000000081525081526020016040518060400160405280600981526020017f4d6175726974697573000000000000000000000000000000000000000000000081525081526020016040518060400160405280600681526020017f467261736572000000000000000000000000000000000000000000000000000081525081526020016040518060400160405280600581526020017f50616c617500000000000000000000000000000000000000000000000000000081525081526020016040518060400160405280600781526020017f4669747a726f790000000000000000000000000000000000000000000000000081525081526020016040518060400160405280600681526020017f536176616969000000000000000000000000000000000000000000000000000081525081526020016040518060400160405280600681526020017f566f61766168000000000000000000000000000000000000000000000000000081525081526020016040518060400160405280600981526020017f4b6f682053616d7569000000000000000000000000000000000000000000000081525081526020016040518060400160405280600781526020017f426564617272610000000000000000000000000000000000000000000000000081525081526020016040518060400160405280600681526020017f596173617761000000000000000000000000000000000000000000000000000081525081526020016040518060400160405280600881526020017f53697175696a6f7200000000000000000000000000000000000000000000000081525081526020016040518060400160405280600581526020017f4661726f6500000000000000000000000000000000000000000000000000000081525081526020016040518060400160405280600581526020017f486169646100000000000000000000000000000000000000000000000000000081525081526020016040518060400160405280600681526020017f4d69736f6f6c000000000000000000000000000000000000000000000000000081525081526020016040518060400160405280600381526020017f496f73000000000000000000000000000000000000000000000000000000000081525081526020016040518060400160405280600a81526020017f466f726d656e746572610000000000000000000000000000000000000000000081525081526020016040518060400160405280600881526020017f5072696e6369706500000000000000000000000000000000000000000000000081525081526020016040518060400160405280600481526020017f476f6c640000000000000000000000000000000000000000000000000000000081525081526020016040518060400160405280600781526020017f4d6164656972610000000000000000000000000000000000000000000000000081525081526020016040518060400160405280600b81526020017f4b6f682059616f204e6f6900000000000000000000000000000000000000000081525081526020016040518060400160405280600681526020017f5468616e6461000000000000000000000000000000000000000000000000000081525081526020016040518060400160405280600881526020017f4e6f726d616e627900000000000000000000000000000000000000000000000081525081526020016040518060400160405280600881526020017f4d61676e6574696300000000000000000000000000000000000000000000000081525081526020016040518060400160405280600581526020017f426177616800000000000000000000000000000000000000000000000000000081525081526020016040518060400160405280600b81526020017f536f6e657661204a616e6900000000000000000000000000000000000000000081525081526020016040518060400160405280600781526020017f4f7270686575730000000000000000000000000000000000000000000000000081525081526020016040518060400160405280600b81526020017f4b756e66756e6164686f6f00000000000000000000000000000000000000000081525081526020016040518060400160405280600981526020017f426f726120426f7261000000000000000000000000000000000000000000000081525081526020016040518060400160405280600781526020017f5261796d6f6e640000000000000000000000000000000000000000000000000081525081526020016040518060400160405280600981526020017f50616d616c6963616e000000000000000000000000000000000000000000000081525081526020016040518060400160405280600a81526020017f4e6968692053756d62610000000000000000000000000000000000000000000081525081526020016040518060400160405280600881526020017f4e61766172696e6f00000000000000000000000000000000000000000000000081525081526020016040518060400160405280600b81526020017f506972617465204e656f6e00000000000000000000000000000000000000000081525081526020016040518060400160405280600981526020017f41706573204e656f6e000000000000000000000000000000000000000000000081525081526020016040518060400160405280600c81526020017f426f7261636179204e656f6e000000000000000000000000000000000000000081525081526020016040518060400160405280600b81526020017f4368696c6f65204e656f6e00000000000000000000000000000000000000000081525081526020016040518060400160405280600d81526020017f4e61766172696e6f204e656f6e0000000000000000000000000000000000000081525081526020016040518060400160405280600981526020017f476f6c64204e656f6e000000000000000000000000000000000000000000000081525081526020016040518060400160405280600d81526020017f5072696e63697065204e656f6e0000000000000000000000000000000000000081525081526020016040518060400160405280601081526020017f48616767657273746f6e65204e656f6e0000000000000000000000000000000081525081526020016040518060400160405280600c81526020017f4d616465697261204e656f6e000000000000000000000000000000000000000081525081526020016040518060400160405280600e81526020017f4d6167617275717565204e656f6e00000000000000000000000000000000000081525081526020016040518060400160405280600e81526020017f50616d616c6963616e204e656f6e00000000000000000000000000000000000081525081526020016040518060400160405280600c81526020017f5261796d6f6e64204e656f6e000000000000000000000000000000000000000081525081526020016040518060400160405280600e81526020017f426f726120426f7261204e656f6e00000000000000000000000000000000000081525081526020016040518060400160405280600f81526020017f4e6968692053756d6261204e656f6e000000000000000000000000000000000081525081526020016040518060400160405280601081526020017f4b756e66756e6164686f6f204e656f6e0000000000000000000000000000000081525081526020016040518060400160405280600c81526020017f4f727068657573204e656f6e000000000000000000000000000000000000000081525081526020016040518060400160405280601081526020017f536f6e657661204a616e69204e656f6e0000000000000000000000000000000081525081526020016040518060400160405280600d81526020017f4d61676e65746963204e656f6e0000000000000000000000000000000000000081525081526020016040518060400160405280600b81526020017f5468616e6461204e656f6e00000000000000000000000000000000000000000081525081526020016040518060400160405280601081526020017f4b6f682059616f204e6f69204e656f6e0000000000000000000000000000000081525081526020016040518060400160405280600f81526020017f466f726d656e74657261204e656f6e000000000000000000000000000000000081525081526020016040518060400160405280600881526020017f496f73204e656f6e00000000000000000000000000000000000000000000000081525081526020016040518060400160405280600a81526020017f4661726f65204e656f6e0000000000000000000000000000000000000000000081525081526020016040518060400160405280600d81526020017f53697175696a6f72204e656f6e0000000000000000000000000000000000000081525081526020016040518060400160405280601181526020017f50616e676b6f72204c617574204e656f6e00000000000000000000000000000081525081526020016040518060400160405280600b81526020017f596173617761204e656f6e00000000000000000000000000000000000000000081525081526020016040518060400160405280600c81526020017f42656461727261204e656f6e000000000000000000000000000000000000000081525081526020016040518060400160405280600e81526020017f4b6f682053616d7569204e656f6e00000000000000000000000000000000000081525081526020016040518060400160405280600b81526020017f566f61766168204e656f6e00000000000000000000000000000000000000000081525081526020016040518060400160405280600a81526020017f50616c6175204e656f6e0000000000000000000000000000000000000000000081525081526020016040518060400160405280600b81526020017f467261736572204e656f6e00000000000000000000000000000000000000000081525081526020016040518060400160405280600e81526020017f4d6175726974697573204e656f6e00000000000000000000000000000000000081525081526020016040518060400160405280600a81526020017f49736c6179204e656f6e0000000000000000000000000000000000000000000081525081526020016040518060400160405280600c81526020017f536f6c6f6d6f6e204e656f6e000000000000000000000000000000000000000081525081526020016040518060400160405280600981526020017f4d617569204e656f6e000000000000000000000000000000000000000000000081525081526020016040518060400160405280600c81526020017f4d617972656175204e656f6e000000000000000000000000000000000000000081525081526020016040518060400160405280600d81526020017f526f74746e657374204e656f6e0000000000000000000000000000000000000081525081526020016040518060400160405280600a81526020017f4261776168204e656f6e0000000000000000000000000000000000000000000081525081526020016040518060400160405280600a81526020017f56656c6161204e656f6e0000000000000000000000000000000000000000000081525081526020016040518060400160405280600b81526020017f4d69736f6f6c204e656f6e00000000000000000000000000000000000000000081525081526020016040518060400160405280600a81526020017f4861696461204e656f6e0000000000000000000000000000000000000000000081525081526020016040518060400160405280600d81526020017f446f6d696e696361204e656f6e0000000000000000000000000000000000000081525081526020016040518060400160405280600681526020017f4368696c6f65000000000000000000000000000000000000000000000000000081525081526020016040518060400160405280600981526020017f4d6167617275717565000000000000000000000000000000000000000000000081525081526020016040518060400160405280600b81526020017f48616767657273746f6e6500000000000000000000000000000000000000000081525081526020016040518060400160405280600881526020017f446f6d696e69636100000000000000000000000000000000000000000000000081525081526020016040518060400160405280600c81526020017f50616e676b6f72204c617574000000000000000000000000000000000000000081525081526020016040518060400160405280600981526020017f54726f627269616e640000000000000000000000000000000000000000000000815250815250600960006003811062001f40577f4e487b7100000000000000000000000000000000000000000000000000000000600052603260045260246000fd5b6009020160036009811062001f7e577f4e487b7100000000000000000000000000000000000000000000000000000000600052603260045260246000fd5b0190605a62001f8f9291906200a5cd565b506040518061016001604052806040518060400160405280600d81526020017f576869746520537472697065730000000000000000000000000000000000000081525081526020016040518060400160405280600c81526020017f5368696e79204c6967687473000000000000000000000000000000000000000081525081526020016040518060400160405280600b81526020017f4c61736572204c6967687400000000000000000000000000000000000000000081525081526020016040518060400160405280600c81526020017f59656c6c6f772053706f7473000000000000000000000000000000000000000081525081526020016040518060400160405280600a81526020017f50696e6b2053706f74730000000000000000000000000000000000000000000081525081526020016040518060400160405280600a81526020017f426c75652053706f74730000000000000000000000000000000000000000000081525081526020016040518060400160405280600a81526020017f4261636b2053706f74730000000000000000000000000000000000000000000081525081526020016040518060400160405280600981526020017f4269672053706f7473000000000000000000000000000000000000000000000081525081526020016040518060400160405280600981526020017f426967205368696e65000000000000000000000000000000000000000000000081525081526020016040518060400160405280600b81526020017f53746172204c696768747300000000000000000000000000000000000000000081525081526020016040518060400160405280600c81526020017f426c75652053747269706573000000000000000000000000000000000000000081525081525060096000600381106200225f577f4e487b7100000000000000000000000000000000000000000000000000000000600052603260045260246000fd5b600902016004600981106200229d577f4e487b7100000000000000000000000000000000000000000000000000000000600052603260045260246000fd5b0190600b620022ae9291906200a566565b50604051806101e001604052806040518060400160405280600b81526020017f526f636b6574204261636b00000000000000000000000000000000000000000081525081526020016040518060400160405280600f81526020017f466c6167204261636b20426c61636b000000000000000000000000000000000081525081526020016040518060400160405280601581526020017f5365612048756e746572204261636b20477265656e000000000000000000000081525081526020016040518060400160405280601381526020017f5365612048756e746572204261636b205265640000000000000000000000000081525081526020016040518060400160405280600f81526020017f4f72616e676520506c6174666f726d000000000000000000000000000000000081525081526020016040518060400160405280600d81526020017f4772617920506c6174666f726d0000000000000000000000000000000000000081525081526020016040518060400160405280600981526020017f446f636b204261636b000000000000000000000000000000000000000000000081525081526020016040518060400160405280601281526020017f57696e6773205370656369616c204261636b000000000000000000000000000081525081526020016040518060400160405280600b81526020017f57696e6773204261636b2000000000000000000000000000000000000000000081525081526020016040518060400160405280600981526020017f526f7365204261636b000000000000000000000000000000000000000000000081525081526020016040518060400160405280601081526020017f4c6f6e67204f72616e6765204261636b0000000000000000000000000000000081525081526020016040518060400160405280600f81526020017f4c6f6e6720426c61636b204261636b000000000000000000000000000000000081525081526020016040518060400160405280600e81526020017f466c6167204261636b20426c756500000000000000000000000000000000000081525081526020016040518060400160405280601381526020017f416e746872616369746520506c6174666f726d0000000000000000000000000081525081526020016040518060400160405280600881526020017f526564204261636b00000000000000000000000000000000000000000000000081525081525060096000600381106200266a577f4e487b7100000000000000000000000000000000000000000000000000000000600052603260045260246000fd5b60090201600560098110620026a8577f4e487b7100000000000000000000000000000000000000000000000000000000600052603260045260246000fd5b0190600f620026b99291906200a634565b506040518061066001604052806040518060400160405280600b81526020017f416c69656e20416c70686100000000000000000000000000000000000000000081525081526020016040518060400160405280600d81526020017f41726b207769746820476f6c640000000000000000000000000000000000000081525081526020016040518060400160405280600881526020017f41726b20476f6c6400000000000000000000000000000000000000000000000081525081526020016040518060400160405280600a81526020017f41726b204f72616e67650000000000000000000000000000000000000000000081525081526020016040518060400160405280600981526020017f4d69616d6920526564000000000000000000000000000000000000000000000081525081526020016040518060400160405280600c81526020017f4d69616d69204f72616e6765000000000000000000000000000000000000000081525081526020016040518060400160405280600a81526020017f4578706c6f72657220490000000000000000000000000000000000000000000081525081526020016040518060400160405280600b81526020017f4578706c6f72657220494900000000000000000000000000000000000000000081525081526020016040518060400160405280600c81526020017f4578706c6f72657220494949000000000000000000000000000000000000000081525081526020016040518060400160405280600b81526020017f43616c69204f72616e676500000000000000000000000000000000000000000081525081526020016040518060400160405280600981526020017f43616c6920526f7365000000000000000000000000000000000000000000000081525081526020016040518060400160405280600781526020017f537465616c74680000000000000000000000000000000000000000000000000081525081526020016040518060400160405280600581526020017f566164657200000000000000000000000000000000000000000000000000000081525081526020016040518060400160405280600b81526020017f566164657220426c61636b00000000000000000000000000000000000000000081525081526020016040518060400160405280600981526020017f566164657220526564000000000000000000000000000000000000000000000081525081526020016040518060400160405280600a81526020017f437962657220477261790000000000000000000000000000000000000000000081525081526020016040518060400160405280600481526020017f4e6176790000000000000000000000000000000000000000000000000000000081525081526020016040518060400160405280600c81526020017f5379646e657920477265656e000000000000000000000000000000000000000081525081526020016040518060400160405280600a81526020017f5379646e6579205265640000000000000000000000000000000000000000000081525081526020016040518060400160405280600d81526020017f5379646e6579204f72616e67650000000000000000000000000000000000000081525081526020016040518060400160405280600881526020017f476179612052656400000000000000000000000000000000000000000000000081525081526020016040518060400160405280600a81526020017f4761796120477265656e0000000000000000000000000000000000000000000081525081526020016040518060400160405280600681526020017f467574757261000000000000000000000000000000000000000000000000000081525081526020016040518060400160405280600b81526020017f576561766572205465616c00000000000000000000000000000000000000000081525081526020016040518060400160405280600a81526020017f576561766572205265640000000000000000000000000000000000000000000081525081526020016040518060400160405280600981526020017f437962657220526564000000000000000000000000000000000000000000000081525081526020016040518060400160405280600881526020017f536861646573205a00000000000000000000000000000000000000000000000081525081526020016040518060400160405280600881526020017f536861646573205800000000000000000000000000000000000000000000000081525081526020016040518060400160405280600881526020017f536861646573205900000000000000000000000000000000000000000000000081525081526020016040518060400160405280600c81526020017f427265657a652042726f776e000000000000000000000000000000000000000081525081526020016040518060400160405280600c81526020017f427265657a6520477265656e000000000000000000000000000000000000000081525081526020016040518060400160405280600d81526020017f427265657a65204f72616e67650000000000000000000000000000000000000081525081526020016040518060400160405280600a81526020017f5669657720477265656e0000000000000000000000000000000000000000000081525081526020016040518060400160405280600b81526020017f56696577204f72616e676500000000000000000000000000000000000000000081525081526020016040518060400160405280600981526020017f5669657720526f7365000000000000000000000000000000000000000000000081525081526020016040518060400160405280600a81526020017f53706f727479205265640000000000000000000000000000000000000000000081525081526020016040518060400160405280600d81526020017f53706f7274792059656c6c6f770000000000000000000000000000000000000081525081526020016040518060400160405280600781526020017f4d6563682034310000000000000000000000000000000000000000000000000081525081526020016040518060400160405280600781526020017f4d6563682034320000000000000000000000000000000000000000000000000081525081526020016040518060400160405280600781526020017f4d6563682034330000000000000000000000000000000000000000000000000081525081526020016040518060400160405280600681526020017f4d6f6e61636f000000000000000000000000000000000000000000000000000081525081526020016040518060400160405280600c81526020017f4d6f6e61636f20426c61636b000000000000000000000000000000000000000081525081526020016040518060400160405280600581526020017f4d6163617500000000000000000000000000000000000000000000000000000081525081526020016040518060400160405280600781526020017f53656120446f670000000000000000000000000000000000000000000000000081525081526020016040518060400160405280600a81526020017f456d62657220323033320000000000000000000000000000000000000000000081525081526020016040518060400160405280600a81526020017f456d62657220323033330000000000000000000000000000000000000000000081525081526020016040518060400160405280600a81526020017f456d62657220323033340000000000000000000000000000000000000000000081525081526020016040518060400160405280600a81526020017f437962657220426c75650000000000000000000000000000000000000000000081525081526020016040518060400160405280600981526020017f41726b20477265656e000000000000000000000000000000000000000000000081525081526020016040518060400160405280600b81526020017f5072656461746f7220525300000000000000000000000000000000000000000081525081526020016040518060400160405280600b81526020017f5072656461746f722047530000000000000000000000000000000000000000008152508152506009600060038110620032c1577f4e487b7100000000000000000000000000000000000000000000000000000000600052603260045260246000fd5b60090201600660098110620032ff577f4e487b7100000000000000000000000000000000000000000000000000000000600052603260045260246000fd5b01906033620033109291906200a69b565b506040518061018001604052806040518060400160405280601081526020017f41482042616c6c6f6f6e20477265656e0000000000000000000000000000000081525081526020016040518060400160405280600e81526020017f41482042616c6c6f6f6e2052656400000000000000000000000000000000000081525081526020016040518060400160405280600c81526020017f417065732042616c6c6f6f6e000000000000000000000000000000000000000081525081526020016040518060400160405280601181526020017f4148205069726174652042616c6c6f6f6e00000000000000000000000000000081525081526020016040518060400160405280600f81526020017f42616e616e61732042616c6c6f6f6e000000000000000000000000000000000081525081526020016040518060400160405280600e81526020017f5069726174652042616c6c6f6f6e00000000000000000000000000000000000081525081526020016040518060400160405280600e81526020017f5265642048656c692046726f6e7400000000000000000000000000000000000081525081526020016040518060400160405280601081526020017f57686974652048656c692046726f6e740000000000000000000000000000000081525081526020016040518060400160405280600f81526020017f476f6c642048656c692046726f6e74000000000000000000000000000000000081525081526020016040518060400160405280600d81526020017f5265642048656c69204e656f6e0000000000000000000000000000000000000081525081526020016040518060400160405280600f81526020017f57686974652048656c69204e656f6e000000000000000000000000000000000081525081526020016040518060400160405280600e81526020017f476f6c642048656c69204e656f6e00000000000000000000000000000000000081525081525060096000600381106200361b577f4e487b7100000000000000000000000000000000000000000000000000000000600052603260045260246000fd5b6009020160076009811062003659577f4e487b7100000000000000000000000000000000000000000000000000000000600052603260045260246000fd5b0190600c6200366a9291906200a702565b506040518061012001604052806040518060400160405280601381526020017f53686f727420426c61636b205261696c696e670000000000000000000000000081525081526020016040518060400160405280601281526020017f4c6f6e67204c69676874205261696c696e67000000000000000000000000000081525081526020016040518060400160405280601181526020017f4c6f6e67204e656f6e205261696c696e6700000000000000000000000000000081525081526020016040518060400160405280601281526020017f53686f72742047726179205261696c696e67000000000000000000000000000081525081526020016040518060400160405280601181526020017f4c6f6e672047726179205261696c696e6700000000000000000000000000000081525081526020016040518060400160405280601481526020017f4c6f6e672047726179205261696c696e6720525300000000000000000000000081525081526020016040518060400160405280600c81526020017f476f6c64205261696c696e67000000000000000000000000000000000000000081525081526020016040518060400160405280601081526020017f4c6f6e6720526564205261696c696e670000000000000000000000000000000081525081526020016040518060400160405280601181526020017f4c6f6e6720426c7565205261696c696e670000000000000000000000000000008152508152506009600060038110620038c4577f4e487b7100000000000000000000000000000000000000000000000000000000600052603260045260246000fd5b6009020160086009811062003902577f4e487b7100000000000000000000000000000000000000000000000000000000600052603260045260246000fd5b01906009620039139291906200a769565b50604051806101a001604052806040518060400160405280601381526020017f45766572676c6164657320417065205061726b0000000000000000000000000081525081526020016040518060400160405280600a81526020017f4170652049736c616e640000000000000000000000000000000000000000000081525081526020016040518060400160405280601181526020017f41706520486172626f757220436f61737400000000000000000000000000000081525081526020016040518060400160405280600d81526020017f536b796c696e6520436f6173740000000000000000000000000000000000000081525081526020016040518060400160405280600d81526020017f4d616769632049736c616e64730000000000000000000000000000000000000081525081526020016040518060400160405280600a81526020017f4d7973746963205365610000000000000000000000000000000000000000000081525081526020016040518060400160405280600a81526020017f4f72616e6720526565660000000000000000000000000000000000000000000081525081526020016040518060400160405280600d81526020017f576174657266616c6c204261790000000000000000000000000000000000000081525081526020016040518060400160405280600881526020017f4170656c61736b6100000000000000000000000000000000000000000000000081525081526020016040518060400160405280600c81526020017f5477696c6967687420426179000000000000000000000000000000000000000081525081526020016040518060400160405280600b81526020017f4d6f6e6b657920506f727400000000000000000000000000000000000000000081525081526020016040518060400160405280600f81526020017f4c6567656e64617279204f6365616e000000000000000000000000000000000081525081526020016040518060400160405280600c81526020017f50697261746520436f6173740000000000000000000000000000000000000000815250815250600960016003811062003c59577f4e487b7100000000000000000000000000000000000000000000000000000000600052603260045260246000fd5b6009020160006009811062003c97577f4e487b7100000000000000000000000000000000000000000000000000000000600052603260045260246000fd5b0190600d62003ca89291906200a498565b5060405180606001604052806040518060400160405280600681526020017f547970652031000000000000000000000000000000000000000000000000000081525081526020016040518060400160405280600681526020017f547970652032000000000000000000000000000000000000000000000000000081525081526020016040518060400160405280600681526020017f5479706520330000000000000000000000000000000000000000000000000000815250815250600960016003811062003d9f577f4e487b7100000000000000000000000000000000000000000000000000000000600052603260045260246000fd5b6009020160016009811062003ddd577f4e487b7100000000000000000000000000000000000000000000000000000000600052603260045260246000fd5b0190600362003dee9291906200a4ff565b50604051806101e001604052806040518060400160405280600a81526020017f5365612048616d6d65720000000000000000000000000000000000000000000081525081526020016040518060400160405280600d81526020017f4170656d6972616c20476f6c640000000000000000000000000000000000000081525081526020016040518060400160405280600781526020017f54726964656e740000000000000000000000000000000000000000000000000081525081526020016040518060400160405280600b81526020017f52656420536b697070657200000000000000000000000000000000000000000081525081526020016040518060400160405280600481526020017f436170650000000000000000000000000000000000000000000000000000000081525081526020016040518060400160405280600981526020017f5363756c7074757265000000000000000000000000000000000000000000000081525081526020016040518060400160405280600c81526020017f437962657220416e63686f72000000000000000000000000000000000000000081525081526020016040518060400160405280600c81526020017f5761766520427265616b6572000000000000000000000000000000000000000081525081526020016040518060400160405280600a81526020017f526564205370696b65730000000000000000000000000000000000000000000081525081526020016040518060400160405280600a81526020017f4f6365616e20546563680000000000000000000000000000000000000000000081525081526020016040518060400160405280600881526020017f4372657363656e7400000000000000000000000000000000000000000000000081525081526020016040518060400160405280600981526020017f476f6c642057696e67000000000000000000000000000000000000000000000081525081526020016040518060400160405280600781526020017f49726f6e2052530000000000000000000000000000000000000000000000000081525081526020016040518060400160405280600981526020017f5465616c20526f636b000000000000000000000000000000000000000000000081525081526020016040518060400160405280600a81526020017f537465656c2053746172000000000000000000000000000000000000000000008152508152506009600160038110620041aa577f4e487b7100000000000000000000000000000000000000000000000000000000600052603260045260246000fd5b60090201600260098110620041e8577f4e487b7100000000000000000000000000000000000000000000000000000000600052603260045260246000fd5b0190600f620041f99291906200a634565b50604051806107c001604052806040518060400160405280600b81526020017f41706520486172626f757200000000000000000000000000000000000000000081525081526020016040518060400160405280600781526020017f46616e6a6f76650000000000000000000000000000000000000000000000000081525081526020016040518060400160405280600a81526020017f476f6c6420536861726b0000000000000000000000000000000000000000000081525081526020016040518060400160405280600c81526020017f4f6b696e617761204e656f6e000000000000000000000000000000000000000081525081526020016040518060400160405280600e81526020017f52617261746f6e6761204e656f6e00000000000000000000000000000000000081525081526020016040518060400160405280600f81526020017f52617261746f6e676120426c61636b000000000000000000000000000000000081525081526020016040518060400160405280600881526020017f4d61727368616c6c00000000000000000000000000000000000000000000000081525081526020016040518060400160405280600981526020017f47616c617061676f73000000000000000000000000000000000000000000000081525081526020016040518060400160405280600581526020017f437265746500000000000000000000000000000000000000000000000000000081525081526020016040518060400160405280600681526020017f4d6f6f726561000000000000000000000000000000000000000000000000000081525081526020016040518060400160405280600581526020017f5761676d6900000000000000000000000000000000000000000000000000000081525081526020016040518060400160405280600581526020017f546f6e676100000000000000000000000000000000000000000000000000000081525081526020016040518060400160405280600481526020017f486f646c0000000000000000000000000000000000000000000000000000000081525081526020016040518060400160405280600781526020017f53656e746f73610000000000000000000000000000000000000000000000000081525081526020016040518060400160405280600981526020017f536b7965204e656f6e000000000000000000000000000000000000000000000081525081526020016040518060400160405280600481526020017f536b79650000000000000000000000000000000000000000000000000000000081525081526020016040518060400160405280600981526020017f53616e746f72696e69000000000000000000000000000000000000000000000081525081526020016040518060400160405280600b81526020017f496c6861204772616e646500000000000000000000000000000000000000000081525081526020016040518060400160405280600581526020017f414876617200000000000000000000000000000000000000000000000000000081525081526020016040518060400160405280600781526020017f4a616d616963610000000000000000000000000000000000000000000000000081525081526020016040518060400160405280600781526020017f476f746c616e640000000000000000000000000000000000000000000000000081525081526020016040518060400160405280600881526020017f4b6f6820526f6e6700000000000000000000000000000000000000000000000081525081526020016040518060400160405280600981526020017f4d6f6e74204e656f6e000000000000000000000000000000000000000000000081525081526020016040518060400160405280600481526020017f4d6f6e740000000000000000000000000000000000000000000000000000000081525081526020016040518060400160405280600581526020017f50656d626100000000000000000000000000000000000000000000000000000081525081526020016040518060400160405280600c81526020017f486f646c2053747269706573000000000000000000000000000000000000000081525081526020016040518060400160405280600881526020017f536f6d6d61726f7900000000000000000000000000000000000000000000000081525081526020016040518060400160405280600781526020017f4f6b696e6177610000000000000000000000000000000000000000000000000081525081526020016040518060400160405280600681526020017f4d6174636861000000000000000000000000000000000000000000000000000081525081526020016040518060400160405280600d81526020017f4b6f6820526f6e67204e656f6e0000000000000000000000000000000000000081525081526020016040518060400160405280600c81526020017f4a616d61696361204e656f6e000000000000000000000000000000000000000081525081526020016040518060400160405280601081526020017f496c6861204772616e6465204e656f6e0000000000000000000000000000000081525081526020016040518060400160405280600f81526020017f546f6e6761204e656f6e2042657461000000000000000000000000000000000081525081526020016040518060400160405280600e81526020017f53616e746f72696e69204e656f6e00000000000000000000000000000000000081525081526020016040518060400160405280600c81526020017f53656e746f7361204e656f6e000000000000000000000000000000000000000081525081526020016040518060400160405280600981526020017f486f646c204e656f6e000000000000000000000000000000000000000000000081525081526020016040518060400160405280601081526020017f546f6e6761204e656f6e20416c7068610000000000000000000000000000000081525081526020016040518060400160405280600a81526020017f5761676d69204e656f6e0000000000000000000000000000000000000000000081525081526020016040518060400160405280600b81526020017f4d6f6f726561204e656f6e00000000000000000000000000000000000000000081525081526020016040518060400160405280600a81526020017f4372657465204e656f6e0000000000000000000000000000000000000000000081525081526020016040518060400160405280600e81526020017f47616c617061676f73204e656f6e00000000000000000000000000000000000081525081526020016040518060400160405280600d81526020017f4d61727368616c6c204e656f6e0000000000000000000000000000000000000081525081526020016040518060400160405280600f81526020017f476f6c6420536861726b204e656f6e000000000000000000000000000000000081525081526020016040518060400160405280600c81526020017f46616e6a6f7665204e656f6e000000000000000000000000000000000000000081525081526020016040518060400160405280600b81526020017f4d6174636861204e656f6e00000000000000000000000000000000000000000081525081526020016040518060400160405280600d81526020017f536f6d6d61726f79204e656f6e0000000000000000000000000000000000000081525081526020016040518060400160405280600a81526020017f4148766172204e656f6e0000000000000000000000000000000000000000000081525081526020016040518060400160405280601181526020017f486f646c2053747269706573204e656f6e00000000000000000000000000000081525081526020016040518060400160405280600c81526020017f476f746c616e64204e656f6e000000000000000000000000000000000000000081525081526020016040518060400160405280600a81526020017f50656d6261204e656f6e0000000000000000000000000000000000000000000081525081526020016040518060400160405280601081526020017f41706520486172626f7572204e656f6e0000000000000000000000000000000081525081526020016040518060400160405280600981526020017f476f6c642053746172000000000000000000000000000000000000000000000081525081526020016040518060400160405280600781526020017f5468756e6465720000000000000000000000000000000000000000000000000081525081526020016040518060400160405280600881526020017f526f636b7374617200000000000000000000000000000000000000000000000081525081526020016040518060400160405280601081526020017f416c69656e203230363020477265656e0000000000000000000000000000000081525081526020016040518060400160405280601581526020017f416c69656e203230363020477265656e204e656f6e000000000000000000000081525081526020016040518060400160405280601381526020017f416c69656e203230363020526564204e656f6e0000000000000000000000000081525081526020016040518060400160405280600e81526020017f416c69656e20323036302052656400000000000000000000000000000000000081525081526020016040518060400160405280601481526020017f416c69656e203230363020426c7565204e656f6e00000000000000000000000081525081526020016040518060400160405280600f81526020017f416c69656e203230363020426c7565000000000000000000000000000000000081525081526020016040518060400160405280601381526020017f416c69656e203230363020446d74204e656f6e0000000000000000000000000081525081526020016040518060400160405280600e81526020017f416c69656e203230363020446d7400000000000000000000000000000000000081525081525060096001600381106200508a577f4e487b7100000000000000000000000000000000000000000000000000000000600052603260045260246000fd5b60090201600360098110620050c8577f4e487b7100000000000000000000000000000000000000000000000000000000600052603260045260246000fd5b0190603e620050d99291906200a7d0565b506040518061016001604052806040518060400160405280601081526020017f4c6f6e67204c61736572204c696768740000000000000000000000000000000081525081526020016040518060400160405280600e81526020017f52656420507572706c65204c454400000000000000000000000000000000000081525081526020016040518060400160405280600f81526020017f426c756520486967686c6967687473000000000000000000000000000000000081525081526020016040518060400160405280600c81526020017f426c756520526564204c4544000000000000000000000000000000000000000081525081526020016040518060400160405280600981526020017f5768697465204c4544000000000000000000000000000000000000000000000081525081526020016040518060400160405280600f81526020017f5768697465205368696e65204c4544000000000000000000000000000000000081525081526020016040518060400160405280601381526020017f477265656e20526564205368696e65204c45440000000000000000000000000081525081526020016040518060400160405280600f81526020017f46756c6c2053706f746c6967687473000000000000000000000000000000000081525081526020016040518060400160405280601381526020017f4f72616e67652043726f7373204c69676874730000000000000000000000000081525081526020016040518060400160405280601281526020017f57686974652043726f7373204c6967687473000000000000000000000000000081525081526020016040518060400160405280600e81526020017f52656420486967686c69676874730000000000000000000000000000000000008152508152506009600160038110620053a9577f4e487b7100000000000000000000000000000000000000000000000000000000600052603260045260246000fd5b60090201600460098110620053e7577f4e487b7100000000000000000000000000000000000000000000000000000000600052603260045260246000fd5b0190600b620053f89291906200a566565b506040518061010001604052806040518060400160405280600881526020017f4261636b2046696e00000000000000000000000000000000000000000000000081525081526020016040518060400160405280600b81526020017f4368726f6d65204261636b00000000000000000000000000000000000000000081525081526020016040518060400160405280600a81526020017f537465656c204261636b0000000000000000000000000000000000000000000081525081526020016040518060400160405280600981526020017f537465656c2046696e000000000000000000000000000000000000000000000081525081526020016040518060400160405280600881526020017f476f6c642046696e00000000000000000000000000000000000000000000000081525081526020016040518060400160405280600f81526020017f57686974652048656c69204261636b000000000000000000000000000000000081525081526020016040518060400160405280600d81526020017f5265642048656c69204261636b0000000000000000000000000000000000000081525081526020016040518060400160405280600f81526020017f476f6c642048656c69204261636b200000000000000000000000000000000000815250815250600960016003811062005617577f4e487b7100000000000000000000000000000000000000000000000000000000600052603260045260246000fd5b6009020160056009811062005655577f4e487b7100000000000000000000000000000000000000000000000000000000600052603260045260246000fd5b01906008620056669291906200a837565b506040518061048001604052806040518060400160405280600d81526020017f46696c6970706f20477265656e0000000000000000000000000000000000000081525081526020016040518060400160405280601081526020017f4d61726f20476f6c642044656c7578650000000000000000000000000000000081525081526020016040518060400160405280600d81526020017f476c61737320546f77657220590000000000000000000000000000000000000081525081526020016040518060400160405280600d81526020017f50616c616e63617220526f73650000000000000000000000000000000000000081525081526020016040518060400160405280600c81526020017f4f737072657920536f757468000000000000000000000000000000000000000081525081526020016040518060400160405280600a81526020017f53636f7270696f6e20590000000000000000000000000000000000000000000081525081526020016040518060400160405280600881526020017f53756c612052656400000000000000000000000000000000000000000000000081525081526020016040518060400160405280600981526020017f4d61726f20476f6c64000000000000000000000000000000000000000000000081525081526020016040518060400160405280600a81526020017f416c69656e20426574610000000000000000000000000000000000000000000081525081526020016040518060400160405280600a81526020017f4f6365616e204861776b0000000000000000000000000000000000000000000081525081526020016040518060400160405280600c81526020017f4d696e657276612047726179000000000000000000000000000000000000000081525081526020016040518060400160405280600c81526020017f46696c6970706f20426c7565000000000000000000000000000000000000000081525081526020016040518060400160405280600a81526020017f4d61726f20477265656e0000000000000000000000000000000000000000000081525081526020016040518060400160405280600b81526020017f46696c6970706f2052656400000000000000000000000000000000000000000081525081526020016040518060400160405280600981526020017f536b7920426c61636b000000000000000000000000000000000000000000000081525081526020016040518060400160405280600981526020017f4d61726f20426c7565000000000000000000000000000000000000000000000081525081526020016040518060400160405280600781526020017f536b79205265640000000000000000000000000000000000000000000000000081525081526020016040518060400160405280600d81526020017f476c61737320546f77657220540000000000000000000000000000000000000081525081526020016040518060400160405280600d81526020017f476c61737320546f77657220410000000000000000000000000000000000000081525081526020016040518060400160405280600e81526020017f46696c6970706f204f72616e676500000000000000000000000000000000000081525081526020016040518060400160405280600a81526020017f536561204d61737465720000000000000000000000000000000000000000000081525081526020016040518060400160405280600581526020017f436f72616c00000000000000000000000000000000000000000000000000000081525081526020016040518060400160405280600d81526020017f446565702053656120426c75650000000000000000000000000000000000000081525081526020016040518060400160405280600f81526020017f446565702053656120507572706c65000000000000000000000000000000000081525081526020016040518060400160405280601081526020017f4d696e6572766120476f6c64204c45440000000000000000000000000000000081525081526020016040518060400160405280601081526020017f4d696e6572766120426c7565204c45440000000000000000000000000000000081525081526020016040518060400160405280600881526020017f426172726965722000000000000000000000000000000000000000000000000081525081526020016040518060400160405280600f81526020017f50616c616e636172204f72616e6765000000000000000000000000000000000081525081526020016040518060400160405280600e81526020017f50616c616e63617220477265656e00000000000000000000000000000000000081525081526020016040518060400160405280600d81526020017f41746c616e74697320476f6c640000000000000000000000000000000000000081525081526020016040518060400160405280600e81526020017f41746c616e74697320477265656e00000000000000000000000000000000000081525081526020016040518060400160405280600d81526020017f41746c616e74697320426c75650000000000000000000000000000000000000081525081526020016040518060400160405280600c81526020017f4f7370726579204e6f727468000000000000000000000000000000000000000081525081526020016040518060400160405280600a81526020017f53636f7270696f6e20470000000000000000000000000000000000000000000081525081526020016040518060400160405280600981526020017f53756c6120526f7365000000000000000000000000000000000000000000000081525081526020016040518060400160405280600e81526020017f4d696e6572766120507572706c65000000000000000000000000000000000000815250815250600960016003811062005ef9577f4e487b7100000000000000000000000000000000000000000000000000000000600052603260045260246000fd5b6009020160066009811062005f37577f4e487b7100000000000000000000000000000000000000000000000000000000600052603260045260246000fd5b0190602462005f489291906200a89e565b50604051806101c001604052806040518060400160405280600981526020017f52616461722046696e000000000000000000000000000000000000000000000081525081526020016040518060400160405280600381526020017f46696e000000000000000000000000000000000000000000000000000000000081525081526020016040518060400160405280600581526020017f5361696c7300000000000000000000000000000000000000000000000000000081525081526020016040518060400160405280601081526020017f476f6c64656e204c696768746e696e670000000000000000000000000000000081525081526020016040518060400160405280600481526020017f4f7263610000000000000000000000000000000000000000000000000000000081525081526020016040518060400160405280600981526020017f4d616e746120526179000000000000000000000000000000000000000000000081525081526020016040518060400160405280600781526020017f48656c697061640000000000000000000000000000000000000000000000000081525081526020016040518060400160405280601181526020017f48656c6970616420476f6c642048656c6900000000000000000000000000000081525081526020016040518060400160405280601281526020017f48656c697061642057686974652048656c69000000000000000000000000000081525081526020016040518060400160405280601081526020017f48656c69706164205265642048656c690000000000000000000000000000000081525081526020016040518060400160405280600681526020017f53656e736f72000000000000000000000000000000000000000000000000000081525081526020016040518060400160405280600b81526020017f53656e736f7220476f6c6400000000000000000000000000000000000000000081525081526020016040518060400160405280601181526020017f536f6c61722050616e656c20426c61636b00000000000000000000000000000081525081526020016040518060400160405280601081526020017f536f6c61722050616e656c20426c7565000000000000000000000000000000008152508152506009600160038110620062c9577f4e487b7100000000000000000000000000000000000000000000000000000000600052603260045260246000fd5b6009020160076009811062006307577f4e487b7100000000000000000000000000000000000000000000000000000000600052603260045260246000fd5b0190600e620063189291906200a905565b50600067ffffffffffffffff8111156200635b577f4e487b7100000000000000000000000000000000000000000000000000000000600052604160045260246000fd5b6040519080825280602002602001820160405280156200639057816020015b60608152602001906001900390816200637a5790505b506009600160038110620063cd577f4e487b7100000000000000000000000000000000000000000000000000000000600052603260045260246000fd5b600902016008600981106200640b577f4e487b7100000000000000000000000000000000000000000000000000000000600052603260045260246000fd5b019080519060200190620064219291906200a96c565b50604051806101a001604052806040518060400160405280601381526020017f45766572676c6164657320417065205061726b0000000000000000000000000081525081526020016040518060400160405280600a81526020017f4170652049736c616e640000000000000000000000000000000000000000000081525081526020016040518060400160405280601181526020017f41706520486172626f757220436f61737400000000000000000000000000000081525081526020016040518060400160405280600d81526020017f536b796c696e6520436f6173740000000000000000000000000000000000000081525081526020016040518060400160405280600d81526020017f4d616769632049736c616e64730000000000000000000000000000000000000081525081526020016040518060400160405280600a81526020017f4d7973746963205365610000000000000000000000000000000000000000000081525081526020016040518060400160405280600a81526020017f4f72616e6720526565660000000000000000000000000000000000000000000081525081526020016040518060400160405280600d81526020017f576174657266616c6c204261790000000000000000000000000000000000000081525081526020016040518060400160405280600881526020017f4170656c61736b6100000000000000000000000000000000000000000000000081525081526020016040518060400160405280600c81526020017f5477696c6967687420426179000000000000000000000000000000000000000081525081526020016040518060400160405280600b81526020017f4d6f6e6b657920506f727400000000000000000000000000000000000000000081525081526020016040518060400160405280600f81526020017f4c6567656e64617279204f6365616e000000000000000000000000000000000081525081526020016040518060400160405280600c81526020017f50697261746520436f6173740000000000000000000000000000000000000000815250815250600960026003811062006767577f4e487b7100000000000000000000000000000000000000000000000000000000600052603260045260246000fd5b60090201600060098110620067a5577f4e487b7100000000000000000000000000000000000000000000000000000000600052603260045260246000fd5b0190600d620067b69291906200a498565b5060405180606001604052806040518060400160405280600681526020017f547970652031000000000000000000000000000000000000000000000000000081525081526020016040518060400160405280600681526020017f547970652032000000000000000000000000000000000000000000000000000081525081526020016040518060400160405280600681526020017f54797065203300000000000000000000000000000000000000000000000000008152508152506009600260038110620068ad577f4e487b7100000000000000000000000000000000000000000000000000000000600052603260045260246000fd5b60090201600160098110620068eb577f4e487b7100000000000000000000000000000000000000000000000000000000600052603260045260246000fd5b01906003620068fc9291906200a4ff565b50604051806101e001604052806040518060400160405280600a81526020017f5365612048616d6d65720000000000000000000000000000000000000000000081525081526020016040518060400160405280600d81526020017f4170656d6972616c20476f6c640000000000000000000000000000000000000081525081526020016040518060400160405280600781526020017f54726964656e740000000000000000000000000000000000000000000000000081525081526020016040518060400160405280600b81526020017f52656420536b697070657200000000000000000000000000000000000000000081525081526020016040518060400160405280600481526020017f436170650000000000000000000000000000000000000000000000000000000081525081526020016040518060400160405280600981526020017f5363756c7074757265000000000000000000000000000000000000000000000081525081526020016040518060400160405280600c81526020017f437962657220416e63686f72000000000000000000000000000000000000000081525081526020016040518060400160405280600c81526020017f5761766520427265616b6572000000000000000000000000000000000000000081525081526020016040518060400160405280600a81526020017f526564205370696b65730000000000000000000000000000000000000000000081525081526020016040518060400160405280600a81526020017f4f6365616e20546563680000000000000000000000000000000000000000000081525081526020016040518060400160405280600881526020017f4372657363656e7400000000000000000000000000000000000000000000000081525081526020016040518060400160405280600981526020017f476f6c642057696e67000000000000000000000000000000000000000000000081525081526020016040518060400160405280600781526020017f49726f6e2052530000000000000000000000000000000000000000000000000081525081526020016040518060400160405280600981526020017f5465616c20526f636b000000000000000000000000000000000000000000000081525081526020016040518060400160405280600a81526020017f537465656c205374617200000000000000000000000000000000000000000000815250815250600960026003811062006cb8577f4e487b7100000000000000000000000000000000000000000000000000000000600052603260045260246000fd5b6009020160026009811062006cf6577f4e487b7100000000000000000000000000000000000000000000000000000000600052603260045260246000fd5b0190600f62006d079291906200a634565b506040518061014001604052806040518060400160405280600481526020017f47696c690000000000000000000000000000000000000000000000000000000081525081526020016040518060400160405280600781526020017f526f736172696f0000000000000000000000000000000000000000000000000081525081526020016040518060400160405280600881526020017f5363686e6162656c00000000000000000000000000000000000000000000000081525081526020016040518060400160405280600681526020017f4861796d616e000000000000000000000000000000000000000000000000000081525081526020016040518060400160405280600681526020017f497363686961000000000000000000000000000000000000000000000000000081525081526020016040518060400160405280600c81526020017f526f736172696f204e656f6e000000000000000000000000000000000000000081525081526020016040518060400160405280600b81526020017f497363686961204e656f6e00000000000000000000000000000000000000000081525081526020016040518060400160405280600981526020017f47696c69204e656f6e000000000000000000000000000000000000000000000081525081526020016040518060400160405280600b81526020017f4861796d616e204e656f6e00000000000000000000000000000000000000000081525081526020016040518060400160405280600d81526020017f5363686e6162656c204e656f6e00000000000000000000000000000000000000815250815250600960026003811062006f9c577f4e487b7100000000000000000000000000000000000000000000000000000000600052603260045260246000fd5b6009020160036009811062006fda577f4e487b7100000000000000000000000000000000000000000000000000000000600052603260045260246000fd5b0190600a62006feb9291906200a9d3565b506040518061014001604052806040518060400160405280600e81526020017f52656420486967686c696768747300000000000000000000000000000000000081525081526020016040518060400160405280601181526020017f52656420507572706c65204c454420494900000000000000000000000000000081525081526020016040518060400160405280600f81526020017f426c756520486967686c6967687473000000000000000000000000000000000081525081526020016040518060400160405280601281526020017f57686974652043726f7373204c6967687473000000000000000000000000000081525081526020016040518060400160405280601381526020017f4f72616e67652043726f7373204c69676874730000000000000000000000000081525081526020016040518060400160405280601281526020017f46756c6c2053706f746c6967687473204949000000000000000000000000000081525081526020016040518060400160405280601681526020017f477265656e20526564205368696e65204c45442049490000000000000000000081525081526020016040518060400160405280601281526020017f5768697465205368696e65204c4544204949000000000000000000000000000081525081526020016040518060400160405280600c81526020017f5768697465204c4544204949000000000000000000000000000000000000000081525081526020016040518060400160405280600f81526020017f426c756520526564204c45442049490000000000000000000000000000000000815250815250600960026003811062007280577f4e487b7100000000000000000000000000000000000000000000000000000000600052603260045260246000fd5b60090201600460098110620072be577f4e487b7100000000000000000000000000000000000000000000000000000000600052603260045260246000fd5b0190600a620072cf9291906200a9d3565b506040518061010001604052806040518060400160405280600881526020017f4261636b2046696e00000000000000000000000000000000000000000000000081525081526020016040518060400160405280600b81526020017f4368726f6d65204261636b00000000000000000000000000000000000000000081525081526020016040518060400160405280600a81526020017f537465656c204261636b0000000000000000000000000000000000000000000081525081526020016040518060400160405280600981526020017f537465656c2046696e000000000000000000000000000000000000000000000081525081526020016040518060400160405280600881526020017f476f6c642046696e00000000000000000000000000000000000000000000000081525081526020016040518060400160405280600f81526020017f57686974652048656c69204261636b000000000000000000000000000000000081525081526020016040518060400160405280600d81526020017f5265642048656c69204261636b0000000000000000000000000000000000000081525081526020016040518060400160405280600f81526020017f476f6c642048656c69204261636b2000000000000000000000000000000000008152508152506009600260038110620074ee577f4e487b7100000000000000000000000000000000000000000000000000000000600052603260045260246000fd5b600902016005600981106200752c577f4e487b7100000000000000000000000000000000000000000000000000000000600052603260045260246000fd5b019060086200753d9291906200a837565b506040518061048001604052806040518060400160405280600d81526020017f46696c6970706f20477265656e0000000000000000000000000000000000000081525081526020016040518060400160405280601081526020017f4d61726f20476f6c642044656c7578650000000000000000000000000000000081525081526020016040518060400160405280600d81526020017f476c61737320546f77657220590000000000000000000000000000000000000081525081526020016040518060400160405280600d81526020017f50616c616e63617220526f73650000000000000000000000000000000000000081525081526020016040518060400160405280600c81526020017f4f737072657920536f757468000000000000000000000000000000000000000081525081526020016040518060400160405280600a81526020017f53636f7270696f6e20590000000000000000000000000000000000000000000081525081526020016040518060400160405280600881526020017f53756c612052656400000000000000000000000000000000000000000000000081525081526020016040518060400160405280600981526020017f4d61726f20476f6c64000000000000000000000000000000000000000000000081525081526020016040518060400160405280600a81526020017f416c69656e20426574610000000000000000000000000000000000000000000081525081526020016040518060400160405280600a81526020017f4f6365616e204861776b0000000000000000000000000000000000000000000081525081526020016040518060400160405280600c81526020017f4d696e657276612047726179000000000000000000000000000000000000000081525081526020016040518060400160405280600c81526020017f46696c6970706f20426c7565000000000000000000000000000000000000000081525081526020016040518060400160405280600a81526020017f4d61726f20477265656e0000000000000000000000000000000000000000000081525081526020016040518060400160405280600b81526020017f46696c6970706f2052656400000000000000000000000000000000000000000081525081526020016040518060400160405280600981526020017f536b7920426c61636b000000000000000000000000000000000000000000000081525081526020016040518060400160405280600981526020017f4d61726f20426c7565000000000000000000000000000000000000000000000081525081526020016040518060400160405280600781526020017f536b79205265640000000000000000000000000000000000000000000000000081525081526020016040518060400160405280600d81526020017f476c61737320546f77657220540000000000000000000000000000000000000081525081526020016040518060400160405280600d81526020017f476c61737320546f77657220410000000000000000000000000000000000000081525081526020016040518060400160405280600e81526020017f46696c6970706f204f72616e676500000000000000000000000000000000000081525081526020016040518060400160405280600a81526020017f536561204d61737465720000000000000000000000000000000000000000000081525081526020016040518060400160405280600581526020017f436f72616c00000000000000000000000000000000000000000000000000000081525081526020016040518060400160405280600d81526020017f446565702053656120426c75650000000000000000000000000000000000000081525081526020016040518060400160405280600f81526020017f446565702053656120507572706c65000000000000000000000000000000000081525081526020016040518060400160405280601081526020017f4d696e6572766120476f6c64204c45440000000000000000000000000000000081525081526020016040518060400160405280601081526020017f4d696e6572766120426c7565204c45440000000000000000000000000000000081525081526020016040518060400160405280600881526020017f426172726965722000000000000000000000000000000000000000000000000081525081526020016040518060400160405280600f81526020017f50616c616e636172204f72616e6765000000000000000000000000000000000081525081526020016040518060400160405280600e81526020017f50616c616e63617220477265656e00000000000000000000000000000000000081525081526020016040518060400160405280600d81526020017f41746c616e74697320476f6c640000000000000000000000000000000000000081525081526020016040518060400160405280600e81526020017f41746c616e74697320477265656e00000000000000000000000000000000000081525081526020016040518060400160405280600d81526020017f41746c616e74697320426c75650000000000000000000000000000000000000081525081526020016040518060400160405280600c81526020017f4f7370726579204e6f727468000000000000000000000000000000000000000081525081526020016040518060400160405280600a81526020017f53636f7270696f6e20470000000000000000000000000000000000000000000081525081526020016040518060400160405280600981526020017f53756c6120526f7365000000000000000000000000000000000000000000000081525081526020016040518060400160405280600e81526020017f4d696e6572766120507572706c65000000000000000000000000000000000000815250815250600960026003811062007dd0577f4e487b7100000000000000000000000000000000000000000000000000000000600052603260045260246000fd5b6009020160066009811062007e0e577f4e487b7100000000000000000000000000000000000000000000000000000000600052603260045260246000fd5b0190602462007e1f9291906200a89e565b50604051806101c001604052806040518060400160405280600981526020017f52616461722046696e000000000000000000000000000000000000000000000081525081526020016040518060400160405280600381526020017f46696e000000000000000000000000000000000000000000000000000000000081525081526020016040518060400160405280600581526020017f5361696c7300000000000000000000000000000000000000000000000000000081525081526020016040518060400160405280601081526020017f476f6c64656e204c696768746e696e670000000000000000000000000000000081525081526020016040518060400160405280600481526020017f4f7263610000000000000000000000000000000000000000000000000000000081525081526020016040518060400160405280600981526020017f4d616e746120526179000000000000000000000000000000000000000000000081525081526020016040518060400160405280600781526020017f48656c697061640000000000000000000000000000000000000000000000000081525081526020016040518060400160405280601181526020017f48656c6970616420476f6c642048656c6900000000000000000000000000000081525081526020016040518060400160405280601281526020017f48656c697061642057686974652048656c69000000000000000000000000000081525081526020016040518060400160405280601081526020017f48656c69706164205265642048656c690000000000000000000000000000000081525081526020016040518060400160405280600681526020017f53656e736f72000000000000000000000000000000000000000000000000000081525081526020016040518060400160405280600b81526020017f53656e736f7220476f6c6400000000000000000000000000000000000000000081525081526020016040518060400160405280601181526020017f536f6c61722050616e656c20426c61636b00000000000000000000000000000081525081526020016040518060400160405280601081526020017f536f6c61722050616e656c20426c7565000000000000000000000000000000008152508152506009600260038110620081a0577f4e487b7100000000000000000000000000000000000000000000000000000000600052603260045260246000fd5b60090201600760098110620081de577f4e487b7100000000000000000000000000000000000000000000000000000000600052603260045260246000fd5b0190600e620081ef9291906200a905565b50600067ffffffffffffffff81111562008232577f4e487b7100000000000000000000000000000000000000000000000000000000600052604160045260246000fd5b6040519080825280602002602001820160405280156200826757816020015b6060815260200190600190039081620082515790505b506009600260038110620082a4577f4e487b7100000000000000000000000000000000000000000000000000000000600052603260045260246000fd5b60090201600860098110620082e2577f4e487b7100000000000000000000000000000000000000000000000000000000600052603260045260246000fd5b019080519060200190620082f89291906200a96c565b50604051806101a00160405280601661ffff1661ffff168152602001602f61ffff168152602001604961ffff168152602001606061ffff168152602001606661ffff168152602001607f61ffff168152602001609361ffff16815260200160a861ffff16815260200160b461ffff16815260200160cd61ffff16815260200160e161ffff16815260200160f061ffff16815260200161010061ffff16815250602490600d620083a99291906200aa3a565b506040518060600160405280607b61ffff1661ffff16815260200160f361ffff16815260200161010061ffff168152506025906003620083eb9291906200aaeb565b50604051806101600160405280601561ffff1661ffff168152602001602861ffff168152602001604061ffff168152602001605161ffff168152602001606861ffff168152602001608161ffff168152602001609a61ffff16815260200160b861ffff16815260200160ce61ffff16815260200160de61ffff16815260200160f661ffff168152506026600060038110620084af577f4e487b7100000000000000000000000000000000000000000000000000000000600052603260045260246000fd5b60090201600060098110620084ed577f4e487b7100000000000000000000000000000000000000000000000000000000600052603260045260246000fd5b0190600b620084fe9291906200ab9c565b5060405180610b400160405280600461ffff1661ffff168152602001600761ffff168152602001600961ffff168152602001600c61ffff168152602001600e61ffff168152602001601161ffff168152602001601561ffff168152602001601861ffff168152602001601c61ffff168152602001601f61ffff168152602001602261ffff168152602001602661ffff168152602001602961ffff168152602001602d61ffff168152602001603061ffff168152602001603461ffff168152602001603761ffff168152602001603b61ffff168152602001603e61ffff168152602001604261ffff168152602001604561ffff168152602001604961ffff168152602001604d61ffff168152602001605061ffff168152602001605261ffff168152602001605661ffff168152602001605861ffff168152602001605961ffff168152602001605c61ffff168152602001606061ffff168152602001606361ffff168152602001606761ffff168152602001606a61ffff168152602001606e61ffff168152602001607161ffff168152602001607561ffff168152602001607861ffff168152602001607c61ffff168152602001607f61ffff168152602001608361ffff168152602001608661ffff168152602001608a61ffff168152602001608d61ffff168152602001608f61ffff168152602001609261ffff168152602001609461ffff168152602001609761ffff168152602001609961ffff168152602001609b61ffff168152602001609e61ffff16815260200160a061ffff16815260200160a361ffff16815260200160a561ffff16815260200160a861ffff16815260200160aa61ffff16815260200160ad61ffff16815260200160af61ffff16815260200160b261ffff16815260200160b461ffff16815260200160b661ffff16815260200160b861ffff16815260200160ba61ffff16815260200160bc61ffff16815260200160be61ffff16815260200160c161ffff16815260200160c361ffff16815260200160c661ffff16815260200160c861ffff16815260200160cb61ffff16815260200160cd61ffff16815260200160d061ffff16815260200160d361ffff16815260200160d561ffff16815260200160d861ffff16815260200160da61ffff16815260200160dd61ffff16815260200160df61ffff16815260200160e261ffff16815260200160e461ffff16815260200160e761ffff16815260200160e961ffff16815260200160ec61ffff16815260200160ee61ffff16815260200160f161ffff16815260200160f361ffff16815260200160f661ffff16815260200160f961ffff16815260200160fc61ffff16815260200160fe61ffff16815260200161010061ffff16815250602660006003811062008928577f4e487b7100000000000000000000000000000000000000000000000000000000600052603260045260246000fd5b6009020160016009811062008966577f4e487b7100000000000000000000000000000000000000000000000000000000600052603260045260246000fd5b0190605a620089779291906200ac4d565b50604051806101600160405280600a61ffff1661ffff168152602001601e61ffff168152602001604a61ffff168152602001606061ffff168152602001607961ffff168152602001609261ffff16815260200160a661ffff16815260200160ba61ffff16815260200160ce61ffff16815260200160e261ffff16815260200160ec61ffff16815250602660006003811062008a3b577f4e487b7100000000000000000000000000000000000000000000000000000000600052603260045260246000fd5b6009020160026009811062008a79577f4e487b7100000000000000000000000000000000000000000000000000000000600052603260045260246000fd5b0190600b62008a8a9291906200ab9c565b50604051806101e00160405280600a61ffff1661ffff168152602001601c61ffff168152602001602a61ffff168152602001603861ffff168152602001604761ffff168152602001605661ffff168152602001606161ffff168152602001607561ffff168152602001608a61ffff168152602001609e61ffff16815260200160aa61ffff16815260200160b661ffff16815260200160c861ffff16815260200160d761ffff16815260200160ec61ffff16815250602660006003811062008b7a577f4e487b7100000000000000000000000000000000000000000000000000000000600052603260045260246000fd5b6009020160036009811062008bb8577f4e487b7100000000000000000000000000000000000000000000000000000000600052603260045260246000fd5b0190600f62008bc99291906200acfe565b50604051806106600160405280600361ffff1661ffff168152602001600561ffff168152602001600661ffff168152602001600a61ffff168152602001601061ffff168152602001601661ffff168152602001601c61ffff168152602001602261ffff168152602001602861ffff168152602001602c61ffff168152602001603061ffff168152602001603661ffff168152602001603c61ffff168152602001604061ffff168152602001604361ffff168152602001604761ffff168152602001604e61ffff168152602001605461ffff168152602001605a61ffff168152602001606061ffff168152602001606661ffff168152602001606c61ffff168152602001607361ffff168152602001607761ffff168152602001607c61ffff168152602001608061ffff168152602001608661ffff168152602001608c61ffff168152602001609261ffff168152602001609661ffff168152602001609a61ffff168152602001609e61ffff16815260200160a461ffff16815260200160aa61ffff16815260200160b061ffff16815260200160b461ffff16815260200160b861ffff16815260200160bd61ffff16815260200160c261ffff16815260200160c761ffff16815260200160cd61ffff16815260200160d361ffff16815260200160db61ffff16815260200160e361ffff16815260200160e761ffff16815260200160eb61ffff16815260200160ef61ffff16815260200160f261ffff16815260200160f861ffff16815260200160fc61ffff16815260200161010061ffff16815250602660006003811062008e46577f4e487b7100000000000000000000000000000000000000000000000000000000600052603260045260246000fd5b6009020160046009811062008e84577f4e487b7100000000000000000000000000000000000000000000000000000000600052603260045260246000fd5b0190603362008e959291906200adaf565b50604051806101800160405280600f61ffff1661ffff168152602001601e61ffff168152602001602b61ffff168152602001603461ffff168152602001603e61ffff168152602001604861ffff168152602001605961ffff168152602001606861ffff168152602001607261ffff168152602001608361ffff168152602001609261ffff168152602001609c61ffff16815250602660006003811062008f64577f4e487b7100000000000000000000000000000000000000000000000000000000600052603260045260246000fd5b6009020160056009811062008fa2577f4e487b7100000000000000000000000000000000000000000000000000000000600052603260045260246000fd5b0190600c62008fb39291906200ae60565b50604051806101200160405280601461ffff1661ffff168152602001603261ffff168152602001604b61ffff168152602001606161ffff168152602001608061ffff168152602001609e61ffff16815260200160b061ffff16815260200160ce61ffff16815260200160e261ffff16815250602660006003811062009061577f4e487b7100000000000000000000000000000000000000000000000000000000600052603260045260246000fd5b600902016006600981106200909f577f4e487b7100000000000000000000000000000000000000000000000000000000600052603260045260246000fd5b01906009620090b09291906200af11565b50604051806101e00160405280601461ffff1661ffff168152602001602061ffff168152602001602e61ffff168152602001604061ffff168152602001604f61ffff168152602001605f61ffff168152602001607161ffff168152602001608361ffff168152602001609161ffff16815260200160a561ffff16815260200160b961ffff16815260200160c561ffff16815260200160d661ffff16815260200160e661ffff16815260200160f661ffff168152506026600160038110620091a0577f4e487b7100000000000000000000000000000000000000000000000000000000600052603260045260246000fd5b60090201600060098110620091de577f4e487b7100000000000000000000000000000000000000000000000000000000600052603260045260246000fd5b0190600f620091ef9291906200acfe565b50604051806107c00160405280600761ffff1661ffff168152602001600c61ffff168152602001600d61ffff168152602001601161ffff168152602001601561ffff168152602001601a61ffff168152602001601f61ffff168152602001602461ffff168152602001602961ffff168152602001602e61ffff168152602001603361ffff168152602001603861ffff168152602001603e61ffff168152602001604361ffff168152602001604761ffff168152602001604c61ffff168152602001605161ffff168152602001605661ffff168152602001605b61ffff168152602001606061ffff168152602001606561ffff168152602001606a61ffff168152602001606e61ffff168152602001607361ffff168152602001607861ffff168152602001607d61ffff168152602001608261ffff168152602001608861ffff168152602001608d61ffff168152602001609161ffff168152602001609561ffff168152602001609961ffff168152602001609e61ffff16815260200160a261ffff16815260200160a661ffff16815260200160aa61ffff16815260200160ae61ffff16815260200160b261ffff16815260200160b661ffff16815260200160ba61ffff16815260200160be61ffff16815260200160c261ffff16815260200160c361ffff16815260200160c761ffff16815260200160cb61ffff16815260200160cf61ffff16815260200160d361ffff16815260200160d761ffff16815260200160db61ffff16815260200160df61ffff16815260200160e361ffff16815260200160e461ffff16815260200160e861ffff16815260200160ec61ffff16815260200160ef61ffff16815260200160f161ffff16815260200160f361ffff16815260200160f661ffff16815260200160f861ffff16815260200160fb61ffff16815260200160fd61ffff16815260200161010061ffff168152506026600160038110620094e5577f4e487b7100000000000000000000000000000000000000000000000000000000600052603260045260246000fd5b6009020160016009811062009523577f4e487b7100000000000000000000000000000000000000000000000000000000600052603260045260246000fd5b0190603e620095349291906200afc2565b50604051806101600160405280602b61ffff1661ffff168152602001603d61ffff168152602001605161ffff168152602001606561ffff168152602001607961ffff168152602001608d61ffff16815260200160a161ffff16815260200160b061ffff16815260200160c461ffff16815260200160d861ffff16815260200160ec61ffff168152506026600160038110620095f8577f4e487b7100000000000000000000000000000000000000000000000000000000600052603260045260246000fd5b6009020160026009811062009636577f4e487b7100000000000000000000000000000000000000000000000000000000600052603260045260246000fd5b0190600b620096479291906200ab9c565b50604051806101000160405280602261ffff1661ffff168152602001604061ffff168152602001606061ffff168152602001607e61ffff168152602001609761ffff16815260200160a661ffff16815260200160ba61ffff16815260200160c461ffff168152506026600160038110620096ea577f4e487b7100000000000000000000000000000000000000000000000000000000600052603260045260246000fd5b6009020160036009811062009728577f4e487b7100000000000000000000000000000000000000000000000000000000600052603260045260246000fd5b01906008620097399291906200b073565b50604051806104800160405280600961ffff1661ffff168152602001600b61ffff168152602001601461ffff168152602001601d61ffff168152602001602661ffff168152602001602f61ffff168152602001603861ffff168152602001603b61ffff168152602001604161ffff168152602001604861ffff168152602001604f61ffff168152602001605661ffff168152602001605d61ffff168152602001606461ffff168152602001606b61ffff168152602001607261ffff168152602001607961ffff168152602001608061ffff168152602001608761ffff168152602001608e61ffff168152602001609561ffff168152602001609c61ffff16815260200160a361ffff16815260200160aa61ffff16815260200160b161ffff16815260200160b861ffff16815260200160bf61ffff16815260200160c661ffff16815260200160cd61ffff16815260200160cf61ffff16815260200160d661ffff16815260200160dd61ffff16815260200160e561ffff16815260200160ee61ffff16815260200160f761ffff16815260200161010061ffff16815250602660016003811062009911577f4e487b7100000000000000000000000000000000000000000000000000000000600052603260045260246000fd5b600902016004600981106200994f577f4e487b7100000000000000000000000000000000000000000000000000000000600052603260045260246000fd5b01906024620099609291906200b124565b50604051806101c00160405280600a61ffff1661ffff168152602001601461ffff168152602001602861ffff168152602001603261ffff168152602001603e61ffff168152602001604d61ffff168152602001605c61ffff168152602001606661ffff168152602001607561ffff168152602001608961ffff168152602001609861ffff16815260200160a261ffff16815260200160b361ffff16815260200160c461ffff16815250602660016003811062009a45577f4e487b7100000000000000000000000000000000000000000000000000000000600052603260045260246000fd5b6009020160056009811062009a83577f4e487b7100000000000000000000000000000000000000000000000000000000600052603260045260246000fd5b0190600e62009a949291906200b1d5565b50600067ffffffffffffffff81111562009ad7577f4e487b7100000000000000000000000000000000000000000000000000000000600052604160045260246000fd5b60405190808252806020026020018201604052801562009b065781602001602082028036833780820191505090505b50602660016003811062009b43577f4e487b7100000000000000000000000000000000000000000000000000000000600052603260045260246000fd5b6009020160066009811062009b81577f4e487b7100000000000000000000000000000000000000000000000000000000600052603260045260246000fd5b01908051906020019062009b979291906200b286565b50604051806101e00160405280601461ffff1661ffff168152602001602061ffff168152602001602e61ffff168152602001604061ffff168152602001604f61ffff168152602001605f61ffff168152602001607161ffff168152602001608361ffff168152602001609161ffff16815260200160a561ffff16815260200160b961ffff16815260200160c561ffff16815260200160d661ffff16815260200160e661ffff16815260200160f661ffff16815250602660026003811062009c87577f4e487b7100000000000000000000000000000000000000000000000000000000600052603260045260246000fd5b6009020160006009811062009cc5577f4e487b7100000000000000000000000000000000000000000000000000000000600052603260045260246000fd5b0190600f62009cd69291906200acfe565b50604051806101400160405280602361ffff1661ffff168152602001604661ffff168152602001604b61ffff168152602001606e61ffff168152602001609161ffff16815260200160af61ffff16815260200160ca61ffff16815260200160e361ffff16815260200160fc61ffff16815260200161010061ffff16815250602660026003811062009d90577f4e487b7100000000000000000000000000000000000000000000000000000000600052603260045260246000fd5b6009020160016009811062009dce577f4e487b7100000000000000000000000000000000000000000000000000000000600052603260045260246000fd5b0190600a62009ddf9291906200b337565b50604051806101400160405280601761ffff1661ffff168152602001603061ffff168152602001604761ffff168152602001605f61ffff168152602001607761ffff168152602001608b61ffff16815260200160a261ffff16815260200160b661ffff16815260200160ce61ffff16815260200160e761ffff16815250602660026003811062009e98577f4e487b7100000000000000000000000000000000000000000000000000000000600052603260045260246000fd5b6009020160026009811062009ed6577f4e487b7100000000000000000000000000000000000000000000000000000000600052603260045260246000fd5b0190600a62009ee79291906200b337565b50604051806101000160405280602261ffff1661ffff168152602001604061ffff168152602001606061ffff168152602001607e61ffff168152602001609761ffff16815260200160a661ffff16815260200160ba61ffff16815260200160c461ffff16815250602660026003811062009f8a577f4e487b7100000000000000000000000000000000000000000000000000000000600052603260045260246000fd5b6009020160036009811062009fc8577f4e487b7100000000000000000000000000000000000000000000000000000000600052603260045260246000fd5b0190600862009fd99291906200b073565b50604051806104800160405280600961ffff1661ffff168152602001600b61ffff168152602001601461ffff168152602001601d61ffff168152602001602661ffff168152602001602f61ffff168152602001603861ffff168152602001603b61ffff168152602001604161ffff168152602001604861ffff168152602001604f61ffff168152602001605661ffff168152602001605d61ffff168152602001606461ffff168152602001606b61ffff168152602001607261ffff168152602001607961ffff168152602001608061ffff168152602001608761ffff168152602001608e61ffff168152602001609561ffff168152602001609c61ffff16815260200160a361ffff16815260200160aa61ffff16815260200160b161ffff16815260200160b861ffff16815260200160bf61ffff16815260200160c661ffff16815260200160cd61ffff16815260200160cf61ffff16815260200160d661ffff16815260200160dd61ffff16815260200160e561ffff16815260200160ee61ffff16815260200160f761ffff16815260200161010061ffff1681525060266002600381106200a1b1577f4e487b7100000000000000000000000000000000000000000000000000000000600052603260045260246000fd5b600902016004600981106200a1ef577f4e487b7100000000000000000000000000000000000000000000000000000000600052603260045260246000fd5b019060246200a2009291906200b124565b50604051806101c00160405280600a61ffff1661ffff168152602001601461ffff168152602001602861ffff168152602001603261ffff168152602001603e61ffff168152602001604d61ffff168152602001605c61ffff168152602001606661ffff168152602001607561ffff168152602001608961ffff168152602001609861ffff16815260200160a261ffff16815260200160b361ffff16815260200160c461ffff1681525060266002600381106200a2e5577f4e487b7100000000000000000000000000000000000000000000000000000000600052603260045260246000fd5b600902016005600981106200a323577f4e487b7100000000000000000000000000000000000000000000000000000000600052603260045260246000fd5b0190600e6200a3349291906200b1d5565b50600067ffffffffffffffff8111156200a377577f4e487b7100000000000000000000000000000000000000000000000000000000600052604160045260246000fd5b6040519080825280602002602001820160405280156200a3a65781602001602082028036833780820191505090505b5060266002600381106200a3e3577f4e487b7100000000000000000000000000000000000000000000000000000000600052603260045260246000fd5b600902016006600981106200a421577f4e487b7100000000000000000000000000000000000000000000000000000000600052603260045260246000fd5b0190805190602001906200a4379291906200b286565b506200b56b565b82600981019282156200a485579160200282015b828111156200a4845782518290805190602001906200a4739291906200b3e8565b50916020019190600101906200a452565b5b5090506200a49491906200b479565b5090565b8280548282559060005260206000209081019282156200a4ec579160200282015b828111156200a4eb5782518290805190602001906200a4da9291906200b3e8565b50916020019190600101906200a4b9565b5b5090506200a4fb91906200b479565b5090565b8280548282559060005260206000209081019282156200a553579160200282015b828111156200a5525782518290805190602001906200a5419291906200b3e8565b50916020019190600101906200a520565b5b5090506200a56291906200b479565b5090565b8280548282559060005260206000209081019282156200a5ba579160200282015b828111156200a5b95782518290805190602001906200a5a89291906200b3e8565b50916020019190600101906200a587565b5b5090506200a5c991906200b479565b5090565b8280548282559060005260206000209081019282156200a621579160200282015b828111156200a6205782518290805190602001906200a60f9291906200b3e8565b50916020019190600101906200a5ee565b5b5090506200a63091906200b479565b5090565b8280548282559060005260206000209081019282156200a688579160200282015b828111156200a6875782518290805190602001906200a6769291906200b3e8565b50916020019190600101906200a655565b5b5090506200a69791906200b479565b5090565b8280548282559060005260206000209081019282156200a6ef579160200282015b828111156200a6ee5782518290805190602001906200a6dd9291906200b3e8565b50916020019190600101906200a6bc565b5b5090506200a6fe91906200b479565b5090565b8280548282559060005260206000209081019282156200a756579160200282015b828111156200a7555782518290805190602001906200a7449291906200b3e8565b50916020019190600101906200a723565b5b5090506200a76591906200b479565b5090565b8280548282559060005260206000209081019282156200a7bd579160200282015b828111156200a7bc5782518290805190602001906200a7ab9291906200b3e8565b50916020019190600101906200a78a565b5b5090506200a7cc91906200b479565b5090565b8280548282559060005260206000209081019282156200a824579160200282015b828111156200a8235782518290805190602001906200a8129291906200b3e8565b50916020019190600101906200a7f1565b5b5090506200a83391906200b479565b5090565b8280548282559060005260206000209081019282156200a88b579160200282015b828111156200a88a5782518290805190602001906200a8799291906200b3e8565b50916020019190600101906200a858565b5b5090506200a89a91906200b479565b5090565b8280548282559060005260206000209081019282156200a8f2579160200282015b828111156200a8f15782518290805190602001906200a8e09291906200b3e8565b50916020019190600101906200a8bf565b5b5090506200a90191906200b479565b5090565b8280548282559060005260206000209081019282156200a959579160200282015b828111156200a9585782518290805190602001906200a9479291906200b3e8565b50916020019190600101906200a926565b5b5090506200a96891906200b479565b5090565b8280548282559060005260206000209081019282156200a9c0579160200282015b828111156200a9bf5782518290805190602001906200a9ae9291906200b3e8565b50916020019190600101906200a98d565b5b5090506200a9cf91906200b479565b5090565b8280548282559060005260206000209081019282156200aa27579160200282015b828111156200aa265782518290805190602001906200aa159291906200b3e8565b50916020019190600101906200a9f4565b5b5090506200aa3691906200b479565b5090565b82805482825590600052602060002090600f016010900481019282156200aad85791602002820160005b838211156200aaa657835183826101000a81548161ffff021916908361ffff16021790555092602001926002016020816001010492830192600103026200aa64565b80156200aad65782816101000a81549061ffff02191690556002016020816001010492830192600103026200aaa6565b505b5090506200aae791906200b4a1565b5090565b82805482825590600052602060002090600f016010900481019282156200ab895791602002820160005b838211156200ab5757835183826101000a81548161ffff021916908361ffff16021790555092602001926002016020816001010492830192600103026200ab15565b80156200ab875782816101000a81549061ffff02191690556002016020816001010492830192600103026200ab57565b505b5090506200ab9891906200b4a1565b5090565b82805482825590600052602060002090600f016010900481019282156200ac3a5791602002820160005b838211156200ac0857835183826101000a81548161ffff021916908361ffff16021790555092602001926002016020816001010492830192600103026200abc6565b80156200ac385782816101000a81549061ffff02191690556002016020816001010492830192600103026200ac08565b505b5090506200ac4991906200b4a1565b5090565b82805482825590600052602060002090600f016010900481019282156200aceb5791602002820160005b838211156200acb957835183826101000a81548161ffff021916908361ffff16021790555092602001926002016020816001010492830192600103026200ac77565b80156200ace95782816101000a81549061ffff02191690556002016020816001010492830192600103026200acb9565b505b5090506200acfa91906200b4a1565b5090565b82805482825590600052602060002090600f016010900481019282156200ad9c5791602002820160005b838211156200ad6a57835183826101000a81548161ffff021916908361ffff16021790555092602001926002016020816001010492830192600103026200ad28565b80156200ad9a5782816101000a81549061ffff02191690556002016020816001010492830192600103026200ad6a565b505b5090506200adab91906200b4a1565b5090565b82805482825590600052602060002090600f016010900481019282156200ae4d5791602002820160005b838211156200ae1b57835183826101000a81548161ffff021916908361ffff16021790555092602001926002016020816001010492830192600103026200add9565b80156200ae4b5782816101000a81549061ffff02191690556002016020816001010492830192600103026200ae1b565b505b5090506200ae5c91906200b4a1565b5090565b82805482825590600052602060002090600f016010900481019282156200aefe5791602002820160005b838211156200aecc57835183826101000a81548161ffff021916908361ffff16021790555092602001926002016020816001010492830192600103026200ae8a565b80156200aefc5782816101000a81549061ffff02191690556002016020816001010492830192600103026200aecc565b505b5090506200af0d91906200b4a1565b5090565b82805482825590600052602060002090600f016010900481019282156200afaf5791602002820160005b838211156200af7d57835183826101000a81548161ffff021916908361ffff16021790555092602001926002016020816001010492830192600103026200af3b565b80156200afad5782816101000a81549061ffff02191690556002016020816001010492830192600103026200af7d565b505b5090506200afbe91906200b4a1565b5090565b82805482825590600052602060002090600f016010900481019282156200b0605791602002820160005b838211156200b02e57835183826101000a81548161ffff021916908361ffff16021790555092602001926002016020816001010492830192600103026200afec565b80156200b05e5782816101000a81549061ffff02191690556002016020816001010492830192600103026200b02e565b505b5090506200b06f91906200b4a1565b5090565b82805482825590600052602060002090600f016010900481019282156200b1115791602002820160005b838211156200b0df57835183826101000a81548161ffff021916908361ffff16021790555092602001926002016020816001010492830192600103026200b09d565b80156200b10f5782816101000a81549061ffff02191690556002016020816001010492830192600103026200b0df565b505b5090506200b12091906200b4a1565b5090565b82805482825590600052602060002090600f016010900481019282156200b1c25791602002820160005b838211156200b19057835183826101000a81548161ffff021916908361ffff16021790555092602001926002016020816001010492830192600103026200b14e565b80156200b1c05782816101000a81549061ffff02191690556002016020816001010492830192600103026200b190565b505b5090506200b1d191906200b4a1565b5090565b82805482825590600052602060002090600f016010900481019282156200b2735791602002820160005b838211156200b24157835183826101000a81548161ffff021916908361ffff16021790555092602001926002016020816001010492830192600103026200b1ff565b80156200b2715782816101000a81549061ffff02191690556002016020816001010492830192600103026200b241565b505b5090506200b28291906200b4a1565b5090565b82805482825590600052602060002090600f016010900481019282156200b3245791602002820160005b838211156200b2f257835183826101000a81548161ffff021916908361ffff16021790555092602001926002016020816001010492830192600103026200b2b0565b80156200b3225782816101000a81549061ffff02191690556002016020816001010492830192600103026200b2f2565b505b5090506200b33391906200b4a1565b5090565b82805482825590600052602060002090600f016010900481019282156200b3d55791602002820160005b838211156200b3a357835183826101000a81548161ffff021916908361ffff16021790555092602001926002016020816001010492830192600103026200b361565b80156200b3d35782816101000a81549061ffff02191690556002016020816001010492830192600103026200b3a3565b505b5090506200b3e491906200b4a1565b5090565b8280546200b3f6906200b506565b90600052602060002090601f0160209004810192826200b41a57600085556200b466565b82601f106200b43557805160ff19168380011785556200b466565b828001600101855582156200b466579182015b828111156200b4655782518255916020019190600101906200b448565b5b5090506200b47591906200b4a1565b5090565b5b808211156200b49d57600081816200b49391906200b4c0565b506001016200b47a565b5090565b5b808211156200b4bc5760008160009055506001016200b4a2565b5090565b5080546200b4ce906200b506565b6000825580601f106200b4e257506200b503565b601f0160209004906000526020600020908101906200b50291906200b4a1565b5b50565b600060028204905060018216806200b51f57607f821691505b602082108114156200b536576200b5356200b53c565b5b50919050565b7f4e487b7100000000000000000000000000000000000000000000000000000000600052602260045260246000fd5b614803806200b57b6000396000f3fe608060405234801561001057600080fd5b506004361061004c5760003560e01c8063342f01a71461005157806386543ded1461008157806387024e55146100b1578063bd5b396a146100e1575b600080fd5b61006b60048036038101906100669190613932565b610111565b6040516100789190613f93565b60405180910390f35b61009b60048036038101906100969190613875565b610273565b6040516100a89190613f77565b60405180910390f35b6100cb60048036038101906100c6919061389f565b6107d4565b6040516100d89190613faf565b60405180910390f35b6100fb60048036038101906100f6919061384b565b610910565b6040516101089190613f77565b60405180910390f35b61011961365f565b6000604051806101200160405280600060ff168152602001600860ff168152602001601060ff168152602001601860ff168152602001602060ff168152602001602860ff168152602001603060ff168152602001603860ff168152602001604060ff16815250905061018961365f565b6000858560405160200161019e929190613fd1565b6040516020818303038152906040528051906020012060001c905060005b60098110156102665760ff8016848260098110610202577f4e487b7100000000000000000000000000000000000000000000000000000000600052603260045260246000fd5b602002015160ff1683901c1660ff1683826009811061024a577f4e487b7100000000000000000000000000000000000000000000000000000000600052603260045260246000fd5b602002018181525050808061025e906143b1565b9150506101bc565b5081935050505092915050565b61027b613682565b610283613682565b60005b6024805490508161ffff1610156103af5760248161ffff16815481106102d5577f4e487b7100000000000000000000000000000000000000000000000000000000600052603260045260246000fd5b90600052602060002090601091828204019190066002029054906101000a900461ffff1661ffff1684600061ffff166009811061033b577f4e487b7100000000000000000000000000000000000000000000000000000000600052603260045260246000fd5b60200201511161039c578082600061ffff1660098110610384577f4e487b7100000000000000000000000000000000000000000000000000000000600052603260045260246000fd5b602002019061ffff16908161ffff16815250506103af565b80806103a790614386565b915050610286565b5060005b6025805490508161ffff1610156104dc5760258161ffff1681548110610402577f4e487b7100000000000000000000000000000000000000000000000000000000600052603260045260246000fd5b90600052602060002090601091828204019190066002029054906101000a900461ffff1661ffff1684600161ffff1660098110610468577f4e487b7100000000000000000000000000000000000000000000000000000000600052603260045260246000fd5b6020020151116104c9578082600161ffff16600981106104b1577f4e487b7100000000000000000000000000000000000000000000000000000000600052603260045260246000fd5b602002019061ffff16908161ffff16815250506104dc565b80806104d490614386565b9150506103b3565b506000600261ffff1690505b60098110156107ca57600082600161ffff1660098110610531577f4e487b7100000000000000000000000000000000000000000000000000000000600052603260045260246000fd5b602002015161ffff1690506000600261ffff168361054f9190614295565b905061ffff84846009811061058d577f4e487b7100000000000000000000000000000000000000000000000000000000600052603260045260246000fd5b602002019061ffff16908161ffff168152505060005b602683600381106105dd577f4e487b7100000000000000000000000000000000000000000000000000000000600052603260045260246000fd5b600902018261ffff166009811061061d577f4e487b7100000000000000000000000000000000000000000000000000000000600052603260045260246000fd5b01805490508161ffff1610156107b45760268360038110610667577f4e487b7100000000000000000000000000000000000000000000000000000000600052603260045260246000fd5b600902018261ffff16600981106106a7577f4e487b7100000000000000000000000000000000000000000000000000000000600052603260045260246000fd5b018161ffff16815481106106e4577f4e487b7100000000000000000000000000000000000000000000000000000000600052603260045260246000fd5b90600052602060002090601091828204019190066002029054906101000a900461ffff1661ffff16878560098110610745577f4e487b7100000000000000000000000000000000000000000000000000000000600052603260045260246000fd5b6020020151116107a15780858560098110610789577f4e487b7100000000000000000000000000000000000000000000000000000000600052603260045260246000fd5b602002019061ffff16908161ffff16815250506107b4565b80806107ac90614386565b9150506105a3565b50505080806107c2906143b1565b9150506104e8565b5080915050919050565b60606040516020016107e590613f62565b604051602081830303815290604052805190602001208460405160200161080c9190613e8a565b6040516020818303038152906040528051906020012014156108535761083185612f68565b6040516020016108419190613f40565b60405160208183030381529060405293505b600061085f8487610111565b9050600061086c82610273565b905061087781610910565b905060008660405160200161088c9190613ee6565b6040516020818303038152906040529050806108a783613115565b866108b18b612f68565b6040516020016108c49493929190613e15565b604051602081830303815290604052905060006108e082613385565b6040516020016108f09190613f1e565b604051602081830303815290604052905080945050505050949350505050565b610918613682565b6000829050600181600161ffff166009811061095d577f4e487b7100000000000000000000000000000000000000000000000000000000600052603260045260246000fd5b602002015161ffff16148015610aac5750602d81600361ffff16600981106109ae577f4e487b7100000000000000000000000000000000000000000000000000000000600052603260045260246000fd5b602002015161ffff161480610a095750601a81600361ffff16600981106109fe577f4e487b7100000000000000000000000000000000000000000000000000000000600052603260045260246000fd5b602002015161ffff16145b80610a5a5750600081600361ffff1660098110610a4f577f4e487b7100000000000000000000000000000000000000000000000000000000600052603260045260246000fd5b602002015161ffff16145b80610aab5750603281600361ffff1660098110610aa0577f4e487b7100000000000000000000000000000000000000000000000000000000600052603260045260246000fd5b602002015161ffff16145b5b80610ba05750600281600161ffff1660098110610af2577f4e487b7100000000000000000000000000000000000000000000000000000000600052603260045260246000fd5b602002015161ffff16148015610b9f5750600281600361ffff1660098110610b43577f4e487b7100000000000000000000000000000000000000000000000000000000600052603260045260246000fd5b602002015161ffff161480610b9e5750600981600361ffff1660098110610b93577f4e487b7100000000000000000000000000000000000000000000000000000000600052603260045260246000fd5b602002015161ffff16145b5b5b1561112c5761ffff81600761ffff1660098110610be6577f4e487b7100000000000000000000000000000000000000000000000000000000600052603260045260246000fd5b602002019061ffff16908161ffff168152505061ffff81600261ffff1660098110610c3a577f4e487b7100000000000000000000000000000000000000000000000000000000600052603260045260246000fd5b602002019061ffff16908161ffff1681525050600081600661ffff1660098110610c8d577f4e487b7100000000000000000000000000000000000000000000000000000000600052603260045260246000fd5b602002015161ffff161415610cff57600181600661ffff1660098110610cdc577f4e487b7100000000000000000000000000000000000000000000000000000000600052603260045260246000fd5b60200201818151610ced9190614148565b91509061ffff16908161ffff16815250505b600b81600661ffff1660098110610d3f577f4e487b7100000000000000000000000000000000000000000000000000000000600052603260045260246000fd5b602002015161ffff161415610db157600181600661ffff1660098110610d8e577f4e487b7100000000000000000000000000000000000000000000000000000000600052603260045260246000fd5b60200201818151610d9f9190614148565b91509061ffff16908161ffff16815250505b600d81600661ffff1660098110610df1577f4e487b7100000000000000000000000000000000000000000000000000000000600052603260045260246000fd5b602002015161ffff161415610e6357600181600661ffff1660098110610e40577f4e487b7100000000000000000000000000000000000000000000000000000000600052603260045260246000fd5b60200201818151610e519190614261565b91509061ffff16908161ffff16815250505b600e81600661ffff1660098110610ea3577f4e487b7100000000000000000000000000000000000000000000000000000000600052603260045260246000fd5b602002015161ffff161415610f1557600181600661ffff1660098110610ef2577f4e487b7100000000000000000000000000000000000000000000000000000000600052603260045260246000fd5b60200201818151610f039190614148565b91509061ffff16908161ffff16815250505b601081600661ffff1660098110610f55577f4e487b7100000000000000000000000000000000000000000000000000000000600052603260045260246000fd5b602002015161ffff161415610fc757600281600661ffff1660098110610fa4577f4e487b7100000000000000000000000000000000000000000000000000000000600052603260045260246000fd5b60200201818151610fb59190614148565b91509061ffff16908161ffff16815250505b601381600661ffff1660098110611007577f4e487b7100000000000000000000000000000000000000000000000000000000600052603260045260246000fd5b602002015161ffff16141561107957600181600661ffff1660098110611056577f4e487b7100000000000000000000000000000000000000000000000000000000600052603260045260246000fd5b602002018181516110679190614148565b91509061ffff16908161ffff16815250505b601781600661ffff16600981106110b9577f4e487b7100000000000000000000000000000000000000000000000000000000600052603260045260246000fd5b602002015161ffff16141561112b57600181600661ffff1660098110611108577f4e487b7100000000000000000000000000000000000000000000000000000000600052603260045260246000fd5b602002018181516111199190614148565b91509061ffff16908161ffff16815250505b5b600281600161ffff166009811061116c577f4e487b7100000000000000000000000000000000000000000000000000000000600052603260045260246000fd5b602002015161ffff161480156112195750600281600361ffff16600981106111bd577f4e487b7100000000000000000000000000000000000000000000000000000000600052603260045260246000fd5b602002015161ffff1614806112185750600981600361ffff166009811061120d577f4e487b7100000000000000000000000000000000000000000000000000000000600052603260045260246000fd5b602002015161ffff16145b5b80156112bc5750600081600461ffff1660098110611260577f4e487b7100000000000000000000000000000000000000000000000000000000600052603260045260246000fd5b602002015161ffff1614806112bb5750600281600461ffff16600981106112b0577f4e487b7100000000000000000000000000000000000000000000000000000000600052603260045260246000fd5b602002015161ffff16145b5b156113165761ffff81600461ffff1660098110611302577f4e487b7100000000000000000000000000000000000000000000000000000000600052603260045260246000fd5b602002019061ffff16908161ffff16815250505b600081600661ffff1660098110611356577f4e487b7100000000000000000000000000000000000000000000000000000000600052603260045260246000fd5b602002015161ffff1614806113b15750600b81600661ffff16600981106113a6577f4e487b7100000000000000000000000000000000000000000000000000000000600052603260045260246000fd5b602002015161ffff16145b806114025750600d81600661ffff16600981106113f7577f4e487b7100000000000000000000000000000000000000000000000000000000600052603260045260246000fd5b602002015161ffff16145b806114535750600e81600661ffff1660098110611448577f4e487b7100000000000000000000000000000000000000000000000000000000600052603260045260246000fd5b602002015161ffff16145b806114a45750601081600661ffff1660098110611499577f4e487b7100000000000000000000000000000000000000000000000000000000600052603260045260246000fd5b602002015161ffff16145b806114f55750601381600661ffff16600981106114ea577f4e487b7100000000000000000000000000000000000000000000000000000000600052603260045260246000fd5b602002015161ffff16145b156115a35761ffff81600761ffff166009811061153b577f4e487b7100000000000000000000000000000000000000000000000000000000600052603260045260246000fd5b602002019061ffff16908161ffff168152505061ffff81600261ffff166009811061158f577f4e487b7100000000000000000000000000000000000000000000000000000000600052603260045260246000fd5b602002019061ffff16908161ffff16815250505b600581600661ffff16600981106115e3577f4e487b7100000000000000000000000000000000000000000000000000000000600052603260045260246000fd5b602002015161ffff16148061163e5750602181600661ffff1660098110611633577f4e487b7100000000000000000000000000000000000000000000000000000000600052603260045260246000fd5b602002015161ffff16145b156116985761ffff81600761ffff1660098110611684577f4e487b7100000000000000000000000000000000000000000000000000000000600052603260045260246000fd5b602002019061ffff16908161ffff16815250505b600181600161ffff16600981106116d8577f4e487b7100000000000000000000000000000000000000000000000000000000600052603260045260246000fd5b602002015161ffff161480156118cc5750602d81600361ffff1660098110611729577f4e487b7100000000000000000000000000000000000000000000000000000000600052603260045260246000fd5b602002015161ffff1614806117845750601a81600361ffff1660098110611779577f4e487b7100000000000000000000000000000000000000000000000000000000600052603260045260246000fd5b602002015161ffff16145b806117d55750600081600361ffff16600981106117ca577f4e487b7100000000000000000000000000000000000000000000000000000000600052603260045260246000fd5b602002015161ffff16145b806118265750603281600361ffff166009811061181b577f4e487b7100000000000000000000000000000000000000000000000000000000600052603260045260246000fd5b602002015161ffff16145b806118cb5750603681600361ffff166009811061186c577f4e487b7100000000000000000000000000000000000000000000000000000000600052603260045260246000fd5b602002015161ffff16101580156118ca5750603d81600361ffff16600981106118be577f4e487b7100000000000000000000000000000000000000000000000000000000600052603260045260246000fd5b602002015161ffff1611155b5b5b806119c05750600281600161ffff1660098110611912577f4e487b7100000000000000000000000000000000000000000000000000000000600052603260045260246000fd5b602002015161ffff161480156119bf5750600281600361ffff1660098110611963577f4e487b7100000000000000000000000000000000000000000000000000000000600052603260045260246000fd5b602002015161ffff1614806119be5750600981600361ffff16600981106119b3577f4e487b7100000000000000000000000000000000000000000000000000000000600052603260045260246000fd5b602002015161ffff16145b5b5b15611df257600a81600661ffff1660098110611a05577f4e487b7100000000000000000000000000000000000000000000000000000000600052603260045260246000fd5b602002015161ffff161415611a7757600181600661ffff1660098110611a54577f4e487b7100000000000000000000000000000000000000000000000000000000600052603260045260246000fd5b60200201818151611a659190614261565b91509061ffff16908161ffff16815250505b602381600661ffff1660098110611ab7577f4e487b7100000000000000000000000000000000000000000000000000000000600052603260045260246000fd5b602002015161ffff161415611b2957600181600661ffff1660098110611b06577f4e487b7100000000000000000000000000000000000000000000000000000000600052603260045260246000fd5b60200201818151611b179190614261565b91509061ffff16908161ffff16815250505b601881600661ffff1660098110611b69577f4e487b7100000000000000000000000000000000000000000000000000000000600052603260045260246000fd5b602002015161ffff161415611bdb57600181600661ffff1660098110611bb8577f4e487b7100000000000000000000000000000000000000000000000000000000600052603260045260246000fd5b60200201818151611bc99190614261565b91509061ffff16908161ffff16815250505b601981600661ffff1660098110611c1b577f4e487b7100000000000000000000000000000000000000000000000000000000600052603260045260246000fd5b602002015161ffff161415611c8d57600281600661ffff1660098110611c6a577f4e487b7100000000000000000000000000000000000000000000000000000000600052603260045260246000fd5b60200201818151611c7b9190614148565b91509061ffff16908161ffff16815250505b601a81600661ffff1660098110611ccd577f4e487b7100000000000000000000000000000000000000000000000000000000600052603260045260246000fd5b602002015161ffff161415611d3f57600181600661ffff1660098110611d1c577f4e487b7100000000000000000000000000000000000000000000000000000000600052603260045260246000fd5b60200201818151611d2d9190614148565b91509061ffff16908161ffff16815250505b601481600661ffff1660098110611d7f577f4e487b7100000000000000000000000000000000000000000000000000000000600052603260045260246000fd5b602002015161ffff161415611df157600181600661ffff1660098110611dce577f4e487b7100000000000000000000000000000000000000000000000000000000600052603260045260246000fd5b60200201818151611ddf9190614148565b91509061ffff16908161ffff16815250505b5b600181600161ffff1660098110611e32577f4e487b7100000000000000000000000000000000000000000000000000000000600052603260045260246000fd5b602002015161ffff16148015611f305750603381600361ffff1660098110611e83577f4e487b7100000000000000000000000000000000000000000000000000000000600052603260045260246000fd5b602002015161ffff161480611ede5750603481600361ffff1660098110611ed3577f4e487b7100000000000000000000000000000000000000000000000000000000600052603260045260246000fd5b602002015161ffff16145b80611f2f5750603581600361ffff1660098110611f24577f4e487b7100000000000000000000000000000000000000000000000000000000600052603260045260246000fd5b602002015161ffff16145b5b156122b057600281600661ffff1660098110611f75577f4e487b7100000000000000000000000000000000000000000000000000000000600052603260045260246000fd5b602002015161ffff161415611fe757600181600661ffff1660098110611fc4577f4e487b7100000000000000000000000000000000000000000000000000000000600052603260045260246000fd5b60200201818151611fd59190614261565b91509061ffff16908161ffff16815250505b601181600661ffff1660098110612027577f4e487b7100000000000000000000000000000000000000000000000000000000600052603260045260246000fd5b602002015161ffff16141561209957600181600661ffff1660098110612076577f4e487b7100000000000000000000000000000000000000000000000000000000600052603260045260246000fd5b602002018181516120879190614261565b91509061ffff16908161ffff16815250505b601281600661ffff16600981106120d9577f4e487b7100000000000000000000000000000000000000000000000000000000600052603260045260246000fd5b602002015161ffff16141561214b57600181600661ffff1660098110612128577f4e487b7100000000000000000000000000000000000000000000000000000000600052603260045260246000fd5b602002018181516121399190614148565b91509061ffff16908161ffff16815250505b601681600661ffff166009811061218b577f4e487b7100000000000000000000000000000000000000000000000000000000600052603260045260246000fd5b602002015161ffff1614156121fd57600181600661ffff16600981106121da577f4e487b7100000000000000000000000000000000000000000000000000000000600052603260045260246000fd5b602002018181516121eb9190614261565b91509061ffff16908161ffff16815250505b601781600661ffff166009811061223d577f4e487b7100000000000000000000000000000000000000000000000000000000600052603260045260246000fd5b602002015161ffff1614156122af57600181600661ffff166009811061228c577f4e487b7100000000000000000000000000000000000000000000000000000000600052603260045260246000fd5b6020020181815161229d9190614148565b91509061ffff16908161ffff16815250505b5b600181600161ffff16600981106122f0577f4e487b7100000000000000000000000000000000000000000000000000000000600052603260045260246000fd5b602002015161ffff161480156124e45750601381600361ffff1660098110612341577f4e487b7100000000000000000000000000000000000000000000000000000000600052603260045260246000fd5b602002015161ffff16148061239c5750601e81600361ffff1660098110612391577f4e487b7100000000000000000000000000000000000000000000000000000000600052603260045260246000fd5b602002015161ffff16145b806124415750603681600361ffff16600981106123e2577f4e487b7100000000000000000000000000000000000000000000000000000000600052603260045260246000fd5b602002015161ffff16101580156124405750603d81600361ffff1660098110612434577f4e487b7100000000000000000000000000000000000000000000000000000000600052603260045260246000fd5b602002015161ffff1611155b5b806124925750601081600361ffff1660098110612487577f4e487b7100000000000000000000000000000000000000000000000000000000600052603260045260246000fd5b602002015161ffff16145b806124e35750602181600361ffff16600981106124d8577f4e487b7100000000000000000000000000000000000000000000000000000000600052603260045260246000fd5b602002015161ffff16145b5b80156125875750600e81600661ffff166009811061252b577f4e487b7100000000000000000000000000000000000000000000000000000000600052603260045260246000fd5b602002015161ffff1614806125865750601081600661ffff166009811061257b577f4e487b7100000000000000000000000000000000000000000000000000000000600052603260045260246000fd5b602002015161ffff16145b5b156125ef57600181600661ffff16600981106125cc577f4e487b7100000000000000000000000000000000000000000000000000000000600052603260045260246000fd5b602002018181516125dd9190614261565b91509061ffff16908161ffff16815250505b600181600161ffff166009811061262f577f4e487b7100000000000000000000000000000000000000000000000000000000600052603260045260246000fd5b602002015161ffff161480156126dc5750601381600361ffff1660098110612680577f4e487b7100000000000000000000000000000000000000000000000000000000600052603260045260246000fd5b602002015161ffff1614806126db5750601e81600361ffff16600981106126d0577f4e487b7100000000000000000000000000000000000000000000000000000000600052603260045260246000fd5b602002015161ffff16145b5b156127365761ffff81600761ffff1660098110612722577f4e487b7100000000000000000000000000000000000000000000000000000000600052603260045260246000fd5b602002019061ffff16908161ffff16815250505b600081600161ffff1660098110612776577f4e487b7100000000000000000000000000000000000000000000000000000000600052603260045260246000fd5b602002015161ffff161480156127d25750600081600661ffff16600981106127c7577f4e487b7100000000000000000000000000000000000000000000000000000000600052603260045260246000fd5b602002015161ffff16145b80156128245750600a81600561ffff1660098110612819577f4e487b7100000000000000000000000000000000000000000000000000000000600052603260045260246000fd5b602002015161ffff16145b1561288c57600181600561ffff1660098110612869577f4e487b7100000000000000000000000000000000000000000000000000000000600052603260045260246000fd5b6020020181815161287a9190614261565b91509061ffff16908161ffff16815250505b600081600161ffff16600981106128cc577f4e487b7100000000000000000000000000000000000000000000000000000000600052603260045260246000fd5b602002015161ffff161480156129285750600081600661ffff166009811061291d577f4e487b7100000000000000000000000000000000000000000000000000000000600052603260045260246000fd5b602002015161ffff16145b801561297a5750600b81600561ffff166009811061296f577f4e487b7100000000000000000000000000000000000000000000000000000000600052603260045260246000fd5b602002015161ffff16145b156129e257600181600561ffff16600981106129bf577f4e487b7100000000000000000000000000000000000000000000000000000000600052603260045260246000fd5b602002018181516129d09190614148565b91509061ffff16908161ffff16815250505b600181600161ffff1660098110612a22577f4e487b7100000000000000000000000000000000000000000000000000000000600052603260045260246000fd5b602002015161ffff16148015612acf5750601081600361ffff1660098110612a73577f4e487b7100000000000000000000000000000000000000000000000000000000600052603260045260246000fd5b602002015161ffff161480612ace5750602181600361ffff1660098110612ac3577f4e487b7100000000000000000000000000000000000000000000000000000000600052603260045260246000fd5b602002015161ffff16145b5b8015612b725750600581600661ffff1660098110612b16577f4e487b7100000000000000000000000000000000000000000000000000000000600052603260045260246000fd5b602002015161ffff161480612b715750602181600661ffff1660098110612b66577f4e487b7100000000000000000000000000000000000000000000000000000000600052603260045260246000fd5b602002015161ffff16145b5b15612bda57600181600661ffff1660098110612bb7577f4e487b7100000000000000000000000000000000000000000000000000000000600052603260045260246000fd5b60200201818151612bc89190614261565b91509061ffff16908161ffff16815250505b600181600161ffff1660098110612c1a577f4e487b7100000000000000000000000000000000000000000000000000000000600052603260045260246000fd5b602002015161ffff16148015612c775750603681600361ffff1660098110612c6b577f4e487b7100000000000000000000000000000000000000000000000000000000600052603260045260246000fd5b602002015161ffff1610155b8015612cca5750603d81600361ffff1660098110612cbe577f4e487b7100000000000000000000000000000000000000000000000000000000600052603260045260246000fd5b602002015161ffff1611155b8015612dbe5750600481600761ffff1660098110612d11577f4e487b7100000000000000000000000000000000000000000000000000000000600052603260045260246000fd5b602002015161ffff161480612d6c5750600a81600761ffff1660098110612d61577f4e487b7100000000000000000000000000000000000000000000000000000000600052603260045260246000fd5b602002015161ffff16145b80612dbd5750600b81600761ffff1660098110612db2577f4e487b7100000000000000000000000000000000000000000000000000000000600052603260045260246000fd5b602002015161ffff16145b5b15612e185761ffff81600761ffff1660098110612e04577f4e487b7100000000000000000000000000000000000000000000000000000000600052603260045260246000fd5b602002019061ffff16908161ffff16815250505b600181600161ffff1660098110612e58577f4e487b7100000000000000000000000000000000000000000000000000000000600052603260045260246000fd5b602002015161ffff16148015612f055750601081600361ffff1660098110612ea9577f4e487b7100000000000000000000000000000000000000000000000000000000600052603260045260246000fd5b602002015161ffff161480612f045750602181600361ffff1660098110612ef9577f4e487b7100000000000000000000000000000000000000000000000000000000600052603260045260246000fd5b602002015161ffff16145b5b15612f5f5761ffff81600761ffff1660098110612f4b577f4e487b7100000000000000000000000000000000000000000000000000000000600052603260045260246000fd5b602002019061ffff16908161ffff16815250505b80915050919050565b60606000821415612fb0576040518060400160405280600181526020017f30000000000000000000000000000000000000000000000000000000000000008152509050613110565b600082905060005b60008214612fe2578080612fcb906143b1565b915050600a82612fdb91906141d6565b9150612fb8565b60008167ffffffffffffffff811115613024577f4e487b7100000000000000000000000000000000000000000000000000000000600052604160045260246000fd5b6040519080825280601f01601f1916602001820160405280156130565781602001600182028036833780820191505090505b5090505b600085146131095760018261306f9190614295565b9150600a8561307e91906143fa565b603061308a9190614180565b60f81b8183815181106130c6577f4e487b7100000000000000000000000000000000000000000000000000000000600052603260045260246000fd5b60200101907effffffffffffffffffffffffffffffffffffffffffffffffffffffffffffff1916908160001a905350600a8561310291906141d6565b945061305a565b8093505050505b919050565b606060006040518060400160405280600f81526020017f2261747472696275746573223a205b0000000000000000000000000000000000815250905060005b60098161ffff16101561335957600161ffff168161ffff16141561317757613346565b61ffff8016848261ffff16600981106131b9577f4e487b7100000000000000000000000000000000000000000000000000000000600052603260045260246000fd5b602002015161ffff1614156131cd57613346565b600061ffff168161ffff161415613294578161326d82868461ffff1660098110613220577f4e487b7100000000000000000000000000000000000000000000000000000000600052603260045260246000fd5b602002015187600161ffff1660098110613263577f4e487b7100000000000000000000000000000000000000000000000000000000600052603260045260246000fd5b6020020151613530565b60405160200161327e929190613da0565b6040516020818303038152906040529150613346565b8161332382868461ffff16600981106132d6577f4e487b7100000000000000000000000000000000000000000000000000000000600052603260045260246000fd5b602002015187600161ffff1660098110613319577f4e487b7100000000000000000000000000000000000000000000000000000000600052603260045260246000fd5b6020020151613530565b604051602001613334929190613dc4565b60405160208183030381529060405291505b808061335190614386565b915050613154565b508060405160200161336b9190613df3565b604051602081830303815290604052905080915050919050565b60606000825114156133a85760405180602001604052806000815250905061352b565b600060405180606001604052806040815260200161478e60409139905060006003600285516133d79190614180565b6133e191906141d6565b60046133ed9190614207565b905060006020826133fe9190614180565b67ffffffffffffffff81111561343d577f4e487b7100000000000000000000000000000000000000000000000000000000600052604160045260246000fd5b6040519080825280601f01601f19166020018201604052801561346f5781602001600182028036833780820191505090505b509050818152600183018586518101602084015b818310156134ea576003830192508251603f8160121c1685015160f81b8252600182019150603f81600c1c1685015160f81b8252600182019150603f8160061c1685015160f81b8252600182019150603f811685015160f81b825260018201915050613483565b60038951066001811461350457600281146135145761351f565b613d3d60f01b600283035261351f565b603d60f81b60018303525b50505050508093505050505b919050565b606060008461ffff1660098110613570577f4e487b7100000000000000000000000000000000000000000000000000000000600052603260045260246000fd5b0160098361ffff16600381106135af577f4e487b7100000000000000000000000000000000000000000000000000000000600052603260045260246000fd5b600902018561ffff16600981106135ef577f4e487b7100000000000000000000000000000000000000000000000000000000600052603260045260246000fd5b018461ffff168154811061362c577f4e487b7100000000000000000000000000000000000000000000000000000000600052603260045260246000fd5b90600052602060002001604051602001613647929190613ea1565b60405160208183030381529060405290509392505050565b604051806101200160405280600990602082028036833780820191505090505090565b604051806101200160405280600990602082028036833780820191505090505090565b60006136b86136b38461401f565b613ffa565b905080828560208602820111156136ce57600080fd5b60005b858110156136fe57816136e48882613821565b8452602084019350602083019250506001810190506136d1565b5050509392505050565b600061371b61371684614045565b613ffa565b9050808285602086028201111561373157600080fd5b60005b8581101561376157816137478882613836565b845260208401935060208301925050600181019050613734565b5050509392505050565b600061377e6137798461406b565b613ffa565b90508281526020810184848401111561379657600080fd5b6137a18482856142e1565b509392505050565b600082601f8301126137ba57600080fd5b60096137c78482856136a5565b91505092915050565b600082601f8301126137e157600080fd5b60096137ee848285613708565b91505092915050565b600082601f83011261380857600080fd5b813561381884826020860161376b565b91505092915050565b6000813590506138308161475f565b92915050565b60008135905061384581614776565b92915050565b6000610120828403121561385e57600080fd5b600061386c848285016137a9565b91505092915050565b6000610120828403121561388857600080fd5b6000613896848285016137d0565b91505092915050565b600080600080608085870312156138b557600080fd5b60006138c387828801613836565b945050602085013567ffffffffffffffff8111156138e057600080fd5b6138ec878288016137f7565b93505060406138fd87828801613836565b925050606085013567ffffffffffffffff81111561391a57600080fd5b613926878288016137f7565b91505092959194509250565b6000806040838503121561394557600080fd5b600061395385828601613836565b925050602061396485828601613836565b9150509250929050565b600061397a8383613d73565b60208301905092915050565b60006139928383613d82565b60208301905092915050565b6139a7816140c5565b6139b1818461410b565b92506139bc8261409c565b8060005b838110156139ed5781516139d4878261396e565b96506139df836140f1565b9250506001810190506139c0565b505050505050565b6139fe816140d0565b613a088184614116565b9250613a13826140a6565b8060005b83811015613a44578151613a2b8782613986565b9650613a36836140fe565b925050600181019050613a17565b505050505050565b6000613a57826140db565b613a618185614121565b9350613a718185602086016142f0565b80840191505092915050565b6000613a88826140e6565b613a92818561412c565b9350613aa28185602086016142f0565b613aab816144e7565b840191505092915050565b6000613ac1826140e6565b613acb818561413d565b9350613adb8185602086016142f0565b80840191505092915050565b60008154613af481614323565b613afe818661413d565b94506001821660008114613b195760018114613b2a57613b5d565b60ff19831686528186019350613b5d565b613b33856140b0565b60005b83811015613b5557815481890152600182019150602081019050613b36565b838801955050505b50505092915050565b6000613b7360108361413d565b9150613b7e826144f8565b601082019050919050565b6000613b9660018361413d565b9150613ba182614521565b600182019050919050565b6000613bb9600d8361413d565b9150613bc48261454a565b600d82019050919050565b6000613bdc60018361413d565b9150613be782614573565b600182019050919050565b6000613bff60028361413d565b9150613c0a8261459c565b600282019050919050565b6000613c2260018361413d565b9150613c2d826145c5565b600182019050919050565b6000613c45600a8361413d565b9150613c50826145ee565b600a82019050919050565b6000613c6860058361413d565b9150613c7382614617565b600582019050919050565b6000613c8b60018361413d565b9150613c9682614640565b600182019050919050565b6000613cae602c8361413d565b9150613cb982614669565b602c82019050919050565b6000613cd160028361413d565b9150613cdc826146b8565b600282019050919050565b6000613cf4601d8361413d565b9150613cff826146e1565b601d82019050919050565b6000613d17600b8361413d565b9150613d228261470a565b600b82019050919050565b6000613d3a60008361413d565b9150613d4582614733565b600082019050919050565b6000613d5d600a8361413d565b9150613d6882614736565b600a82019050919050565b613d7c816142c9565b82525050565b613d8b816142d7565b82525050565b613d9a816142d7565b82525050565b6000613dac8285613a4c565b9150613db88284613a4c565b91508190509392505050565b6000613dd08285613a4c565b9150613ddb82613b89565b9150613de78284613a4c565b91508190509392505050565b6000613dff8284613a4c565b9150613e0a82613c7e565b915081905092915050565b6000613e218287613a4c565b9150613e2c82613cc4565b9150613e388286613ab6565b9150613e4382613cc4565b9150613e4e82613d50565b9150613e5a8285613ab6565b9150613e668284613ab6565b9150613e7182613c5b565b9150613e7c82613c15565b915081905095945050505050565b6000613e968284613ab6565b915081905092915050565b6000613eac82613b66565b9150613eb88285613ae7565b9150613ec382613bac565b9150613ecf8284613ae7565b9150613eda82613bf2565b91508190509392505050565b6000613ef182613c38565b9150613efd8284613ab6565b9150613f0882613bcf565b9150613f1382613ca1565b915081905092915050565b6000613f2982613ce7565b9150613f358284613ab6565b915081905092915050565b6000613f4b82613d0a565b9150613f578284613ab6565b915081905092915050565b6000613f6d82613d2d565b9150819050919050565b600061012082019050613f8d600083018461399e565b92915050565b600061012082019050613fa960008301846139f5565b92915050565b60006020820190508181036000830152613fc98184613a7d565b905092915050565b6000604082019050613fe66000830185613d91565b613ff36020830184613d91565b9392505050565b6000614004614015565b90506140108282614355565b919050565b6000604051905090565b600067ffffffffffffffff82111561403a576140396144b8565b5b602082029050919050565b600067ffffffffffffffff8211156140605761405f6144b8565b5b602082029050919050565b600067ffffffffffffffff821115614086576140856144b8565b5b61408f826144e7565b9050602081019050919050565b6000819050919050565b6000819050919050565b60008190508160005260206000209050919050565b600060099050919050565b600060099050919050565b600081519050919050565b600081519050919050565b6000602082019050919050565b6000602082019050919050565b600081905092915050565b600081905092915050565b600081905092915050565b600082825260208201905092915050565b600081905092915050565b6000614153826142c9565b915061415e836142c9565b92508261ffff038211156141755761417461442b565b5b828201905092915050565b600061418b826142d7565b9150614196836142d7565b9250827fffffffffffffffffffffffffffffffffffffffffffffffffffffffffffffffff038211156141cb576141ca61442b565b5b828201905092915050565b60006141e1826142d7565b91506141ec836142d7565b9250826141fc576141fb61445a565b5b828204905092915050565b6000614212826142d7565b915061421d836142d7565b9250817fffffffffffffffffffffffffffffffffffffffffffffffffffffffffffffffff04831182151516156142565761425561442b565b5b828202905092915050565b600061426c826142c9565b9150614277836142c9565b92508282101561428a5761428961442b565b5b828203905092915050565b60006142a0826142d7565b91506142ab836142d7565b9250828210156142be576142bd61442b565b5b828203905092915050565b600061ffff82169050919050565b6000819050919050565b82818337600083830152505050565b60005b8381101561430e5780820151818401526020810190506142f3565b8381111561431d576000848401525b50505050565b6000600282049050600182168061433b57607f821691505b6020821081141561434f5761434e614489565b5b50919050565b61435e826144e7565b810181811067ffffffffffffffff8211171561437d5761437c6144b8565b5b80604052505050565b6000614391826142c9565b915061ffff8214156143a6576143a561442b565b5b600182019050919050565b60006143bc826142d7565b91507fffffffffffffffffffffffffffffffffffffffffffffffffffffffffffffffff8214156143ef576143ee61442b565b5b600182019050919050565b6000614405826142d7565b9150614410836142d7565b9250826144205761441f61445a565b5b828206905092915050565b7f4e487b7100000000000000000000000000000000000000000000000000000000600052601160045260246000fd5b7f4e487b7100000000000000000000000000000000000000000000000000000000600052601260045260246000fd5b7f4e487b7100000000000000000000000000000000000000000000000000000000600052602260045260246000fd5b7f4e487b7100000000000000000000000000000000000000000000000000000000600052604160045260246000fd5b6000601f19601f8301169050919050565b7f7b2274726169745f74797065223a202200000000000000000000000000000000600082015250565b7f2c00000000000000000000000000000000000000000000000000000000000000600082015250565b7f222c202276616c7565223a202200000000000000000000000000000000000000600082015250565b7f2200000000000000000000000000000000000000000000000000000000000000600082015250565b7f227d000000000000000000000000000000000000000000000000000000000000600082015250565b7f7d00000000000000000000000000000000000000000000000000000000000000600082015250565b7f7b226e616d65223a202200000000000000000000000000000000000000000000600082015250565b7f2e706e6722000000000000000000000000000000000000000000000000000000600082015250565b7f5d00000000000000000000000000000000000000000000000000000000000000600082015250565b7f2c20226465736372697074696f6e223a2022416e2041706520486172626f757260008201527f2053757065727961636874220000000000000000000000000000000000000000602082015250565b7f2c20000000000000000000000000000000000000000000000000000000000000600082015250565b7f646174613a6170706c69636174696f6e2f6a736f6e3b6261736536342c000000600082015250565b7f5375706572796163687420000000000000000000000000000000000000000000600082015250565b50565b7f22696d616765223a202200000000000000000000000000000000000000000000600082015250565b614768816142c9565b811461477357600080fd5b50565b61477f816142d7565b811461478a57600080fd5b5056fe4142434445464748494a4b4c4d4e4f505152535455565758595a6162636465666768696a6b6c6d6e6f707172737475767778797a303132333435363738392b2fa264697066735822122033275920b457baecad068b690664128468d683e1cae04e6250d939870d75716764736f6c63430008040033",
  "devdoc": {
    "kind": "dev",
    "methods": {},
    "version": 1
  },
  "userdoc": {
    "kind": "user",
    "methods": {},
    "version": 1
  },
  "storageLayout": {
    "storage": [
      {
        "astId": 2043,
        "contract": "contracts/NftDescriptor.sol:NftDescriptor",
        "label": "traitNames",
        "offset": 0,
        "slot": "0",
        "type": "t_array(t_string_storage)9_storage"
      },
      {
        "astId": 2050,
        "contract": "contracts/NftDescriptor.sol:NftDescriptor",
        "label": "traitValues",
        "offset": 0,
        "slot": "9",
        "type": "t_array(t_array(t_array(t_string_storage)dyn_storage)9_storage)3_storage"
      },
      {
        "astId": 2053,
        "contract": "contracts/NftDescriptor.sol:NftDescriptor",
        "label": "cutoffsBackground",
        "offset": 0,
        "slot": "36",
        "type": "t_array(t_uint16)dyn_storage"
      },
      {
        "astId": 2056,
        "contract": "contracts/NftDescriptor.sol:NftDescriptor",
        "label": "cutoffsType",
        "offset": 0,
        "slot": "37",
        "type": "t_array(t_uint16)dyn_storage"
      },
      {
        "astId": 2063,
        "contract": "contracts/NftDescriptor.sol:NftDescriptor",
        "label": "cutoffs",
        "offset": 0,
        "slot": "38",
        "type": "t_array(t_array(t_array(t_uint16)dyn_storage)9_storage)3_storage"
      }
    ],
    "types": {
      "t_array(t_array(t_array(t_string_storage)dyn_storage)9_storage)3_storage": {
        "base": "t_array(t_array(t_string_storage)dyn_storage)9_storage",
        "encoding": "inplace",
        "label": "string[][9][3]",
        "numberOfBytes": "864"
      },
      "t_array(t_array(t_array(t_uint16)dyn_storage)9_storage)3_storage": {
        "base": "t_array(t_array(t_uint16)dyn_storage)9_storage",
        "encoding": "inplace",
        "label": "uint16[][9][3]",
        "numberOfBytes": "864"
      },
      "t_array(t_array(t_string_storage)dyn_storage)9_storage": {
        "base": "t_array(t_string_storage)dyn_storage",
        "encoding": "inplace",
        "label": "string[][9]",
        "numberOfBytes": "288"
      },
      "t_array(t_array(t_uint16)dyn_storage)9_storage": {
        "base": "t_array(t_uint16)dyn_storage",
        "encoding": "inplace",
        "label": "uint16[][9]",
        "numberOfBytes": "288"
      },
      "t_array(t_string_storage)9_storage": {
        "base": "t_string_storage",
        "encoding": "inplace",
        "label": "string[9]",
        "numberOfBytes": "288"
      },
      "t_array(t_string_storage)dyn_storage": {
        "base": "t_string_storage",
        "encoding": "dynamic_array",
        "label": "string[]",
        "numberOfBytes": "32"
      },
      "t_array(t_uint16)dyn_storage": {
        "base": "t_uint16",
        "encoding": "dynamic_array",
        "label": "uint16[]",
        "numberOfBytes": "32"
      },
      "t_string_storage": {
        "encoding": "bytes",
        "label": "string",
        "numberOfBytes": "32"
      },
      "t_uint16": {
        "encoding": "inplace",
        "label": "uint16",
        "numberOfBytes": "2"
      }
    }
  }
}