{
  "_format": "hh-sol-artifact-1",
  "contractName": "SYClaiming",
  "sourceName": "contracts/SYClaiming.sol",
  "abi": [
    {
      "inputs": [
        {
          "internalType": "address",
          "name": "_ogYachts",
          "type": "address"
        },
        {
          "internalType": "address",
          "name": "_sportsYachts",
          "type": "address"
        }
      ],
      "stateMutability": "nonpayable",
      "type": "constructor"
    },
    {
      "inputs": [],
      "name": "GeneralClaimingActive",
      "type": "error"
    },
    {
      "inputs": [],
      "name": "GeneralClaimingStopped",
      "type": "error"
    },
    {
      "inputs": [
        {
          "internalType": "uint256",
          "name": "available",
          "type": "uint256"
        },
        {
          "internalType": "uint256",
          "name": "required",
          "type": "uint256"
        }
      ],
      "name": "InsufficientOgYachts",
      "type": "error"
    },
    {
      "inputs": [
        {
          "internalType": "uint256",
          "name": "available",
          "type": "uint256"
        },
        {
          "internalType": "uint256",
          "name": "required",
          "type": "uint256"
        }
      ],
      "name": "InsufficientSportsyachts",
      "type": "error"
    },
    {
      "inputs": [
        {
          "internalType": "uint256",
          "name": "suppliedId",
          "type": "uint256"
        }
      ],
      "name": "NonExistentSportsyachtId",
      "type": "error"
    },
    {
      "anonymous": false,
      "inputs": [],
      "name": "ClaimingStarted",
      "type": "event"
    },
    {
      "anonymous": false,
      "inputs": [],
      "name": "ClaimingStopped",
      "type": "event"
    },
    {
      "anonymous": false,
      "inputs": [
        {
          "indexed": true,
          "internalType": "address",
          "name": "previousOwner",
          "type": "address"
        },
        {
          "indexed": true,
          "internalType": "address",
          "name": "newOwner",
          "type": "address"
        }
      ],
      "name": "OwnershipTransferred",
      "type": "event"
    },
    {
      "inputs": [
        {
          "internalType": "uint256",
          "name": "_sportsYachtId",
          "type": "uint256"
        },
        {
          "internalType": "uint256[]",
          "name": "_ogYachts",
          "type": "uint256[]"
        }
      ],
      "name": "claim",
      "outputs": [],
      "stateMutability": "nonpayable",
      "type": "function"
    },
    {
      "inputs": [],
      "name": "claimAH",
      "outputs": [],
      "stateMutability": "nonpayable",
      "type": "function"
    },
    {
      "inputs": [],
      "name": "claimingActive",
      "outputs": [
        {
          "internalType": "bool",
          "name": "",
          "type": "bool"
        }
      ],
      "stateMutability": "view",
      "type": "function"
    },
    {
      "inputs": [],
      "name": "ogYachts",
      "outputs": [
        {
          "internalType": "contract IERC721",
          "name": "",
          "type": "address"
        }
      ],
      "stateMutability": "view",
      "type": "function"
    },
    {
      "inputs": [
        {
          "internalType": "address",
          "name": "operator",
          "type": "address"
        },
        {
          "internalType": "address",
          "name": "from",
          "type": "address"
        },
        {
          "internalType": "uint256[]",
          "name": "ids",
          "type": "uint256[]"
        },
        {
          "internalType": "uint256[]",
          "name": "values",
          "type": "uint256[]"
        },
        {
          "internalType": "bytes",
          "name": "data",
          "type": "bytes"
        }
      ],
      "name": "onERC1155BatchReceived",
      "outputs": [
        {
          "internalType": "bytes4",
          "name": "",
          "type": "bytes4"
        }
      ],
      "stateMutability": "nonpayable",
      "type": "function"
    },
    {
      "inputs": [
        {
          "internalType": "address",
          "name": "operator",
          "type": "address"
        },
        {
          "internalType": "address",
          "name": "from",
          "type": "address"
        },
        {
          "internalType": "uint256",
          "name": "id",
          "type": "uint256"
        },
        {
          "internalType": "uint256",
          "name": "value",
          "type": "uint256"
        },
        {
          "internalType": "bytes",
          "name": "data",
          "type": "bytes"
        }
      ],
      "name": "onERC1155Received",
      "outputs": [
        {
          "internalType": "bytes4",
          "name": "",
          "type": "bytes4"
        }
      ],
      "stateMutability": "pure",
      "type": "function"
    },
    {
      "inputs": [],
      "name": "owner",
      "outputs": [
        {
          "internalType": "address",
          "name": "",
          "type": "address"
        }
      ],
      "stateMutability": "view",
      "type": "function"
    },
    {
      "inputs": [],
      "name": "renounceOwnership",
      "outputs": [],
      "stateMutability": "nonpayable",
      "type": "function"
    },
    {
      "inputs": [],
      "name": "sportsYachts",
      "outputs": [
        {
          "internalType": "contract IERC1155",
          "name": "",
          "type": "address"
        }
      ],
      "stateMutability": "view",
      "type": "function"
    },
    {
      "inputs": [],
      "name": "startClaiming",
      "outputs": [],
      "stateMutability": "nonpayable",
      "type": "function"
    },
    {
      "inputs": [],
      "name": "stopClaiming",
      "outputs": [],
      "stateMutability": "nonpayable",
      "type": "function"
    },
    {
      "inputs": [
        {
          "internalType": "bytes4",
          "name": "interfaceId",
          "type": "bytes4"
        }
      ],
      "name": "supportsInterface",
      "outputs": [
        {
          "internalType": "bool",
          "name": "",
          "type": "bool"
        }
      ],
      "stateMutability": "view",
      "type": "function"
    },
    {
      "inputs": [
        {
          "internalType": "address",
          "name": "newOwner",
          "type": "address"
        }
      ],
      "name": "transferOwnership",
      "outputs": [],
      "stateMutability": "nonpayable",
      "type": "function"
    }
  ],
  "bytecode": "0x60c06040523480156200001157600080fd5b5060405162001e6938038062001e698339818101604052810190620000379190620002ef565b620000576200004b620001b960201b60201c565b620001c160201b60201c565b8073ffffffffffffffffffffffffffffffffffffffff1660a08173ffffffffffffffffffffffffffffffffffffffff16815250508173ffffffffffffffffffffffffffffffffffffffff1660808173ffffffffffffffffffffffffffffffffffffffff16815250506004600160007f50dc1047114f5f97eaa612bf1d67235d89a2ed9d0000000000000000008018028152602001908152602001600020819055506003600160007f50dc1047114f5f97eaa612bf1d67235d89a2ed9d0000000000000000008018018152602001908152602001600020819055506002600160007f50dc1047114f5f97eaa612bf1d67235d89a2ed9d0000000000000000008018008152602001908152602001600020819055506001600360006101000a81548160ff0219169083151502179055507f26240d96b75a51a1529395e869d3abdb2ef34328a279633ed295753179e89fdb60405160405180910390a1505062000336565b600033905090565b60008060009054906101000a900473ffffffffffffffffffffffffffffffffffffffff169050816000806101000a81548173ffffffffffffffffffffffffffffffffffffffff021916908373ffffffffffffffffffffffffffffffffffffffff1602179055508173ffffffffffffffffffffffffffffffffffffffff168173ffffffffffffffffffffffffffffffffffffffff167f8be0079c531659141344cd1fd0a4f28419497f9722a3daafe3b4186f6b6457e060405160405180910390a35050565b600080fd5b600073ffffffffffffffffffffffffffffffffffffffff82169050919050565b6000620002b7826200028a565b9050919050565b620002c981620002aa565b8114620002d557600080fd5b50565b600081519050620002e981620002be565b92915050565b6000806040838503121562000309576200030862000285565b5b60006200031985828601620002d8565b92505060206200032c85828601620002d8565b9150509250929050565b60805160a051611adc6200038d600039600081816104c9015281816106f7015281816107bf0152818161099101528181610a7601528181610b5b0152610c4001526000818161034f01526106380152611adc6000f3fe608060405234801561001057600080fd5b50600436106100cf5760003560e01c8063b1b666521161008c578063eae27a2411610066578063eae27a24146101dc578063f23a6e61146101e6578063f2fde38b14610216578063ff32fad114610232576100cf565b8063b1b6665214610172578063bc197c811461018e578063c82ff2e3146101be576100cf565b806301ffc9a7146100d457806347bd8b031461010457806360104b321461010e5780636ccd5e501461012c578063715018a61461014a5780638da5cb5b14610154575b600080fd5b6100ee60048036038101906100e9919061103e565b61023c565b6040516100fb9190611086565b60405180910390f35b61010c6102b6565b005b61011661034d565b6040516101239190611120565b60405180910390f35b610134610371565b6040516101419190611086565b60405180910390f35b610152610384565b005b61015c610398565b604051610169919061115c565b60405180910390f35b61018c60048036038101906101879190611306565b6103c1565b005b6101a860048036038101906101a3919061143f565b61078c565b6040516101b5919061152a565b60405180910390f35b6101c66107bd565b6040516101d39190611566565b60405180910390f35b6101e46107e1565b005b61020060048036038101906101fb9190611581565b610cd3565b60405161020d919061152a565b60405180910390f35b610230600480360381019061022b919061161b565b610d02565b005b61023a610d86565b005b60007f4e2312e0000000000000000000000000000000000000000000000000000000007bffffffffffffffffffffffffffffffffffffffffffffffffffffffff1916827bffffffffffffffffffffffffffffffffffffffffffffffffffffffff191614806102af57506102ae82610e1e565b5b9050919050565b6102be610e88565b600360009054906101000a900460ff16610304576040517fa4267ca200000000000000000000000000000000000000000000000000000000815260040160405180910390fd5b6000600360006101000a81548160ff0219169083151502179055507f5f127f084da8ded173adb12b86f10a8cb0ab814f5e2dbbf8bc6226c6e48954c860405160405180910390a1565b7f000000000000000000000000000000000000000000000000000000000000000081565b600360009054906101000a900460ff1681565b61038c610e88565b6103966000610f06565b565b60008060009054906101000a900473ffffffffffffffffffffffffffffffffffffffff16905090565b600360009054906101000a900460ff16610407576040517fa4267ca200000000000000000000000000000000000000000000000000000000815260040160405180910390fd5b7f50dc1047114f5f97eaa612bf1d67235d89a2ed9d000000000000000000801802821415801561045757507f50dc1047114f5f97eaa612bf1d67235d89a2ed9d0000000000000000008018018214155b801561048357507f50dc1047114f5f97eaa612bf1d67235d89a2ed9d0000000000000000008018008214155b156104c557816040517fe218eedb0000000000000000000000000000000000000000000000000000000081526004016104bc9190611657565b60405180910390fd5b60007f000000000000000000000000000000000000000000000000000000000000000073ffffffffffffffffffffffffffffffffffffffff1662fdd58e30856040518363ffffffff1660e01b8152600401610521929190611672565b60206040518083038186803b15801561053957600080fd5b505afa15801561054d573d6000803e3d6000fd5b505050506040513d601f19601f8201168201806040525081019061057191906116b0565b905060018110156105bc578060016040517feb9aa0660000000000000000000000000000000000000000000000000000000081526004016105b39291906116dd565b60405180910390fd5b600160008481526020019081526020016000205482511461062a57815160016000858152602001908152602001600020546040517f813d2d250000000000000000000000000000000000000000000000000000000081526004016106219291906116dd565b60405180910390fd5b60005b82518110156106f4577f000000000000000000000000000000000000000000000000000000000000000073ffffffffffffffffffffffffffffffffffffffff166323b872dd3361dead86858151811061068957610688611706565b5b60200260200101516040518463ffffffff1660e01b81526004016106af93929190611735565b600060405180830381600087803b1580156106c957600080fd5b505af11580156106dd573d6000803e3d6000fd5b5050505080806106ec9061179b565b91505061062d565b507f000000000000000000000000000000000000000000000000000000000000000073ffffffffffffffffffffffffffffffffffffffff1663f242432a30338660016040518563ffffffff1660e01b8152600401610755949392919061181b565b600060405180830381600087803b15801561076f57600080fd5b505af1158015610783573d6000803e3d6000fd5b50505050505050565b60007fbc197c819b3e337a6f9652dd10becd7eef83032af3b9d958d3d42f6694146621905098975050505050505050565b7f000000000000000000000000000000000000000000000000000000000000000081565b6107e9610e88565b600360009054906101000a900460ff1615610830576040517f9f2193a100000000000000000000000000000000000000000000000000000000815260040160405180910390fd5b6000600367ffffffffffffffff81111561084d5761084c6111c3565b5b60405190808252806020026020018201604052801561087b5781602001602082028036833780820191505090505b5090507f50dc1047114f5f97eaa612bf1d67235d89a2ed9d000000000000000000801802816000815181106108b3576108b2611706565b5b6020026020010181815250507f50dc1047114f5f97eaa612bf1d67235d89a2ed9d000000000000000000801801816001815181106108f4576108f3611706565b5b6020026020010181815250507f50dc1047114f5f97eaa612bf1d67235d89a2ed9d0000000000000000008018008160028151811061093557610934611706565b5b6020026020010181815250506000600367ffffffffffffffff81111561095e5761095d6111c3565b5b60405190808252806020026020018201604052801561098c5781602001602082028036833780820191505090505b5090507f000000000000000000000000000000000000000000000000000000000000000073ffffffffffffffffffffffffffffffffffffffff1662fdd58e30846000815181106109df576109de611706565b5b60200260200101516040518363ffffffff1660e01b8152600401610a04929190611672565b60206040518083038186803b158015610a1c57600080fd5b505afa158015610a30573d6000803e3d6000fd5b505050506040513d601f19601f82011682018060405250810190610a5491906116b0565b81600081518110610a6857610a67611706565b5b6020026020010181815250507f000000000000000000000000000000000000000000000000000000000000000073ffffffffffffffffffffffffffffffffffffffff1662fdd58e3084600181518110610ac457610ac3611706565b5b60200260200101516040518363ffffffff1660e01b8152600401610ae9929190611672565b60206040518083038186803b158015610b0157600080fd5b505afa158015610b15573d6000803e3d6000fd5b505050506040513d601f19601f82011682018060405250810190610b3991906116b0565b81600181518110610b4d57610b4c611706565b5b6020026020010181815250507f000000000000000000000000000000000000000000000000000000000000000073ffffffffffffffffffffffffffffffffffffffff1662fdd58e3084600281518110610ba957610ba8611706565b5b60200260200101516040518363ffffffff1660e01b8152600401610bce929190611672565b60206040518083038186803b158015610be657600080fd5b505afa158015610bfa573d6000803e3d6000fd5b505050506040513d601f19601f82011682018060405250810190610c1e91906116b0565b81600281518110610c3257610c31611706565b5b6020026020010181815250507f000000000000000000000000000000000000000000000000000000000000000073ffffffffffffffffffffffffffffffffffffffff16632eb2c2d6303385856040518563ffffffff1660e01b8152600401610c9d9493929190611931565b600060405180830381600087803b158015610cb757600080fd5b505af1158015610ccb573d6000803e3d6000fd5b505050505050565b60007ff23a6e612e1ff4830e658fe43f4e3cb4a5f8170bd5d9e69fb5d7a7fa9e4fdf9790509695505050505050565b610d0a610e88565b600073ffffffffffffffffffffffffffffffffffffffff168173ffffffffffffffffffffffffffffffffffffffff161415610d7a576040517f08c379a0000000000000000000000000000000000000000000000000000000008152600401610d7190611a1a565b60405180910390fd5b610d8381610f06565b50565b610d8e610e88565b600360009054906101000a900460ff1615610dd5576040517f9f2193a100000000000000000000000000000000000000000000000000000000815260040160405180910390fd5b6001600360006101000a81548160ff0219169083151502179055507f26240d96b75a51a1529395e869d3abdb2ef34328a279633ed295753179e89fdb60405160405180910390a1565b60007f01ffc9a7000000000000000000000000000000000000000000000000000000007bffffffffffffffffffffffffffffffffffffffffffffffffffffffff1916827bffffffffffffffffffffffffffffffffffffffffffffffffffffffff1916149050919050565b610e90610fca565b73ffffffffffffffffffffffffffffffffffffffff16610eae610398565b73ffffffffffffffffffffffffffffffffffffffff1614610f04576040517f08c379a0000000000000000000000000000000000000000000000000000000008152600401610efb90611a86565b60405180910390fd5b565b60008060009054906101000a900473ffffffffffffffffffffffffffffffffffffffff169050816000806101000a81548173ffffffffffffffffffffffffffffffffffffffff021916908373ffffffffffffffffffffffffffffffffffffffff1602179055508173ffffffffffffffffffffffffffffffffffffffff168173ffffffffffffffffffffffffffffffffffffffff167f8be0079c531659141344cd1fd0a4f28419497f9722a3daafe3b4186f6b6457e060405160405180910390a35050565b600033905090565b6000604051905090565b600080fd5b600080fd5b60007fffffffff0000000000000000000000000000000000000000000000000000000082169050919050565b61101b81610fe6565b811461102657600080fd5b50565b60008135905061103881611012565b92915050565b60006020828403121561105457611053610fdc565b5b600061106284828501611029565b91505092915050565b60008115159050919050565b6110808161106b565b82525050565b600060208201905061109b6000830184611077565b92915050565b600073ffffffffffffffffffffffffffffffffffffffff82169050919050565b6000819050919050565b60006110e66110e16110dc846110a1565b6110c1565b6110a1565b9050919050565b60006110f8826110cb565b9050919050565b600061110a826110ed565b9050919050565b61111a816110ff565b82525050565b60006020820190506111356000830184611111565b92915050565b6000611146826110a1565b9050919050565b6111568161113b565b82525050565b6000602082019050611171600083018461114d565b92915050565b6000819050919050565b61118a81611177565b811461119557600080fd5b50565b6000813590506111a781611181565b92915050565b600080fd5b6000601f19601f8301169050919050565b7f4e487b7100000000000000000000000000000000000000000000000000000000600052604160045260246000fd5b6111fb826111b2565b810181811067ffffffffffffffff8211171561121a576112196111c3565b5b80604052505050565b600061122d610fd2565b905061123982826111f2565b919050565b600067ffffffffffffffff821115611259576112586111c3565b5b602082029050602081019050919050565b600080fd5b600061128261127d8461123e565b611223565b905080838252602082019050602084028301858111156112a5576112a461126a565b5b835b818110156112ce57806112ba8882611198565b8452602084019350506020810190506112a7565b5050509392505050565b600082601f8301126112ed576112ec6111ad565b5b81356112fd84826020860161126f565b91505092915050565b6000806040838503121561131d5761131c610fdc565b5b600061132b85828601611198565b925050602083013567ffffffffffffffff81111561134c5761134b610fe1565b5b611358858286016112d8565b9150509250929050565b61136b8161113b565b811461137657600080fd5b50565b60008135905061138881611362565b92915050565b600080fd5b60008083601f8401126113a9576113a86111ad565b5b8235905067ffffffffffffffff8111156113c6576113c561138e565b5b6020830191508360208202830111156113e2576113e161126a565b5b9250929050565b60008083601f8401126113ff576113fe6111ad565b5b8235905067ffffffffffffffff81111561141c5761141b61138e565b5b6020830191508360018202830111156114385761143761126a565b5b9250929050565b60008060008060008060008060a0898b03121561145f5761145e610fdc565b5b600061146d8b828c01611379565b985050602061147e8b828c01611379565b975050604089013567ffffffffffffffff81111561149f5761149e610fe1565b5b6114ab8b828c01611393565b9650965050606089013567ffffffffffffffff8111156114ce576114cd610fe1565b5b6114da8b828c01611393565b9450945050608089013567ffffffffffffffff8111156114fd576114fc610fe1565b5b6115098b828c016113e9565b92509250509295985092959890939650565b61152481610fe6565b82525050565b600060208201905061153f600083018461151b565b92915050565b6000611550826110ed565b9050919050565b61156081611545565b82525050565b600060208201905061157b6000830184611557565b92915050565b60008060008060008060a0878903121561159e5761159d610fdc565b5b60006115ac89828a01611379565b96505060206115bd89828a01611379565b95505060406115ce89828a01611198565b94505060606115df89828a01611198565b935050608087013567ffffffffffffffff811115611600576115ff610fe1565b5b61160c89828a016113e9565b92509250509295509295509295565b60006020828403121561163157611630610fdc565b5b600061163f84828501611379565b91505092915050565b61165181611177565b82525050565b600060208201905061166c6000830184611648565b92915050565b6000604082019050611687600083018561114d565b6116946020830184611648565b9392505050565b6000815190506116aa81611181565b92915050565b6000602082840312156116c6576116c5610fdc565b5b60006116d48482850161169b565b91505092915050565b60006040820190506116f26000830185611648565b6116ff6020830184611648565b9392505050565b7f4e487b7100000000000000000000000000000000000000000000000000000000600052603260045260246000fd5b600060608201905061174a600083018661114d565b611757602083018561114d565b6117646040830184611648565b949350505050565b7f4e487b7100000000000000000000000000000000000000000000000000000000600052601160045260246000fd5b60006117a682611177565b91507fffffffffffffffffffffffffffffffffffffffffffffffffffffffffffffffff8214156117d9576117d861176c565b5b600182019050919050565b600082825260208201905092915050565b50565b60006118056000836117e4565b9150611810826117f5565b600082019050919050565b600060a082019050611830600083018761114d565b61183d602083018661114d565b61184a6040830185611648565b6118576060830184611648565b8181036080830152611868816117f8565b905095945050505050565b600081519050919050565b600082825260208201905092915050565b6000819050602082019050919050565b6118a881611177565b82525050565b60006118ba838361189f565b60208301905092915050565b6000602082019050919050565b60006118de82611873565b6118e8818561187e565b93506118f38361188f565b8060005b8381101561192457815161190b88826118ae565b9750611916836118c6565b9250506001810190506118f7565b5085935050505092915050565b600060a082019050611946600083018761114d565b611953602083018661114d565b818103604083015261196581856118d3565b9050818103606083015261197981846118d3565b9050818103608083015261198c816117f8565b905095945050505050565b600082825260208201905092915050565b7f4f776e61626c653a206e6577206f776e657220697320746865207a65726f206160008201527f6464726573730000000000000000000000000000000000000000000000000000602082015250565b6000611a04602683611997565b9150611a0f826119a8565b604082019050919050565b60006020820190508181036000830152611a33816119f7565b9050919050565b7f4f776e61626c653a2063616c6c6572206973206e6f7420746865206f776e6572600082015250565b6000611a70602083611997565b9150611a7b82611a3a565b602082019050919050565b60006020820190508181036000830152611a9f81611a63565b905091905056fea2646970667358221220e1f32763a86607e0df791c1af0835091dd654da61febf60305c13142c557784d64736f6c63430008090033",
  "linkReferences": {},
  "deployedLinkReferences": {}
}